{"abi":[{"type":"constructor","inputs":[{"name":"_admin","type":"address","internalType":"address"},{"name":"_pointsLedger","type":"address","internalType":"address"},{"name":"_stakingVault","type":"address","internalType":"address"}],"stateMutability":"nonpayable"},{"type":"function","name":"BLOCKS_PER_MONTH","inputs":[],"outputs":[{"name":"","type":"uint64","internalType":"uint64"}],"stateMutability":"view"},{"type":"function","name":"MAX_VOUCHES_PER_MONTH","inputs":[],"outputs":[{"name":"","type":"uint8","internalType":"uint8"}],"stateMutability":"view"},{"type":"function","name":"MIN_VOUCHER_SCORE","inputs":[],"outputs":[{"name":"","type":"uint64","internalType":"uint64"}],"stateMutability":"view"},{"type":"function","name":"POINTS_TO_LOCK","inputs":[],"outputs":[{"name":"","type":"uint64","internalType":"uint64"}],"stateMutability":"view"},{"type":"function","name":"VOUCHEE_THRESHOLD","inputs":[],"outputs":[{"name":"","type":"uint64","internalType":"uint64"}],"stateMutability":"view"},{"type":"function","name":"VOUCHER_DEFAULT_PENALTY","inputs":[],"outputs":[{"name":"","type":"uint64","internalType":"uint64"}],"stateMutability":"view"},{"type":"function","name":"VOUCHER_SUCCESS_REWARD","inputs":[],"outputs":[{"name":"","type":"uint64","internalType":"uint64"}],"stateMutability":"view"},{"type":"function","name":"VOUCH_WINDOW","inputs":[],"outputs":[{"name":"","type":"uint64","internalType":"uint64"}],"stateMutability":"view"},{"type":"function","name":"activeVouchCount","inputs":[{"name":"","type":"bytes32","internalType":"bytes32"}],"outputs":[{"name":"","type":"uint64","internalType":"uint64"}],"stateMutability":"view"},{"type":"function","name":"admin","inputs":[],"outputs":[{"name":"","type":"address","internalType":"address"}],"stateMutability":"view"},{"type":"function","name":"defaultReporter","inputs":[],"outputs":[{"name":"","type":"address","internalType":"address"}],"stateMutability":"view"},{"type":"function","name":"getVouch","inputs":[{"name":"vouchId","type":"uint64","internalType":"uint64"}],"outputs":[{"name":"","type":"tuple","internalType":"struct VouchRegistry.VouchRecord","components":[{"name":"id","type":"uint64","internalType":"uint64"},{"name":"voucher","type":"bytes32","internalType":"bytes32"},{"name":"vouchee","type":"bytes32","internalType":"bytes32"},{"name":"pointsLocked","type":"uint64","internalType":"uint64"},{"name":"createdAt","type":"uint64","internalType":"uint64"},{"name":"expiresAt","type":"uint64","internalType":"uint64"},{"name":"status","type":"uint8","internalType":"enum VouchRegistry.VouchStatus"}]}],"stateMutability":"view"},{"type":"function","name":"monthlyVouchCount","inputs":[{"name":"","type":"bytes32","internalType":"bytes32"},{"name":"","type":"uint64","internalType":"uint64"}],"outputs":[{"name":"","type":"uint8","internalType":"uint8"}],"stateMutability":"view"},{"type":"function","name":"nextVouchId","inputs":[],"outputs":[{"name":"","type":"uint64","internalType":"uint64"}],"stateMutability":"view"},{"type":"function","name":"pointsLedger","inputs":[],"outputs":[{"name":"","type":"address","internalType":"contract IPointsLedger"}],"stateMutability":"view"},{"type":"function","name":"reportDefault","inputs":[{"name":"vouchId","type":"uint64","internalType":"uint64"}],"outputs":[],"stateMutability":"nonpayable"},{"type":"function","name":"resolveVouch","inputs":[{"name":"vouchId","type":"uint64","internalType":"uint64"}],"outputs":[],"stateMutability":"nonpayable"},{"type":"function","name":"setDefaultReporter","inputs":[{"name":"reporter","type":"address","internalType":"address"}],"outputs":[],"stateMutability":"nonpayable"},{"type":"function","name":"stakingVault","inputs":[],"outputs":[{"name":"","type":"address","internalType":"contract IStakingVault"}],"stateMutability":"view"},{"type":"function","name":"transferAdmin","inputs":[{"name":"newAdmin","type":"address","internalType":"address"}],"outputs":[],"stateMutability":"nonpayable"},{"type":"function","name":"vouch","inputs":[{"name":"voucheePopId","type":"bytes32","internalType":"bytes32"}],"outputs":[{"name":"","type":"uint64","internalType":"uint64"}],"stateMutability":"nonpayable"},{"type":"function","name":"voucheeIndex","inputs":[{"name":"","type":"bytes32","internalType":"bytes32"},{"name":"","type":"uint256","internalType":"uint256"}],"outputs":[{"name":"","type":"uint64","internalType":"uint64"}],"stateMutability":"view"},{"type":"function","name":"voucherIndex","inputs":[{"name":"","type":"bytes32","internalType":"bytes32"},{"name":"","type":"uint256","internalType":"uint256"}],"outputs":[{"name":"","type":"uint64","internalType":"uint64"}],"stateMutability":"view"},{"type":"function","name":"vouchesMadeBy","inputs":[{"name":"popId","type":"bytes32","internalType":"bytes32"}],"outputs":[{"name":"","type":"uint64[]","internalType":"uint64[]"}],"stateMutability":"view"},{"type":"function","name":"vouchesReceivedBy","inputs":[{"name":"popId","type":"bytes32","internalType":"bytes32"}],"outputs":[{"name":"","type":"uint64[]","internalType":"uint64[]"}],"stateMutability":"view"},{"type":"event","name":"DefaultReporterSet","inputs":[{"name":"reporter","type":"address","indexed":true,"internalType":"address"}],"anonymous":false},{"type":"event","name":"VouchCreated","inputs":[{"name":"vouchId","type":"uint64","indexed":true,"internalType":"uint64"},{"name":"voucher","type":"bytes32","indexed":true,"internalType":"bytes32"},{"name":"vouchee","type":"bytes32","indexed":true,"internalType":"bytes32"},{"name":"createdAt","type":"uint64","indexed":false,"internalType":"uint64"},{"name":"expiresAt","type":"uint64","indexed":false,"internalType":"uint64"}],"anonymous":false},{"type":"event","name":"VouchDefaulted","inputs":[{"name":"vouchId","type":"uint64","indexed":true,"internalType":"uint64"},{"name":"vouchee","type":"bytes32","indexed":true,"internalType":"bytes32"}],"anonymous":false},{"type":"event","name":"VouchFailed","inputs":[{"name":"vouchId","type":"uint64","indexed":true,"internalType":"uint64"}],"anonymous":false},{"type":"event","name":"VouchSucceeded","inputs":[{"name":"vouchId","type":"uint64","indexed":true,"internalType":"uint64"}],"anonymous":false}],"bytecode":{"object":"0x60c060405260018060146101000a81548167ffffffffffffffff021916908367ffffffffffffffff160217905550348015610038575f5ffd5b506040516134ee3803806134ee833981810160405281019061005a91906101d5565b5f73ffffffffffffffffffffffffffffffffffffffff168373ffffffffffffffffffffffffffffffffffffffff16036100c8576040517f08c379a00000000000000000000000000000000000000000000000000000000081526004016100bf9061027f565b60405180910390fd5b825f5f6101000a81548173ffffffffffffffffffffffffffffffffffffffff021916908373ffffffffffffffffffffffffffffffffffffffff1602179055508173ffffffffffffffffffffffffffffffffffffffff1660808173ffffffffffffffffffffffffffffffffffffffff16815250508073ffffffffffffffffffffffffffffffffffffffff1660a08173ffffffffffffffffffffffffffffffffffffffff168152505050505061029d565b5f5ffd5b5f73ffffffffffffffffffffffffffffffffffffffff82169050919050565b5f6101a48261017b565b9050919050565b6101b48161019a565b81146101be575f5ffd5b50565b5f815190506101cf816101ab565b92915050565b5f5f5f606084860312156101ec576101eb610177565b5b5f6101f9868287016101c1565b935050602061020a868287016101c1565b925050604061021b868287016101c1565b9150509250925092565b5f82825260208201905092915050565b7f566f75636852656769737472793a207a65726f2061646d696e000000000000005f82015250565b5f610269601983610225565b915061027482610235565b602082019050919050565b5f6020820190508181035f8301526102968161025d565b9050919050565b60805160a0516131c76103275f395f81816108c00152818161099201528181610a690152818161111c0152611f6b01525f818161069f0152818161072f015281816107db01528181610bdc01528181611091015281816117b90152818161195c01528181611a7701528181611b1c01528181611ba901528181611c9f0152611d5601526131c75ff3fe608060405234801561000f575f5ffd5b5060043610610171575f3560e01c80637fd71749116100dc578063b20ffc5511610095578063e93a80041161006f578063e93a800414610463578063ea97ba5514610481578063f851a4401461049d578063fdc29221146104bb57610171565b8063b20ffc55146103f7578063bf07edb914610415578063c409084a1461044557610171565b80637fd71749146103215780638bca56841461033f57806391dcfed71461035d5780639557ab541461038d57806397739466146103a9578063a33e7faf146103d957610171565b8063430707221161012e57806343070722146102395780634c7ac550146102695780636a6c89981461028757806373340f76146102a557806375829def146102d55780637e837163146102f157610171565b8063026a261c1461017557806320f64def1461019157806324e7964a146101af5780632dbc7133146101cd5780633faf511f146101eb5780633feff9d21461021b575b5f5ffd5b61018f600480360381019061018a91906120ce565b6104eb565b005b6101996108b7565b6040516101a69190612108565b60405180910390f35b6101b76108be565b6040516101c4919061219b565b60405180910390f35b6101d56108e2565b6040516101e29190612108565b60405180910390f35b610205600480360381019061020091906121e7565b6108e7565b6040516102129190612108565b60405180910390f35b6102236111f4565b6040516102309190612108565b60405180910390f35b610253600480360381019061024e91906121e7565b61120e565b60405161026091906122c9565b60405180910390f35b6102716112a8565b60405161027e9190612108565b60405180910390f35b61028f6112ad565b60405161029c9190612108565b60405180910390f35b6102bf60048036038101906102ba91906120ce565b6112b2565b6040516102cc91906123f7565b60405180910390f35b6102ef60048036038101906102ea919061244b565b611405565b005b61030b60048036038101906103069190612476565b611543565b60405161031891906124cf565b60405180910390f35b61032961156d565b60405161033691906124cf565b60405180910390f35b610347611572565b6040516103549190612108565b60405180910390f35b610377600480360381019061037291906121e7565b611577565b60405161038491906122c9565b60405180910390f35b6103a760048036038101906103a2919061244b565b611611565b005b6103c360048036038101906103be91906121e7565b611793565b6040516103d09190612108565b60405180910390f35b6103e16117b7565b6040516103ee9190612508565b60405180910390f35b6103ff6117db565b60405161040c9190612530565b60405180910390f35b61042f600480360381019061042a919061257c565b611800565b60405161043c9190612108565b60405180910390f35b61044d611848565b60405161045a9190612108565b60405180910390f35b61046b61184f565b6040516104789190612108565b60405180910390f35b61049b600480360381019061049691906120ce565b611854565b005b6104a5611e37565b6040516104b29190612530565b60405180910390f35b6104d560048036038101906104d0919061257c565b611e5b565b6040516104e29190612108565b60405180910390f35b60015f9054906101000a900473ffffffffffffffffffffffffffffffffffffffff1673ffffffffffffffffffffffffffffffffffffffff163373ffffffffffffffffffffffffffffffffffffffff16148061059157505f5f9054906101000a900473ffffffffffffffffffffffffffffffffffffffff1673ffffffffffffffffffffffffffffffffffffffff163373ffffffffffffffffffffffffffffffffffffffff16145b6105d0576040517f08c379a00000000000000000000000000000000000000000000000000000000081526004016105c790612614565b60405180910390fd5b5f60025f8367ffffffffffffffff1667ffffffffffffffff1681526020019081526020015f2090506001600481111561060c5761060b6122f8565b5b8160030160189054906101000a900460ff1660048111156106305761062f6122f8565b5b14610670576040517f08c379a00000000000000000000000000000000000000000000000000000000081526004016106679061267c565b60405180910390fd5b60048160030160186101000a81548160ff02191690836004811115610698576106976122f8565b5b02179055507f000000000000000000000000000000000000000000000000000000000000000073ffffffffffffffffffffffffffffffffffffffff16630ef7389482600101546032856040518463ffffffff1660e01b81526004016106ff939291906126a9565b5f604051808303815f87803b158015610716575f5ffd5b505af1158015610728573d5f5f3e3d5ffd5b505050505f7f000000000000000000000000000000000000000000000000000000000000000073ffffffffffffffffffffffffffffffffffffffff16638e73946183600201546040518263ffffffff1660e01b815260040161078a91906126de565b60c060405180830381865afa1580156107a5573d5f5f3e3d5ffd5b505050506040513d601f19601f820116820180604052508101906107c9919061286a565b90505f815f015160070b1315610869577f000000000000000000000000000000000000000000000000000000000000000073ffffffffffffffffffffffffffffffffffffffff1663029db3a68360020154835f01516040518363ffffffff1660e01b815260040161083b9291906128df565b5f604051808303815f87803b158015610852575f5ffd5b505af1158015610864573d5f5f3e3d5ffd5b505050505b81600201548367ffffffffffffffff167f31b1770e5206a9f4573e785e4801e9487bead4635ac0a563386df08c4b0d4f2c60405160405180910390a36108b28260010154611ea3565b505050565b6201fa4081565b7f000000000000000000000000000000000000000000000000000000000000000081565b603281565b5f5f6109083373ffffffffffffffffffffffffffffffffffffffff16611ff3565b90505f5f1b830361094e576040517f08c379a000000000000000000000000000000000000000000000000000000000815260040161094590612963565b60405180910390fd5b828103610990576040517f08c379a0000000000000000000000000000000000000000000000000000000008152600401610987906129cb565b60405180910390fd5b7f000000000000000000000000000000000000000000000000000000000000000073ffffffffffffffffffffffffffffffffffffffff166382e14145826040518263ffffffff1660e01b81526004016109e991906126de565b602060405180830381865afa158015610a04573d5f5f3e3d5ffd5b505050506040513d601f19601f82011682018060405250810190610a289190612a1e565b610a67576040517f08c379a0000000000000000000000000000000000000000000000000000000008152600401610a5e90612a93565b60405180910390fd5b7f000000000000000000000000000000000000000000000000000000000000000073ffffffffffffffffffffffffffffffffffffffff166382e14145846040518263ffffffff1660e01b8152600401610ac091906126de565b602060405180830381865afa158015610adb573d5f5f3e3d5ffd5b505050506040513d601f19601f82011682018060405250810190610aff9190612a1e565b610b3e576040517f08c379a0000000000000000000000000000000000000000000000000000000008152600401610b3590612afb565b60405180910390fd5b5f62034bc043610b4e9190612b73565b9050600360ff1660065f8481526020019081526020015f205f8367ffffffffffffffff1667ffffffffffffffff1681526020019081526020015f205f9054906101000a900460ff1660ff1610610bd9576040517f08c379a0000000000000000000000000000000000000000000000000000000008152600401610bd090612bed565b60405180910390fd5b5f7f000000000000000000000000000000000000000000000000000000000000000073ffffffffffffffffffffffffffffffffffffffff16638e739461846040518263ffffffff1660e01b8152600401610c3391906126de565b60c060405180830381865afa158015610c4e573d5f5f3e3d5ffd5b505050506040513d601f19601f82011682018060405250810190610c72919061286a565b9050603260070b815f015160070b1215610cc1576040517f08c379a0000000000000000000000000000000000000000000000000000000008152600401610cb890612c55565b60405180910390fd5b601460070b816080015160070b1215610d0f576040517f08c379a0000000000000000000000000000000000000000000000000000000008152600401610d0690612ce3565b60405180910390fd5b5f6001601481819054906101000a900467ffffffffffffffff1680929190610d3690612d01565b91906101000a81548167ffffffffffffffff021916908367ffffffffffffffff16021790555090505f4390505f6201fa4082610d729190612d30565b90506040518060e001604052808467ffffffffffffffff168152602001878152602001898152602001601467ffffffffffffffff1681526020018367ffffffffffffffff1681526020018267ffffffffffffffff16815260200160016004811115610de057610ddf6122f8565b5b81525060025f8567ffffffffffffffff1667ffffffffffffffff1681526020019081526020015f205f820151815f015f6101000a81548167ffffffffffffffff021916908367ffffffffffffffff16021790555060208201518160010155604082015181600201556060820151816003015f6101000a81548167ffffffffffffffff021916908367ffffffffffffffff16021790555060808201518160030160086101000a81548167ffffffffffffffff021916908367ffffffffffffffff16021790555060a08201518160030160106101000a81548167ffffffffffffffff021916908367ffffffffffffffff16021790555060c08201518160030160186101000a81548160ff02191690836004811115610eff57610efe6122f8565b5b021790555090505060035f8781526020019081526020015f2083908060018154018082558091505060019003905f5260205f2090600491828204019190066008029091909190916101000a81548167ffffffffffffffff021916908367ffffffffffffffff16021790555060045f8981526020019081526020015f2083908060018154018082558091505060019003905f5260205f2090600491828204019190066008029091909190916101000a81548167ffffffffffffffff021916908367ffffffffffffffff160217905550600160055f8881526020019081526020015f205f8282829054906101000a900467ffffffffffffffff166110019190612d30565b92506101000a81548167ffffffffffffffff021916908367ffffffffffffffff160217905550600160065f8881526020019081526020015f205f8767ffffffffffffffff1667ffffffffffffffff1681526020019081526020015f205f8282829054906101000a900460ff166110779190612d6b565b92506101000a81548160ff021916908360ff1602179055507f000000000000000000000000000000000000000000000000000000000000000073ffffffffffffffffffffffffffffffffffffffff1663143c44dc876014866040518463ffffffff1660e01b81526004016110ed939291906126a9565b5f604051808303815f87803b158015611104575f5ffd5b505af1158015611116573d5f5f3e3d5ffd5b505050507f000000000000000000000000000000000000000000000000000000000000000073ffffffffffffffffffffffffffffffffffffffff16636c57966d876040518263ffffffff1660e01b815260040161117391906126de565b5f604051808303815f87803b15801561118a575f5ffd5b505af115801561119c573d5f5f3e3d5ffd5b5050505087868467ffffffffffffffff167f4492ff1e38db1d4bf9649b37a26f0286ded0154fa4d011a926401e4c6223fa3585856040516111de929190612d9f565b60405180910390a4829650505050505050919050565b600160149054906101000a900467ffffffffffffffff1681565b606060035f8381526020019081526020015f2080548060200260200160405190810160405280929190818152602001828054801561129c57602002820191905f5260205f20905f905b82829054906101000a900467ffffffffffffffff1667ffffffffffffffff16815260200190600801906020826007010492830192600103820291508084116112575790505b50505050509050919050565b603281565b601481565b6112ba612014565b60025f8367ffffffffffffffff1667ffffffffffffffff1681526020019081526020015f206040518060e00160405290815f82015f9054906101000a900467ffffffffffffffff1667ffffffffffffffff1667ffffffffffffffff1681526020016001820154815260200160028201548152602001600382015f9054906101000a900467ffffffffffffffff1667ffffffffffffffff1667ffffffffffffffff1681526020016003820160089054906101000a900467ffffffffffffffff1667ffffffffffffffff1667ffffffffffffffff1681526020016003820160109054906101000a900467ffffffffffffffff1667ffffffffffffffff1667ffffffffffffffff1681526020016003820160189054906101000a900460ff1660048111156113e8576113e76122f8565b5b60048111156113fa576113f96122f8565b5b815250509050919050565b5f5f9054906101000a900473ffffffffffffffffffffffffffffffffffffffff1673ffffffffffffffffffffffffffffffffffffffff163373ffffffffffffffffffffffffffffffffffffffff1614611493576040517f08c379a000000000000000000000000000000000000000000000000000000000815260040161148a90612e10565b60405180910390fd5b5f73ffffffffffffffffffffffffffffffffffffffff168173ffffffffffffffffffffffffffffffffffffffff1603611501576040517f08c379a00000000000000000000000000000000000000000000000000000000081526004016114f890612e78565b60405180910390fd5b805f5f6101000a81548173ffffffffffffffffffffffffffffffffffffffff021916908373ffffffffffffffffffffffffffffffffffffffff16021790555050565b6006602052815f5260405f20602052805f5260405f205f915091509054906101000a900460ff1681565b600381565b600581565b606060045f8381526020019081526020015f2080548060200260200160405190810160405280929190818152602001828054801561160557602002820191905f5260205f20905f905b82829054906101000a900467ffffffffffffffff1667ffffffffffffffff16815260200190600801906020826007010492830192600103820291508084116115c05790505b50505050509050919050565b5f5f9054906101000a900473ffffffffffffffffffffffffffffffffffffffff1673ffffffffffffffffffffffffffffffffffffffff163373ffffffffffffffffffffffffffffffffffffffff161461169f576040517f08c379a000000000000000000000000000000000000000000000000000000000815260040161169690612e10565b60405180910390fd5b5f73ffffffffffffffffffffffffffffffffffffffff168173ffffffffffffffffffffffffffffffffffffffff160361170d576040517f08c379a000000000000000000000000000000000000000000000000000000000815260040161170490612ee0565b60405180910390fd5b8060015f6101000a81548173ffffffffffffffffffffffffffffffffffffffff021916908373ffffffffffffffffffffffffffffffffffffffff1602179055508073ffffffffffffffffffffffffffffffffffffffff167f638731eec118fa7c3cfd34dfca57336b61ad084f9f225e874488110e96d10d8860405160405180910390a250565b6005602052805f5260405f205f915054906101000a900467ffffffffffffffff1681565b7f000000000000000000000000000000000000000000000000000000000000000081565b60015f9054906101000a900473ffffffffffffffffffffffffffffffffffffffff1681565b6004602052815f5260405f208181548110611819575f80fd5b905f5260205f209060049182820401919006600802915091509054906101000a900467ffffffffffffffff1681565b62034bc081565b601e81565b5f60025f8367ffffffffffffffff1667ffffffffffffffff1681526020019081526020015f209050600160048111156118905761188f6122f8565b5b8160030160189054906101000a900460ff1660048111156118b4576118b36122f8565b5b146118f4576040517f08c379a00000000000000000000000000000000000000000000000000000000081526004016118eb9061267c565b60405180910390fd5b8060030160109054906101000a900467ffffffffffffffff1667ffffffffffffffff16431015611959576040517f08c379a000000000000000000000000000000000000000000000000000000000815260040161195090612f48565b60405180910390fd5b5f7f000000000000000000000000000000000000000000000000000000000000000073ffffffffffffffffffffffffffffffffffffffff1663870166a683600201548460030160089054906101000a900467ffffffffffffffff168560030160109054906101000a900467ffffffffffffffff166040518463ffffffff1660e01b81526004016119eb939291906126a9565b602060405180830381865afa158015611a06573d5f5f3e3d5ffd5b505050506040513d601f19601f82011682018060405250810190611a2a9190612f66565b9050601e67ffffffffffffffff168167ffffffffffffffff1610611c705760028260030160186101000a81548160ff02191690836004811115611a7057611a6f6122f8565b5b02179055507f000000000000000000000000000000000000000000000000000000000000000073ffffffffffffffffffffffffffffffffffffffff16637162fd758360010154846003015f9054906101000a900467ffffffffffffffff16866040518463ffffffff1660e01b8152600401611aed939291906126a9565b5f604051808303815f87803b158015611b04575f5ffd5b505af1158015611b16573d5f5f3e3d5ffd5b505050507f000000000000000000000000000000000000000000000000000000000000000073ffffffffffffffffffffffffffffffffffffffff166361eb1036836001015460056040518363ffffffff1660e01b8152600401611b7a929190612fdb565b5f604051808303815f87803b158015611b91575f5ffd5b505af1158015611ba3573d5f5f3e3d5ffd5b505050507f000000000000000000000000000000000000000000000000000000000000000073ffffffffffffffffffffffffffffffffffffffff166361eb1036836002015460026040518363ffffffff1660e01b8152600401611c07929190613098565b5f604051808303815f87803b158015611c1e575f5ffd5b505af1158015611c30573d5f5f3e3d5ffd5b505050508267ffffffffffffffff167fa56b52aba58eae69982842746fe427b0a0a051db61da381526784268f20b6d2f60405160405180910390a2611e25565b60038260030160186101000a81548160ff02191690836004811115611c9857611c976122f8565b5b02179055507f000000000000000000000000000000000000000000000000000000000000000073ffffffffffffffffffffffffffffffffffffffff16630ef738948360010154846003015f9054906101000a900467ffffffffffffffff16866040518463ffffffff1660e01b8152600401611d15939291906126a9565b5f604051808303815f87803b158015611d2c575f5ffd5b505af1158015611d3e573d5f5f3e3d5ffd5b505050505f8167ffffffffffffffff161115611ded577f000000000000000000000000000000000000000000000000000000000000000073ffffffffffffffffffffffffffffffffffffffff1663029db3a68360020154600284611da29190612b73565b6040518363ffffffff1660e01b8152600401611dbf92919061311c565b5f604051808303815f87803b158015611dd6575f5ffd5b505af1158015611de8573d5f5f3e3d5ffd5b505050505b8267ffffffffffffffff167fe2c285f21eebe1ae2790701470fc8ac669cdeba93d3e58cf3027abf1d4749ebd60405160405180910390a25b611e328260010154611ea3565b505050565b5f5f9054906101000a900473ffffffffffffffffffffffffffffffffffffffff1681565b6003602052815f5260405f208181548110611e74575f80fd5b905f5260205f209060049182820401919006600802915091509054906101000a900467ffffffffffffffff1681565b5f60055f8381526020019081526020015f205f9054906101000a900467ffffffffffffffff1667ffffffffffffffff161115611f3457600160055f8381526020019081526020015f205f8282829054906101000a900467ffffffffffffffff16611f0d9190613156565b92506101000a81548167ffffffffffffffff021916908367ffffffffffffffff1602179055505b5f60055f8381526020019081526020015f205f9054906101000a900467ffffffffffffffff1667ffffffffffffffff1603611ff0577f000000000000000000000000000000000000000000000000000000000000000073ffffffffffffffffffffffffffffffffffffffff16639848e545826040518263ffffffff1660e01b8152600401611fc291906126de565b5f604051808303815f87803b158015611fd9575f5ffd5b505af1158015611feb573d5f5f3e3d5ffd5b505050505b50565b5f8173ffffffffffffffffffffffffffffffffffffffff165f1b9050919050565b6040518060e001604052805f67ffffffffffffffff1681526020015f81526020015f81526020015f67ffffffffffffffff1681526020015f67ffffffffffffffff1681526020015f67ffffffffffffffff1681526020015f600481111561207e5761207d6122f8565b5b81525090565b5f604051905090565b5f5ffd5b5f67ffffffffffffffff82169050919050565b6120ad81612091565b81146120b7575f5ffd5b50565b5f813590506120c8816120a4565b92915050565b5f602082840312156120e3576120e261208d565b5b5f6120f0848285016120ba565b91505092915050565b61210281612091565b82525050565b5f60208201905061211b5f8301846120f9565b92915050565b5f73ffffffffffffffffffffffffffffffffffffffff82169050919050565b5f819050919050565b5f61216361215e61215984612121565b612140565b612121565b9050919050565b5f61217482612149565b9050919050565b5f6121858261216a565b9050919050565b6121958161217b565b82525050565b5f6020820190506121ae5f83018461218c565b92915050565b5f819050919050565b6121c6816121b4565b81146121d0575f5ffd5b50565b5f813590506121e1816121bd565b92915050565b5f602082840312156121fc576121fb61208d565b5b5f612209848285016121d3565b91505092915050565b5f81519050919050565b5f82825260208201905092915050565b5f819050602082019050919050565b61224481612091565b82525050565b5f612255838361223b565b60208301905092915050565b5f602082019050919050565b5f61227782612212565b612281818561221c565b935061228c8361222c565b805f5b838110156122bc5781516122a3888261224a565b97506122ae83612261565b92505060018101905061228f565b5085935050505092915050565b5f6020820190508181035f8301526122e1818461226d565b905092915050565b6122f2816121b4565b82525050565b7f4e487b71000000000000000000000000000000000000000000000000000000005f52602160045260245ffd5b60058110612336576123356122f8565b5b50565b5f81905061234682612325565b919050565b5f61235582612339565b9050919050565b6123658161234b565b82525050565b60e082015f82015161237f5f85018261223b565b50602082015161239260208501826122e9565b5060408201516123a560408501826122e9565b5060608201516123b8606085018261223b565b5060808201516123cb608085018261223b565b5060a08201516123de60a085018261223b565b5060c08201516123f160c085018261235c565b50505050565b5f60e08201905061240a5f83018461236b565b92915050565b5f61241a82612121565b9050919050565b61242a81612410565b8114612434575f5ffd5b50565b5f8135905061244581612421565b92915050565b5f602082840312156124605761245f61208d565b5b5f61246d84828501612437565b91505092915050565b5f5f6040838503121561248c5761248b61208d565b5b5f612499858286016121d3565b92505060206124aa858286016120ba565b9150509250929050565b5f60ff82169050919050565b6124c9816124b4565b82525050565b5f6020820190506124e25f8301846124c0565b92915050565b5f6124f28261216a565b9050919050565b612502816124e8565b82525050565b5f60208201905061251b5f8301846124f9565b92915050565b61252a81612410565b82525050565b5f6020820190506125435f830184612521565b92915050565b5f819050919050565b61255b81612549565b8114612565575f5ffd5b50565b5f8135905061257681612552565b92915050565b5f5f604083850312156125925761259161208d565b5b5f61259f858286016121d3565b92505060206125b085828601612568565b9150509250929050565b5f82825260208201905092915050565b7f566f75636852656769737472793a206e6f74207265706f7274657200000000005f82015250565b5f6125fe601b836125ba565b9150612609826125ca565b602082019050919050565b5f6020820190508181035f83015261262b816125f2565b9050919050565b7f566f75636852656769737472793a206e6f7420616374697665000000000000005f82015250565b5f6126666019836125ba565b915061267182612632565b602082019050919050565b5f6020820190508181035f8301526126938161265a565b9050919050565b6126a3816121b4565b82525050565b5f6060820190506126bc5f83018661269a565b6126c960208301856120f9565b6126d660408301846120f9565b949350505050565b5f6020820190506126f15f83018461269a565b92915050565b5f5ffd5b5f601f19601f8301169050919050565b7f4e487b71000000000000000000000000000000000000000000000000000000005f52604160045260245ffd5b612741826126fb565b810181811067ffffffffffffffff821117156127605761275f61270b565b5b80604052505050565b5f612772612084565b905061277e8282612738565b919050565b5f8160070b9050919050565b61279881612783565b81146127a2575f5ffd5b50565b5f815190506127b38161278f565b92915050565b5f815190506127c7816120a4565b92915050565b5f60c082840312156127e2576127e16126f7565b5b6127ec60c0612769565b90505f6127fb848285016127a5565b5f83015250602061280e848285016127b9565b6020830152506040612822848285016127b9565b6040830152506060612836848285016127b9565b606083015250608061284a848285016127a5565b60808301525060a061285e848285016127b9565b60a08301525092915050565b5f60c0828403121561287f5761287e61208d565b5b5f61288c848285016127cd565b91505092915050565b7f64656661756c74000000000000000000000000000000000000000000000000005f82015250565b5f6128c96007836125ba565b91506128d482612895565b602082019050919050565b5f6060820190506128f25f83018561269a565b6128ff60208301846120f9565b8181036040830152612910816128bd565b90509392505050565b7f566f75636852656769737472793a20766f7563686565207a65726f00000000005f82015250565b5f61294d601b836125ba565b915061295882612919565b602082019050919050565b5f6020820190508181035f83015261297a81612941565b9050919050565b7f566f75636852656769737472793a2073656c6620766f756368000000000000005f82015250565b5f6129b56019836125ba565b91506129c082612981565b602082019050919050565b5f6020820190508181035f8301526129e2816129a9565b9050919050565b5f8115159050919050565b6129fd816129e9565b8114612a07575f5ffd5b50565b5f81519050612a18816129f4565b92915050565b5f60208284031215612a3357612a3261208d565b5b5f612a4084828501612a0a565b91505092915050565b7f566f75636852656769737472793a20766f7563686572206e6f207374616b65005f82015250565b5f612a7d601f836125ba565b9150612a8882612a49565b602082019050919050565b5f6020820190508181035f830152612aaa81612a71565b9050919050565b7f566f75636852656769737472793a20766f7563686565206e6f207374616b65005f82015250565b5f612ae5601f836125ba565b9150612af082612ab1565b602082019050919050565b5f6020820190508181035f830152612b1281612ad9565b9050919050565b7f4e487b71000000000000000000000000000000000000000000000000000000005f52601260045260245ffd5b7f4e487b71000000000000000000000000000000000000000000000000000000005f52601160045260245ffd5b5f612b7d82612091565b9150612b8883612091565b925082612b9857612b97612b19565b5b828204905092915050565b7f566f75636852656769737472793a206d6f6e74686c79206361700000000000005f82015250565b5f612bd7601a836125ba565b9150612be282612ba3565b602082019050919050565b5f6020820190508181035f830152612c0481612bcb565b9050919050565b7f566f75636852656769737472793a2062656c6f77206d696e2073636f726500005f82015250565b5f612c3f601e836125ba565b9150612c4a82612c0b565b602082019050919050565b5f6020820190508181035f830152612c6c81612c33565b9050919050565b7f566f75636852656769737472793a20696e73756666696369656e7420617661695f8201527f6c61626c65000000000000000000000000000000000000000000000000000000602082015250565b5f612ccd6025836125ba565b9150612cd882612c73565b604082019050919050565b5f6020820190508181035f830152612cfa81612cc1565b9050919050565b5f612d0b82612091565b915067ffffffffffffffff8203612d2557612d24612b46565b5b600182019050919050565b5f612d3a82612091565b9150612d4583612091565b9250828201905067ffffffffffffffff811115612d6557612d64612b46565b5b92915050565b5f612d75826124b4565b9150612d80836124b4565b9250828201905060ff811115612d9957612d98612b46565b5b92915050565b5f604082019050612db25f8301856120f9565b612dbf60208301846120f9565b9392505050565b7f566f75636852656769737472793a206e6f742061646d696e00000000000000005f82015250565b5f612dfa6018836125ba565b9150612e0582612dc6565b602082019050919050565b5f6020820190508181035f830152612e2781612dee565b9050919050565b7f566f75636852656769737472793a207a65726f2061646d696e000000000000005f82015250565b5f612e626019836125ba565b9150612e6d82612e2e565b602082019050919050565b5f6020820190508181035f830152612e8f81612e56565b9050919050565b7f566f75636852656769737472793a207a65726f207265706f72746572000000005f82015250565b5f612eca601c836125ba565b9150612ed582612e96565b602082019050919050565b5f6020820190508181035f830152612ef781612ebe565b9050919050565b7f566f75636852656769737472793a2077696e646f77206f70656e0000000000005f82015250565b5f612f32601a836125ba565b9150612f3d82612efe565b602082019050919050565b5f6020820190508181035f830152612f5f81612f26565b9050919050565b5f60208284031215612f7b57612f7a61208d565b5b5f612f88848285016127b9565b91505092915050565b7f766f7563685f73756363657373000000000000000000000000000000000000005f82015250565b5f612fc5600d836125ba565b9150612fd082612f91565b602082019050919050565b5f606082019050612fee5f83018561269a565b612ffb60208301846120f9565b818103604083015261300c81612fb9565b90509392505050565b5f819050919050565b5f61303861303361302e84613015565b612140565b612091565b9050919050565b6130488161301e565b82525050565b7f766f75636865645f666f720000000000000000000000000000000000000000005f82015250565b5f613082600b836125ba565b915061308d8261304e565b602082019050919050565b5f6060820190506130ab5f83018561269a565b6130b8602083018461303f565b81810360408301526130c981613076565b90509392505050565b7f766f7563685f68616c76650000000000000000000000000000000000000000005f82015250565b5f613106600b836125ba565b9150613111826130d2565b602082019050919050565b5f60608201905061312f5f83018561269a565b61313c60208301846120f9565b818103604083015261314d816130fa565b90509392505050565b5f61316082612091565b915061316b83612091565b9250828203905067ffffffffffffffff81111561318b5761318a612b46565b5b9291505056fea2646970667358221220e4b2abe4d511828de55f7d5e853f6b3f63d05042de8b3bd9e759d26870448e0b64736f6c634300081e0033","linkReferences":{}},"methodIdentifiers":{"BLOCKS_PER_MONTH()":"c409084a","MAX_VOUCHES_PER_MONTH()":"7fd71749","MIN_VOUCHER_SCORE()":"2dbc7133","POINTS_TO_LOCK()":"6a6c8998","VOUCHEE_THRESHOLD()":"e93a8004","VOUCHER_DEFAULT_PENALTY()":"4c7ac550","VOUCHER_SUCCESS_REWARD()":"8bca5684","VOUCH_WINDOW()":"20f64def","activeVouchCount(bytes32)":"97739466","admin()":"f851a440","defaultReporter()":"b20ffc55","getVouch(uint64)":"73340f76","monthlyVouchCount(bytes32,uint64)":"7e837163","nextVouchId()":"3feff9d2","pointsLedger()":"a33e7faf","reportDefault(uint64)":"026a261c","resolveVouch(uint64)":"ea97ba55","setDefaultReporter(address)":"9557ab54","stakingVault()":"24e7964a","transferAdmin(address)":"75829def","vouch(bytes32)":"3faf511f","voucheeIndex(bytes32,uint256)":"bf07edb9","voucherIndex(bytes32,uint256)":"fdc29221","vouchesMadeBy(bytes32)":"43070722","vouchesReceivedBy(bytes32)":"91dcfed7"},"id":4}