{"abi":[{"type":"constructor","inputs":[{"name":"_admin","type":"address","internalType":"address"}],"stateMutability":"nonpayable"},{"type":"function","name":"admin","inputs":[],"outputs":[{"name":"","type":"address","internalType":"address"}],"stateMutability":"view"},{"type":"function","name":"authorized","inputs":[{"name":"","type":"address","internalType":"address"}],"outputs":[{"name":"","type":"bool","internalType":"bool"}],"stateMutability":"view"},{"type":"function","name":"burnLockedPoints","inputs":[{"name":"popId","type":"bytes32","internalType":"bytes32"},{"name":"amount","type":"uint64","internalType":"uint64"},{"name":"vouchId","type":"uint64","internalType":"uint64"}],"outputs":[],"stateMutability":"nonpayable"},{"type":"function","name":"burnPoints","inputs":[{"name":"popId","type":"bytes32","internalType":"bytes32"},{"name":"amount","type":"uint64","internalType":"uint64"},{"name":"reason","type":"string","internalType":"string"}],"outputs":[],"stateMutability":"nonpayable"},{"type":"function","name":"getBalance","inputs":[{"name":"popId","type":"bytes32","internalType":"bytes32"}],"outputs":[{"name":"","type":"tuple","internalType":"struct IPointsLedger.PointsBalance","components":[{"name":"total","type":"int64","internalType":"int64"},{"name":"earned","type":"uint64","internalType":"uint64"},{"name":"burned","type":"uint64","internalType":"uint64"},{"name":"locked","type":"uint64","internalType":"uint64"},{"name":"available","type":"int64","internalType":"int64"},{"name":"lastUpdated","type":"uint64","internalType":"uint64"}]}],"stateMutability":"view"},{"type":"function","name":"getPointsEarnedInWindow","inputs":[{"name":"popId","type":"bytes32","internalType":"bytes32"},{"name":"fromBlock","type":"uint64","internalType":"uint64"},{"name":"toBlock","type":"uint64","internalType":"uint64"}],"outputs":[{"name":"","type":"uint64","internalType":"uint64"}],"stateMutability":"view"},{"type":"function","name":"historyAt","inputs":[{"name":"popId","type":"bytes32","internalType":"bytes32"},{"name":"idx","type":"uint256","internalType":"uint256"}],"outputs":[{"name":"","type":"tuple","internalType":"struct PointsLedger.PointEvent","components":[{"name":"amount","type":"int64","internalType":"int64"},{"name":"timestamp","type":"uint64","internalType":"uint64"},{"name":"relatedVouchId","type":"uint64","internalType":"uint64"},{"name":"reason","type":"string","internalType":"string"}]}],"stateMutability":"view"},{"type":"function","name":"historyLength","inputs":[{"name":"popId","type":"bytes32","internalType":"bytes32"}],"outputs":[{"name":"","type":"uint256","internalType":"uint256"}],"stateMutability":"view"},{"type":"function","name":"lockPoints","inputs":[{"name":"popId","type":"bytes32","internalType":"bytes32"},{"name":"amount","type":"uint64","internalType":"uint64"},{"name":"vouchId","type":"uint64","internalType":"uint64"}],"outputs":[],"stateMutability":"nonpayable"},{"type":"function","name":"lockedPoints","inputs":[{"name":"","type":"bytes32","internalType":"bytes32"},{"name":"","type":"uint64","internalType":"uint64"}],"outputs":[{"name":"","type":"uint64","internalType":"uint64"}],"stateMutability":"view"},{"type":"function","name":"mintPoints","inputs":[{"name":"popId","type":"bytes32","internalType":"bytes32"},{"name":"amount","type":"uint64","internalType":"uint64"},{"name":"reason","type":"string","internalType":"string"}],"outputs":[],"stateMutability":"nonpayable"},{"type":"function","name":"setAuthorized","inputs":[{"name":"who","type":"address","internalType":"address"},{"name":"enabled","type":"bool","internalType":"bool"}],"outputs":[],"stateMutability":"nonpayable"},{"type":"function","name":"transferAdmin","inputs":[{"name":"newAdmin","type":"address","internalType":"address"}],"outputs":[],"stateMutability":"nonpayable"},{"type":"function","name":"unlockPoints","inputs":[{"name":"popId","type":"bytes32","internalType":"bytes32"},{"name":"amount","type":"uint64","internalType":"uint64"},{"name":"vouchId","type":"uint64","internalType":"uint64"}],"outputs":[],"stateMutability":"nonpayable"},{"type":"event","name":"AuthorizedSet","inputs":[{"name":"who","type":"address","indexed":true,"internalType":"address"},{"name":"enabled","type":"bool","indexed":false,"internalType":"bool"}],"anonymous":false},{"type":"event","name":"PointsBurned","inputs":[{"name":"popId","type":"bytes32","indexed":true,"internalType":"bytes32"},{"name":"amount","type":"uint64","indexed":false,"internalType":"uint64"},{"name":"reason","type":"string","indexed":false,"internalType":"string"}],"anonymous":false},{"type":"event","name":"PointsLocked","inputs":[{"name":"popId","type":"bytes32","indexed":true,"internalType":"bytes32"},{"name":"amount","type":"uint64","indexed":false,"internalType":"uint64"},{"name":"vouchId","type":"uint64","indexed":true,"internalType":"uint64"}],"anonymous":false},{"type":"event","name":"PointsMinted","inputs":[{"name":"popId","type":"bytes32","indexed":true,"internalType":"bytes32"},{"name":"amount","type":"uint64","indexed":false,"internalType":"uint64"},{"name":"reason","type":"string","indexed":false,"internalType":"string"}],"anonymous":false},{"type":"event","name":"PointsUnlocked","inputs":[{"name":"popId","type":"bytes32","indexed":true,"internalType":"bytes32"},{"name":"amount","type":"uint64","indexed":false,"internalType":"uint64"},{"name":"vouchId","type":"uint64","indexed":true,"internalType":"uint64"}],"anonymous":false}],"bytecode":{"object":"0x608060405234801561000f575f5ffd5b50604051612e43380380612e4383398181016040528101906100319190610142565b5f73ffffffffffffffffffffffffffffffffffffffff168173ffffffffffffffffffffffffffffffffffffffff160361009f576040517f08c379a0000000000000000000000000000000000000000000000000000000008152600401610096906101c7565b60405180910390fd5b805f5f6101000a81548173ffffffffffffffffffffffffffffffffffffffff021916908373ffffffffffffffffffffffffffffffffffffffff160217905550506101e5565b5f5ffd5b5f73ffffffffffffffffffffffffffffffffffffffff82169050919050565b5f610111826100e8565b9050919050565b61012181610107565b811461012b575f5ffd5b50565b5f8151905061013c81610118565b92915050565b5f60208284031215610157576101566100e4565b5b5f6101648482850161012e565b91505092915050565b5f82825260208201905092915050565b7f506f696e74734c65646765723a207a65726f2061646d696e00000000000000005f82015250565b5f6101b160188361016d565b91506101bc8261017d565b602082019050919050565b5f6020820190508181035f8301526101de816101a5565b9050919050565b612c51806101f25f395ff3fe608060405234801561000f575f5ffd5b50600436106100e8575f3560e01c806371ada8211161008a5780638e739461116100645780638e73946114610240578063b918161114610270578063f851a440146102a0578063ff78c9db146102be576100e8565b806371ada821146101c457806375829def146101f4578063870166a614610210576100e8565b806343905859116100c6578063439058591461014057806361eb103614610170578063711bf9b21461018c5780637162fd75146101a8576100e8565b8063029db3a6146100ec5780630ef7389414610108578063143c44dc14610124575b5f5ffd5b61010660048036038101906101019190611d67565b6102ee565b005b610122600480360381019061011d9190611dd8565b6106c2565b005b61013e60048036038101906101399190611dd8565b610b69565b005b61015a60048036038101906101559190611e28565b610e73565b6040516101679190611e6b565b60405180910390f35b61018a60048036038101906101859190611d67565b610e90565b005b6101a660048036038101906101a19190611f13565b61125b565b005b6101c260048036038101906101bd9190611dd8565b61138f565b005b6101de60048036038101906101d99190611f51565b61164e565b6040516101eb9190611f9e565b60405180910390f35b61020e60048036038101906102099190611fb7565b61167f565b005b61022a60048036038101906102259190611dd8565b6117bd565b6040516102379190611f9e565b60405180910390f35b61025a60048036038101906102559190611e28565b611935565b6040516102679190612085565b60405180910390f35b61028a60048036038101906102859190611fb7565b611a5c565b60405161029791906120ad565b60405180910390f35b6102a8611a79565b6040516102b591906120d5565b60405180910390f35b6102d860048036038101906102d39190612118565b611a9d565b6040516102e59190612226565b60405180910390f35b60015f3373ffffffffffffffffffffffffffffffffffffffff1673ffffffffffffffffffffffffffffffffffffffff1681526020019081526020015f205f9054906101000a900460ff16610377576040517f08c379a000000000000000000000000000000000000000000000000000000000815260040161036e906122a0565b60405180910390fd5b5f5f1b84036103bb576040517f08c379a00000000000000000000000000000000000000000000000000000000081526004016103b290612308565b60405180910390fd5b5f8367ffffffffffffffff1611610407576040517f08c379a00000000000000000000000000000000000000000000000000000000081526004016103fe90612370565b60405180910390fd5b5f60025f8681526020019081526020015f20905083815f015f8282829054906101000a900460070b61043991906123bb565b92506101000a81548167ffffffffffffffff021916908360070b67ffffffffffffffff16021790555083815f0160108282829054906101000a900467ffffffffffffffff16610488919061241a565b92506101000a81548167ffffffffffffffff021916908367ffffffffffffffff16021790555083816001015f8282829054906101000a900460070b6104cd91906123bb565b92506101000a81548167ffffffffffffffff021916908360070b67ffffffffffffffff160217905550438160010160086101000a81548167ffffffffffffffff021916908367ffffffffffffffff16021790555060035f8681526020019081526020015f2060405180608001604052808661054790612455565b60070b81526020014367ffffffffffffffff1681526020015f67ffffffffffffffff16815260200185858080601f0160208091040260200160405190810160405280939291908181526020018383808284375f81840152601f19601f82011690508083019250505050505050815250908060018154018082558091505060019003905f5260205f2090600202015f909190919091505f820151815f015f6101000a81548167ffffffffffffffff021916908360070b67ffffffffffffffff1602179055506020820151815f0160086101000a81548167ffffffffffffffff021916908367ffffffffffffffff1602179055506040820151815f0160106101000a81548167ffffffffffffffff021916908367ffffffffffffffff160217905550606082015181600101908161067c91906126c5565b505050847f2d8e2739fe22d2c6401dd77a063076bb1dabd239e5f275851663ad916215bd888585856040516106b3939291906127ce565b60405180910390a25050505050565b60015f3373ffffffffffffffffffffffffffffffffffffffff1673ffffffffffffffffffffffffffffffffffffffff1681526020019081526020015f205f9054906101000a900460ff1661074b576040517f08c379a0000000000000000000000000000000000000000000000000000000008152600401610742906122a0565b60405180910390fd5b5f60025f8581526020019081526020015f2090505f60045f8681526020019081526020015f205f8467ffffffffffffffff1667ffffffffffffffff1681526020019081526020015f205f9054906101000a900467ffffffffffffffff1690505f8167ffffffffffffffff168567ffffffffffffffff16116107cc57846107ce565b815b90505f8167ffffffffffffffff1611156108ab5780835f0160188282829054906101000a900467ffffffffffffffff1661080891906127fe565b92506101000a81548167ffffffffffffffff021916908367ffffffffffffffff1602179055508060045f8881526020019081526020015f205f8667ffffffffffffffff1667ffffffffffffffff1681526020019081526020015f205f8282829054906101000a900467ffffffffffffffff1661088491906127fe565b92506101000a81548167ffffffffffffffff021916908367ffffffffffffffff1602179055505b84835f015f8282829054906101000a900460070b6108c991906123bb565b92506101000a81548167ffffffffffffffff021916908360070b67ffffffffffffffff16021790555084835f0160108282829054906101000a900467ffffffffffffffff16610918919061241a565b92506101000a81548167ffffffffffffffff021916908367ffffffffffffffff1602179055508067ffffffffffffffff168567ffffffffffffffff1611156109ae57808561096691906127fe565b836001015f8282829054906101000a900460070b61098491906123bb565b92506101000a81548167ffffffffffffffff021916908360070b67ffffffffffffffff1602179055505b438360010160086101000a81548167ffffffffffffffff021916908367ffffffffffffffff16021790555060035f8781526020019081526020015f206040518060800160405280876109ff90612455565b60070b81526020014367ffffffffffffffff1681526020018667ffffffffffffffff1681526020016040518060400160405280600d81526020017f766f7563685f70656e616c747900000000000000000000000000000000000000815250815250908060018154018082558091505060019003905f5260205f2090600202015f909190919091505f820151815f015f6101000a81548167ffffffffffffffff021916908360070b67ffffffffffffffff1602179055506020820151815f0160086101000a81548167ffffffffffffffff021916908367ffffffffffffffff1602179055506040820151815f0160106101000a81548167ffffffffffffffff021916908367ffffffffffffffff1602179055506060820151816001019081610b2691906126c5565b505050857f2d8e2739fe22d2c6401dd77a063076bb1dabd239e5f275851663ad916215bd8886604051610b599190612883565b60405180910390a2505050505050565b60015f3373ffffffffffffffffffffffffffffffffffffffff1673ffffffffffffffffffffffffffffffffffffffff1681526020019081526020015f205f9054906101000a900460ff16610bf2576040517f08c379a0000000000000000000000000000000000000000000000000000000008152600401610be9906122a0565b60405180910390fd5b5f5f1b8303610c36576040517f08c379a0000000000000000000000000000000000000000000000000000000008152600401610c2d90612308565b60405180910390fd5b5f8167ffffffffffffffff1603610c82576040517f08c379a0000000000000000000000000000000000000000000000000000000008152600401610c79906128f9565b60405180910390fd5b5f60025f8581526020019081526020015f2090508260070b816001015f9054906101000a900460070b60070b1215610cef576040517f08c379a0000000000000000000000000000000000000000000000000000000008152600401610ce690612987565b60405180910390fd5b82815f0160188282829054906101000a900467ffffffffffffffff16610d15919061241a565b92506101000a81548167ffffffffffffffff021916908367ffffffffffffffff16021790555082816001015f8282829054906101000a900460070b610d5a91906123bb565b92506101000a81548167ffffffffffffffff021916908360070b67ffffffffffffffff160217905550438160010160086101000a81548167ffffffffffffffff021916908367ffffffffffffffff1602179055508260045f8681526020019081526020015f205f8467ffffffffffffffff1667ffffffffffffffff1681526020019081526020015f205f8282829054906101000a900467ffffffffffffffff16610e04919061241a565b92506101000a81548167ffffffffffffffff021916908367ffffffffffffffff1602179055508167ffffffffffffffff16847fc6d65bc35500e0d2f7329d39f91e79186885f4a4367b15dfdd20bdc9606f12cc85604051610e659190611f9e565b60405180910390a350505050565b5f60035f8381526020019081526020015f20805490509050919050565b60015f3373ffffffffffffffffffffffffffffffffffffffff1673ffffffffffffffffffffffffffffffffffffffff1681526020019081526020015f205f9054906101000a900460ff16610f19576040517f08c379a0000000000000000000000000000000000000000000000000000000008152600401610f10906122a0565b60405180910390fd5b5f5f1b8403610f5d576040517f08c379a0000000000000000000000000000000000000000000000000000000008152600401610f5490612308565b60405180910390fd5b5f8367ffffffffffffffff1611610fa9576040517f08c379a0000000000000000000000000000000000000000000000000000000008152600401610fa090612370565b60405180910390fd5b5f60025f8681526020019081526020015f20905083815f015f8282829054906101000a900460070b610fdb91906129a5565b92506101000a81548167ffffffffffffffff021916908360070b67ffffffffffffffff16021790555083815f0160088282829054906101000a900467ffffffffffffffff1661102a919061241a565b92506101000a81548167ffffffffffffffff021916908367ffffffffffffffff16021790555083816001015f8282829054906101000a900460070b61106f91906129a5565b92506101000a81548167ffffffffffffffff021916908360070b67ffffffffffffffff160217905550438160010160086101000a81548167ffffffffffffffff021916908367ffffffffffffffff16021790555060035f8681526020019081526020015f2060405180608001604052808660070b81526020014367ffffffffffffffff1681526020015f67ffffffffffffffff16815260200185858080601f0160208091040260200160405190810160405280939291908181526020018383808284375f81840152601f19601f82011690508083019250505050505050815250908060018154018082558091505060019003905f5260205f2090600202015f909190919091505f820151815f015f6101000a81548167ffffffffffffffff021916908360070b67ffffffffffffffff1602179055506020820151815f0160086101000a81548167ffffffffffffffff021916908367ffffffffffffffff1602179055506040820151815f0160106101000a81548167ffffffffffffffff021916908367ffffffffffffffff160217905550606082015181600101908161121591906126c5565b505050847fe52f266631fcae4aaa689c4362db7a354b04870a2ad69382def6058c8a16860d85858560405161124c939291906127ce565b60405180910390a25050505050565b5f5f9054906101000a900473ffffffffffffffffffffffffffffffffffffffff1673ffffffffffffffffffffffffffffffffffffffff163373ffffffffffffffffffffffffffffffffffffffff16146112e9576040517f08c379a00000000000000000000000000000000000000000000000000000000081526004016112e090612a4e565b60405180910390fd5b8060015f8473ffffffffffffffffffffffffffffffffffffffff1673ffffffffffffffffffffffffffffffffffffffff1681526020019081526020015f205f6101000a81548160ff0219169083151502179055508173ffffffffffffffffffffffffffffffffffffffff167f19fef6046150baa445c8f44d75e29317c0fa4c6341a6c8444b3ec4cc48d1e1ce8260405161138391906120ad565b60405180910390a25050565b60015f3373ffffffffffffffffffffffffffffffffffffffff1673ffffffffffffffffffffffffffffffffffffffff1681526020019081526020015f205f9054906101000a900460ff16611418576040517f08c379a000000000000000000000000000000000000000000000000000000000815260040161140f906122a0565b60405180910390fd5b8167ffffffffffffffff1660045f8581526020019081526020015f205f8367ffffffffffffffff1667ffffffffffffffff1681526020019081526020015f205f9054906101000a900467ffffffffffffffff1667ffffffffffffffff1610156114b6576040517f08c379a00000000000000000000000000000000000000000000000000000000081526004016114ad90612ab6565b60405180910390fd5b5f60025f8581526020019081526020015f20905082815f0160188282829054906101000a900467ffffffffffffffff166114f091906127fe565b92506101000a81548167ffffffffffffffff021916908367ffffffffffffffff16021790555082816001015f8282829054906101000a900460070b61153591906129a5565b92506101000a81548167ffffffffffffffff021916908360070b67ffffffffffffffff160217905550438160010160086101000a81548167ffffffffffffffff021916908367ffffffffffffffff1602179055508260045f8681526020019081526020015f205f8467ffffffffffffffff1667ffffffffffffffff1681526020019081526020015f205f8282829054906101000a900467ffffffffffffffff166115df91906127fe565b92506101000a81548167ffffffffffffffff021916908367ffffffffffffffff1602179055508167ffffffffffffffff16847f296fd63dd4353d064e702cd895eed43d76548e234b2107b3a81cedc779c72301856040516116409190611f9e565b60405180910390a350505050565b6004602052815f5260405f20602052805f5260405f205f915091509054906101000a900467ffffffffffffffff1681565b5f5f9054906101000a900473ffffffffffffffffffffffffffffffffffffffff1673ffffffffffffffffffffffffffffffffffffffff163373ffffffffffffffffffffffffffffffffffffffff161461170d576040517f08c379a000000000000000000000000000000000000000000000000000000000815260040161170490612a4e565b60405180910390fd5b5f73ffffffffffffffffffffffffffffffffffffffff168173ffffffffffffffffffffffffffffffffffffffff160361177b576040517f08c379a000000000000000000000000000000000000000000000000000000000815260040161177290612b1e565b60405180910390fd5b805f5f6101000a81548173ffffffffffffffffffffffffffffffffffffffff021916908373ffffffffffffffffffffffffffffffffffffffff16021790555050565b5f5f6040518060400160405280600b81526020017f766f75636865645f666f720000000000000000000000000000000000000000008152508051906020012090505f5f90505f60035f8881526020019081526020015f2090505f5f90505b8180549050811015611927575f82828154811061183b5761183a612b3c565b5b905f5260205f20906002020190508767ffffffffffffffff16815f0160089054906101000a900467ffffffffffffffff1667ffffffffffffffff1610806118ac57508667ffffffffffffffff16815f0160089054906101000a900467ffffffffffffffff1667ffffffffffffffff16115b156118b7575061191a565b5f815f015f9054906101000a900460070b60070b136118d6575061191a565b84816001016040516118e89190612c05565b6040518091039020036118fb575061191a565b805f015f9054906101000a900460070b84611916919061241a565b9350505b808060010191505061181b565b508193505050509392505050565b61193d611bf4565b60025f8381526020019081526020015f206040518060c00160405290815f82015f9054906101000a900460070b60070b60070b81526020015f820160089054906101000a900467ffffffffffffffff1667ffffffffffffffff1667ffffffffffffffff1681526020015f820160109054906101000a900467ffffffffffffffff1667ffffffffffffffff1667ffffffffffffffff1681526020015f820160189054906101000a900467ffffffffffffffff1667ffffffffffffffff1667ffffffffffffffff168152602001600182015f9054906101000a900460070b60070b60070b81526020016001820160089054906101000a900467ffffffffffffffff1667ffffffffffffffff1667ffffffffffffffff16815250509050919050565b6001602052805f5260405f205f915054906101000a900460ff1681565b5f5f9054906101000a900473ffffffffffffffffffffffffffffffffffffffff1681565b611aa5611c52565b60035f8481526020019081526020015f208281548110611ac857611ac7612b3c565b5b905f5260205f2090600202016040518060800160405290815f82015f9054906101000a900460070b60070b60070b81526020015f820160089054906101000a900467ffffffffffffffff1667ffffffffffffffff1667ffffffffffffffff1681526020015f820160109054906101000a900467ffffffffffffffff1667ffffffffffffffff1667ffffffffffffffff168152602001600182018054611b6c906124f5565b80601f0160208091040260200160405190810160405280929190818152602001828054611b98906124f5565b8015611be35780601f10611bba57610100808354040283529160200191611be3565b820191905f5260205f20905b815481529060010190602001808311611bc657829003601f168201915b505050505081525050905092915050565b6040518060c001604052805f60070b81526020015f67ffffffffffffffff1681526020015f67ffffffffffffffff1681526020015f67ffffffffffffffff1681526020015f60070b81526020015f67ffffffffffffffff1681525090565b60405180608001604052805f60070b81526020015f67ffffffffffffffff1681526020015f67ffffffffffffffff168152602001606081525090565b5f5ffd5b5f5ffd5b5f819050919050565b611ca881611c96565b8114611cb2575f5ffd5b50565b5f81359050611cc381611c9f565b92915050565b5f67ffffffffffffffff82169050919050565b611ce581611cc9565b8114611cef575f5ffd5b50565b5f81359050611d0081611cdc565b92915050565b5f5ffd5b5f5ffd5b5f5ffd5b5f5f83601f840112611d2757611d26611d06565b5b8235905067ffffffffffffffff811115611d4457611d43611d0a565b5b602083019150836001820283011115611d6057611d5f611d0e565b5b9250929050565b5f5f5f5f60608587031215611d7f57611d7e611c8e565b5b5f611d8c87828801611cb5565b9450506020611d9d87828801611cf2565b935050604085013567ffffffffffffffff811115611dbe57611dbd611c92565b5b611dca87828801611d12565b925092505092959194509250565b5f5f5f60608486031215611def57611dee611c8e565b5b5f611dfc86828701611cb5565b9350506020611e0d86828701611cf2565b9250506040611e1e86828701611cf2565b9150509250925092565b5f60208284031215611e3d57611e3c611c8e565b5b5f611e4a84828501611cb5565b91505092915050565b5f819050919050565b611e6581611e53565b82525050565b5f602082019050611e7e5f830184611e5c565b92915050565b5f73ffffffffffffffffffffffffffffffffffffffff82169050919050565b5f611ead82611e84565b9050919050565b611ebd81611ea3565b8114611ec7575f5ffd5b50565b5f81359050611ed881611eb4565b92915050565b5f8115159050919050565b611ef281611ede565b8114611efc575f5ffd5b50565b5f81359050611f0d81611ee9565b92915050565b5f5f60408385031215611f2957611f28611c8e565b5b5f611f3685828601611eca565b9250506020611f4785828601611eff565b9150509250929050565b5f5f60408385031215611f6757611f66611c8e565b5b5f611f7485828601611cb5565b9250506020611f8585828601611cf2565b9150509250929050565b611f9881611cc9565b82525050565b5f602082019050611fb15f830184611f8f565b92915050565b5f60208284031215611fcc57611fcb611c8e565b5b5f611fd984828501611eca565b91505092915050565b5f8160070b9050919050565b611ff781611fe2565b82525050565b61200681611cc9565b82525050565b60c082015f8201516120205f850182611fee565b5060208201516120336020850182611ffd565b5060408201516120466040850182611ffd565b5060608201516120596060850182611ffd565b50608082015161206c6080850182611fee565b5060a082015161207f60a0850182611ffd565b50505050565b5f60c0820190506120985f83018461200c565b92915050565b6120a781611ede565b82525050565b5f6020820190506120c05f83018461209e565b92915050565b6120cf81611ea3565b82525050565b5f6020820190506120e85f8301846120c6565b92915050565b6120f781611e53565b8114612101575f5ffd5b50565b5f81359050612112816120ee565b92915050565b5f5f6040838503121561212e5761212d611c8e565b5b5f61213b85828601611cb5565b925050602061214c85828601612104565b9150509250929050565b5f81519050919050565b5f82825260208201905092915050565b8281835e5f83830152505050565b5f601f19601f8301169050919050565b5f61219882612156565b6121a28185612160565b93506121b2818560208601612170565b6121bb8161217e565b840191505092915050565b5f608083015f8301516121db5f860182611fee565b5060208301516121ee6020860182611ffd565b5060408301516122016040860182611ffd565b5060608301518482036060860152612219828261218e565b9150508091505092915050565b5f6020820190508181035f83015261223e81846121c6565b905092915050565b5f82825260208201905092915050565b7f506f696e74734c65646765723a206e6f7420617574686f72697a6564000000005f82015250565b5f61228a601c83612246565b915061229582612256565b602082019050919050565b5f6020820190508181035f8301526122b78161227e565b9050919050565b7f506f696e74734c65646765723a207a65726f20706f70496400000000000000005f82015250565b5f6122f2601883612246565b91506122fd826122be565b602082019050919050565b5f6020820190508181035f83015261231f816122e6565b9050919050565b7f506f696e74734c65646765723a207a65726f20616d6f756e74000000000000005f82015250565b5f61235a601983612246565b915061236582612326565b602082019050919050565b5f6020820190508181035f8301526123878161234e565b9050919050565b7f4e487b71000000000000000000000000000000000000000000000000000000005f52601160045260245ffd5b5f6123c582611fe2565b91506123d083611fe2565b92508282039050677fffffffffffffff81137fffffffffffffffffffffffffffffffffffffffffffffffff8000000000000000821217156124145761241361238e565b5b92915050565b5f61242482611cc9565b915061242f83611cc9565b9250828201905067ffffffffffffffff81111561244f5761244e61238e565b5b92915050565b5f61245f82611fe2565b91507fffffffffffffffffffffffffffffffffffffffffffffffff800000000000000082036124915761249061238e565b5b815f039050919050565b7f4e487b71000000000000000000000000000000000000000000000000000000005f52604160045260245ffd5b7f4e487b71000000000000000000000000000000000000000000000000000000005f52602260045260245ffd5b5f600282049050600182168061250c57607f821691505b60208210810361251f5761251e6124c8565b5b50919050565b5f819050815f5260205f209050919050565b5f6020601f8301049050919050565b5f82821b905092915050565b5f600883026125817fffffffffffffffffffffffffffffffffffffffffffffffffffffffffffffffff82612546565b61258b8683612546565b95508019841693508086168417925050509392505050565b5f819050919050565b5f6125c66125c16125bc84611e53565b6125a3565b611e53565b9050919050565b5f819050919050565b6125df836125ac565b6125f36125eb826125cd565b848454612552565b825550505050565b5f5f905090565b61260a6125fb565b6126158184846125d6565b505050565b5b818110156126385761262d5f82612602565b60018101905061261b565b5050565b601f82111561267d5761264e81612525565b61265784612537565b81016020851015612666578190505b61267a61267285612537565b83018261261a565b50505b505050565b5f82821c905092915050565b5f61269d5f1984600802612682565b1980831691505092915050565b5f6126b5838361268e565b9150826002028217905092915050565b6126ce82612156565b67ffffffffffffffff8111156126e7576126e661249b565b5b6126f182546124f5565b6126fc82828561263c565b5f60209050601f83116001811461272d575f841561271b578287015190505b61272585826126aa565b86555061278c565b601f19841661273b86612525565b5f5b828110156127625784890151825560018201915060208501945060208101905061273d565b8683101561277f578489015161277b601f89168261268e565b8355505b6001600288020188555050505b505050505050565b828183375f83830152505050565b5f6127ad8385612246565b93506127ba838584612794565b6127c38361217e565b840190509392505050565b5f6040820190506127e15f830186611f8f565b81810360208301526127f48184866127a2565b9050949350505050565b5f61280882611cc9565b915061281383611cc9565b9250828203905067ffffffffffffffff8111156128335761283261238e565b5b92915050565b7f766f7563685f70656e616c7479000000000000000000000000000000000000005f82015250565b5f61286d600d83612246565b915061287882612839565b602082019050919050565b5f6040820190506128965f830184611f8f565b81810360208301526128a781612861565b905092915050565b7f506f696e74734c65646765723a207a65726f20766f75636849640000000000005f82015250565b5f6128e3601a83612246565b91506128ee826128af565b602082019050919050565b5f6020820190508181035f830152612910816128d7565b9050919050565b7f506f696e74734c65646765723a20696e73756666696369656e7420617661696c5f8201527f61626c6500000000000000000000000000000000000000000000000000000000602082015250565b5f612971602483612246565b915061297c82612917565b604082019050919050565b5f6020820190508181035f83015261299e81612965565b9050919050565b5f6129af82611fe2565b91506129ba83611fe2565b925082820190507fffffffffffffffffffffffffffffffffffffffffffffffff80000000000000008112677fffffffffffffff821317156129fe576129fd61238e565b5b92915050565b7f506f696e74734c65646765723a206e6f742061646d696e0000000000000000005f82015250565b5f612a38601783612246565b9150612a4382612a04565b602082019050919050565b5f6020820190508181035f830152612a6581612a2c565b9050919050565b7f506f696e74734c65646765723a206e6f7420656e6f756768206c6f636b6564005f82015250565b5f612aa0601f83612246565b9150612aab82612a6c565b602082019050919050565b5f6020820190508181035f830152612acd81612a94565b9050919050565b7f506f696e74734c65646765723a207a65726f2061646d696e00000000000000005f82015250565b5f612b08601883612246565b9150612b1382612ad4565b602082019050919050565b5f6020820190508181035f830152612b3581612afc565b9050919050565b7f4e487b71000000000000000000000000000000000000000000000000000000005f52603260045260245ffd5b5f81905092915050565b5f819050815f5260205f209050919050565b5f8154612b91816124f5565b612b9b8186612b69565b9450600182165f8114612bb55760018114612bca57612bfc565b60ff1983168652811515820286019350612bfc565b612bd385612b73565b5f5b83811015612bf457815481890152600182019150602081019050612bd5565b838801955050505b50505092915050565b5f612c108284612b85565b91508190509291505056fea26469706673582212207263e3dfabc916fbfd52a55344ae8387af84f2b9e23c048b4648d07c7cedf2e264736f6c634300081e0033","linkReferences":{}},"methodIdentifiers":{"admin()":"f851a440","authorized(address)":"b9181611","burnLockedPoints(bytes32,uint64,uint64)":"0ef73894","burnPoints(bytes32,uint64,string)":"029db3a6","getBalance(bytes32)":"8e739461","getPointsEarnedInWindow(bytes32,uint64,uint64)":"870166a6","historyAt(bytes32,uint256)":"ff78c9db","historyLength(bytes32)":"43905859","lockPoints(bytes32,uint64,uint64)":"143c44dc","lockedPoints(bytes32,uint64)":"71ada821","mintPoints(bytes32,uint64,string)":"61eb1036","setAuthorized(address,bool)":"711bf9b2","transferAdmin(address)":"75829def","unlockPoints(bytes32,uint64,uint64)":"7162fd75"},"id":1}