{
  "_format": "hh-sol-artifact-1",
  "contractName": "WalletRegistry",
  "sourceName": "contracts/WalletRegistry.sol",
  "abi": [
    {
      "inputs": [
        {
          "internalType": "address",
          "name": "_admin",
          "type": "address"
        }
      ],
      "stateMutability": "nonpayable",
      "type": "constructor"
    },
    {
      "anonymous": false,
      "inputs": [
        {
          "indexed": true,
          "internalType": "bytes32",
          "name": "popId",
          "type": "bytes32"
        },
        {
          "indexed": true,
          "internalType": "uint32",
          "name": "chainId",
          "type": "uint32"
        },
        {
          "indexed": false,
          "internalType": "bytes32",
          "name": "addressBytes",
          "type": "bytes32"
        }
      ],
      "name": "WalletRegistered",
      "type": "event"
    },
    {
      "anonymous": false,
      "inputs": [
        {
          "indexed": true,
          "internalType": "bytes32",
          "name": "popId",
          "type": "bytes32"
        },
        {
          "indexed": true,
          "internalType": "uint32",
          "name": "chainId",
          "type": "uint32"
        },
        {
          "indexed": false,
          "internalType": "bytes32",
          "name": "addressBytes",
          "type": "bytes32"
        }
      ],
      "name": "WalletRevoked",
      "type": "event"
    },
    {
      "inputs": [],
      "name": "admin",
      "outputs": [
        {
          "internalType": "address",
          "name": "",
          "type": "address"
        }
      ],
      "stateMutability": "view",
      "type": "function"
    },
    {
      "inputs": [
        {
          "internalType": "bytes32",
          "name": "popId",
          "type": "bytes32"
        }
      ],
      "name": "getLinks",
      "outputs": [
        {
          "components": [
            {
              "internalType": "uint32",
              "name": "chainId",
              "type": "uint32"
            },
            {
              "internalType": "bytes32",
              "name": "addressBytes",
              "type": "bytes32"
            },
            {
              "internalType": "uint64",
              "name": "registeredAt",
              "type": "uint64"
            },
            {
              "internalType": "bool",
              "name": "isActive",
              "type": "bool"
            },
            {
              "internalType": "bytes",
              "name": "signature",
              "type": "bytes"
            }
          ],
          "internalType": "struct WalletRegistry.WalletLink[]",
          "name": "",
          "type": "tuple[]"
        }
      ],
      "stateMutability": "view",
      "type": "function"
    },
    {
      "inputs": [
        {
          "internalType": "bytes32",
          "name": "popId",
          "type": "bytes32"
        },
        {
          "internalType": "uint32",
          "name": "chainId",
          "type": "uint32"
        },
        {
          "internalType": "bytes32",
          "name": "addressBytes",
          "type": "bytes32"
        }
      ],
      "name": "linkMessage",
      "outputs": [
        {
          "internalType": "bytes32",
          "name": "",
          "type": "bytes32"
        }
      ],
      "stateMutability": "pure",
      "type": "function"
    },
    {
      "inputs": [
        {
          "internalType": "uint32",
          "name": "chainId",
          "type": "uint32"
        },
        {
          "internalType": "bytes32",
          "name": "addressBytes",
          "type": "bytes32"
        }
      ],
      "name": "popIdForWallet",
      "outputs": [
        {
          "internalType": "bytes32",
          "name": "",
          "type": "bytes32"
        }
      ],
      "stateMutability": "view",
      "type": "function"
    },
    {
      "inputs": [
        {
          "internalType": "uint32",
          "name": "chainId",
          "type": "uint32"
        },
        {
          "internalType": "bytes32",
          "name": "addressBytes",
          "type": "bytes32"
        },
        {
          "internalType": "bytes",
          "name": "signature",
          "type": "bytes"
        }
      ],
      "name": "registerWallet",
      "outputs": [],
      "stateMutability": "nonpayable",
      "type": "function"
    },
    {
      "inputs": [
        {
          "internalType": "uint32",
          "name": "chainId",
          "type": "uint32"
        },
        {
          "internalType": "bytes32",
          "name": "addressBytes",
          "type": "bytes32"
        }
      ],
      "name": "revokeWallet",
      "outputs": [],
      "stateMutability": "nonpayable",
      "type": "function"
    },
    {
      "inputs": [
        {
          "internalType": "address",
          "name": "newAdmin",
          "type": "address"
        }
      ],
      "name": "transferAdmin",
      "outputs": [],
      "stateMutability": "nonpayable",
      "type": "function"
    },
    {
      "inputs": [
        {
          "internalType": "uint32",
          "name": "",
          "type": "uint32"
        },
        {
          "internalType": "bytes32",
          "name": "",
          "type": "bytes32"
        }
      ],
      "name": "walletToPopId",
      "outputs": [
        {
          "internalType": "bytes32",
          "name": "",
          "type": "bytes32"
        }
      ],
      "stateMutability": "view",
      "type": "function"
    }
  ],
  "bytecode": "0x608060405234801561001057600080fd5b50604051610c9c380380610c9c83398101604081905261002f916100ae565b6001600160a01b0381166100895760405162461bcd60e51b815260206004820152601a60248201527f57616c6c657452656769737472793a207a65726f2061646d696e000000000000604482015260640160405180910390fd5b600080546001600160a01b0319166001600160a01b03929092169190911790556100de565b6000602082840312156100c057600080fd5b81516001600160a01b03811681146100d757600080fd5b9392505050565b610baf806100ed6000396000f3fe608060405234801561001057600080fd5b50600436106100885760003560e01c80639673c3fc1161005b5780639673c3fc146101265780639e4dc97b14610197578063ce0609ad146101aa578063f851a440146101ca57600080fd5b8063046cd3171461008d5780632098966b146100d35780633980acb7146100e857806375829def14610113575b600080fd5b6100c061009b3660046107f2565b63ffffffff919091166000908152600260209081526040808320938352929052205490565b6040519081526020015b60405180910390f35b6100e66100e136600461081c565b6101f5565b005b6100c06100f63660046107f2565b600260209081526000928352604080842090915290825290205481565b6100e66101213660046108a3565b610428565b6100c06101343660046108d3565b6040516f506f6c6b61437265646974206c696e6b60801b6020820152603081018490526001600160e01b031960e084901b166050820152605481018290526000906074016040516020818303038152906040528051906020012090509392505050565b6100e66101a53660046107f2565b6104fa565b6101bd6101b8366004610908565b61068e565b6040516100ca9190610921565b6000546101dd906001600160a01b031681565b6040516001600160a01b0390911681526020016100ca565b33836102485760405162461bcd60e51b815260206004820152601960248201527f57616c6c657452656769737472793a207a65726f20616464720000000000000060448201526064015b60405180910390fd5b63ffffffff85166000908152600260209081526040808320878452909152902054156102b65760405162461bcd60e51b815260206004820152601e60248201527f57616c6c657452656769737472793a20616c7265616479206c696e6b65640000604482015260640161023f565b600160008281526020019081526020016000206040518060a001604052808763ffffffff1681526020018681526020014367ffffffffffffffff16815260200160011515815260200185858080601f01602080910402602001604051908101604052809392919081815260200183838082843760009201829052509390945250508354600180820186559482526020918290208451600490920201805463ffffffff191663ffffffff9092169190911781559083015193810193909355506040810151600283018054606084015167ffffffffffffffff90931668ffffffffffffffffff1990911617600160401b92151592909202919091179055608081015190919060038201906103c89082610aa3565b50505063ffffffff85166000818152600260209081526040808320888452825291829020849055905186815283917fc594f08dccd535449a00e98f3a45eb17008ffff4b5e88b2ae32c406cdaa8d717910160405180910390a35050505050565b6000546001600160a01b031633146104825760405162461bcd60e51b815260206004820152601960248201527f57616c6c657452656769737472793a206e6f742061646d696e00000000000000604482015260640161023f565b6001600160a01b0381166104d85760405162461bcd60e51b815260206004820152601a60248201527f57616c6c657452656769737472793a207a65726f2061646d696e000000000000604482015260640161023f565b600080546001600160a01b0319166001600160a01b0392909216919091179055565b63ffffffff821660009081526002602090815260408083208484529091529020543390811461056b5760405162461bcd60e51b815260206004820152601d60248201527f57616c6c657452656769737472793a206e6f7420796f7572206c696e6b000000604482015260640161023f565b6000818152600160205260408120905b8154811015610631578463ffffffff1682828154811061059d5761059d610b63565b600091825260209091206004909102015463ffffffff161480156105e35750838282815481106105cf576105cf610b63565b906000526020600020906004020160010154145b156106295760008282815481106105fc576105fc610b63565b906000526020600020906004020160020160086101000a81548160ff021916908315150217905550610631565b60010161057b565b5063ffffffff84166000818152600260209081526040808320878452825280832092909255905185815284917f3a484eab1ac6e0321f438f5375ce4f78bf0cdd7184be44cef8cc408c34771ce8910160405180910390a350505050565b606060016000838152602001908152602001600020805480602002602001604051908101604052809291908181526020016000905b828210156107ce5760008481526020908190206040805160a08101825260048602909201805463ffffffff168352600181015493830193909352600283015467ffffffffffffffff811691830191909152600160401b900460ff161515606082015260038201805491929160808401919061073d90610a18565b80601f016020809104026020016040519081016040528092919081815260200182805461076990610a18565b80156107b65780601f1061078b576101008083540402835291602001916107b6565b820191906000526020600020905b81548152906001019060200180831161079957829003601f168201915b505050505081525050815260200190600101906106c3565b505050509050919050565b803563ffffffff811681146107ed57600080fd5b919050565b6000806040838503121561080557600080fd5b61080e836107d9565b946020939093013593505050565b6000806000806060858703121561083257600080fd5b61083b856107d9565b935060208501359250604085013567ffffffffffffffff8082111561085f57600080fd5b818701915087601f83011261087357600080fd5b81358181111561088257600080fd5b88602082850101111561089457600080fd5b95989497505060200194505050565b6000602082840312156108b557600080fd5b81356001600160a01b03811681146108cc57600080fd5b9392505050565b6000806000606084860312156108e857600080fd5b833592506108f8602085016107d9565b9150604084013590509250925092565b60006020828403121561091a57600080fd5b5035919050565b600060208083018184528085518083526040925060408601915060408160051b8701018488016000805b848110156109f357898403603f190186528251805163ffffffff16855288810151898601528781015167ffffffffffffffff168886015260608082015115159086015260809081015160a091860182905280519186018290529083905b808210156109c6578282018b015187830160c00152908a01906109a8565b86810160c0908101869052988b0198601f909101601f19169096019095019450509187019160010161094b565b50919998505050505050505050565b634e487b7160e01b600052604160045260246000fd5b600181811c90821680610a2c57607f821691505b602082108103610a4c57634e487b7160e01b600052602260045260246000fd5b50919050565b601f821115610a9e576000816000526020600020601f850160051c81016020861015610a7b5750805b601f850160051c820191505b81811015610a9a57828155600101610a87565b5050505b505050565b815167ffffffffffffffff811115610abd57610abd610a02565b610ad181610acb8454610a18565b84610a52565b602080601f831160018114610b065760008415610aee5750858301515b600019600386901b1c1916600185901b178555610a9a565b600085815260208120601f198616915b82811015610b3557888601518255948401946001909101908401610b16565b5085821015610b535787850151600019600388901b60f8161c191681555b5050505050600190811b01905550565b634e487b7160e01b600052603260045260246000fdfea26469706673582212209a4209f574442d213cc993358620898a34d1ae612bf9e701fa89a6f182f72a1964736f6c63430008180033",
  "linkReferences": {},
  "deployedLinkReferences": {}
}