{"abi":[{"type":"constructor","inputs":[{"name":"_admin","type":"address","internalType":"address"},{"name":"_indexer","type":"address","internalType":"address"}],"stateMutability":"nonpayable"},{"type":"function","name":"MAX_SCORE","inputs":[],"outputs":[{"name":"","type":"uint64","internalType":"uint64"}],"stateMutability":"view"},{"type":"function","name":"admin","inputs":[],"outputs":[{"name":"","type":"address","internalType":"address"}],"stateMutability":"view"},{"type":"function","name":"getFullScore","inputs":[{"name":"popId","type":"bytes32","internalType":"bytes32"}],"outputs":[{"name":"","type":"tuple","internalType":"struct ScoreRegistry.ScoreRecord","components":[{"name":"score","type":"uint64","internalType":"uint64"},{"name":"pointsSnapshot","type":"int64","internalType":"int64"},{"name":"updatedAt","type":"uint64","internalType":"uint64"},{"name":"computationHash","type":"bytes32","internalType":"bytes32"}]}],"stateMutability":"view"},{"type":"function","name":"getScore","inputs":[{"name":"popId","type":"bytes32","internalType":"bytes32"}],"outputs":[{"name":"score","type":"uint64","internalType":"uint64"},{"name":"updatedAt","type":"uint64","internalType":"uint64"}],"stateMutability":"view"},{"type":"function","name":"indexer","inputs":[],"outputs":[{"name":"","type":"address","internalType":"address"}],"stateMutability":"view"},{"type":"function","name":"setIndexer","inputs":[{"name":"newIndexer","type":"address","internalType":"address"}],"outputs":[],"stateMutability":"nonpayable"},{"type":"function","name":"transferAdmin","inputs":[{"name":"newAdmin","type":"address","internalType":"address"}],"outputs":[],"stateMutability":"nonpayable"},{"type":"function","name":"updateScore","inputs":[{"name":"popId","type":"bytes32","internalType":"bytes32"},{"name":"score","type":"uint64","internalType":"uint64"},{"name":"pointsSnapshot","type":"int64","internalType":"int64"},{"name":"computationHash","type":"bytes32","internalType":"bytes32"}],"outputs":[],"stateMutability":"nonpayable"},{"type":"function","name":"updateScoreBatch","inputs":[{"name":"popIds","type":"bytes32[]","internalType":"bytes32[]"},{"name":"scores","type":"uint64[]","internalType":"uint64[]"},{"name":"pointsSnapshots","type":"int64[]","internalType":"int64[]"},{"name":"computationHashes","type":"bytes32[]","internalType":"bytes32[]"}],"outputs":[],"stateMutability":"nonpayable"},{"type":"event","name":"IndexerSet","inputs":[{"name":"indexer","type":"address","indexed":true,"internalType":"address"}],"anonymous":false},{"type":"event","name":"ScoreUpdated","inputs":[{"name":"popId","type":"bytes32","indexed":true,"internalType":"bytes32"},{"name":"score","type":"uint64","indexed":false,"internalType":"uint64"},{"name":"updatedAt","type":"uint64","indexed":false,"internalType":"uint64"}],"anonymous":false}],"bytecode":{"object":"0x608060405234801561000f575f5ffd5b50604051611739380380611739833981810160405281019061003191906101f1565b5f73ffffffffffffffffffffffffffffffffffffffff168273ffffffffffffffffffffffffffffffffffffffff160361009f576040517f08c379a000000000000000000000000000000000000000000000000000000000815260040161009690610289565b60405180910390fd5b5f73ffffffffffffffffffffffffffffffffffffffff168173ffffffffffffffffffffffffffffffffffffffff160361010d576040517f08c379a0000000000000000000000000000000000000000000000000000000008152600401610104906102f1565b60405180910390fd5b815f5f6101000a81548173ffffffffffffffffffffffffffffffffffffffff021916908373ffffffffffffffffffffffffffffffffffffffff1602179055508060015f6101000a81548173ffffffffffffffffffffffffffffffffffffffff021916908373ffffffffffffffffffffffffffffffffffffffff160217905550505061030f565b5f5ffd5b5f73ffffffffffffffffffffffffffffffffffffffff82169050919050565b5f6101c082610197565b9050919050565b6101d0816101b6565b81146101da575f5ffd5b50565b5f815190506101eb816101c7565b92915050565b5f5f6040838503121561020757610206610193565b5b5f610214858286016101dd565b9250506020610225858286016101dd565b9150509250929050565b5f82825260208201905092915050565b7f53636f726552656769737472793a207a65726f2061646d696e000000000000005f82015250565b5f61027360198361022f565b915061027e8261023f565b602082019050919050565b5f6020820190508181035f8301526102a081610267565b9050919050565b7f53636f726552656769737472793a207a65726f20696e646578657200000000005f82015250565b5f6102db601b8361022f565b91506102e6826102a7565b602082019050919050565b5f6020820190508181035f830152610308816102cf565b9050919050565b61141d8061031c5f395ff3fe608060405234801561000f575f5ffd5b5060043610610091575f3560e01c806375829def1161006457806375829def1461011b5780637ba5328514610137578063a9e2810014610168578063e06118b714610184578063f851a440146101a257610091565b8063235572611461009557806327ff6223146100c55780633b431e92146100e35780633d5d74e1146100ff575b5f5ffd5b6100af60048036038101906100aa9190610bf6565b6101c0565b6040516100bc9190610cc0565b60405180910390f35b6100cd610272565b6040516100da9190610ce8565b60405180910390f35b6100fd60048036038101906100f89190610d5b565b610278565b005b61011960048036038101906101149190610e91565b6103fa565b005b61013560048036038101906101309190610d5b565b61075d565b005b610151600480360381019061014c9190610bf6565b61089b565b60405161015f929190610f75565b60405180910390f35b610182600480360381019061017d9190610ff0565b6108ea565b005b61018c610b37565b6040516101999190611063565b60405180910390f35b6101aa610b5c565b6040516101b79190611063565b60405180910390f35b6101c8610b80565b60025f8381526020019081526020015f206040518060800160405290815f82015f9054906101000a900467ffffffffffffffff1667ffffffffffffffff1667ffffffffffffffff1681526020015f820160089054906101000a900460070b60070b60070b81526020015f820160109054906101000a900467ffffffffffffffff1667ffffffffffffffff1667ffffffffffffffff1681526020016001820154815250509050919050565b61035281565b5f5f9054906101000a900473ffffffffffffffffffffffffffffffffffffffff1673ffffffffffffffffffffffffffffffffffffffff163373ffffffffffffffffffffffffffffffffffffffff1614610306576040517f08c379a00000000000000000000000000000000000000000000000000000000081526004016102fd906110d6565b60405180910390fd5b5f73ffffffffffffffffffffffffffffffffffffffff168173ffffffffffffffffffffffffffffffffffffffff1603610374576040517f08c379a000000000000000000000000000000000000000000000000000000000815260040161036b9061113e565b60405180910390fd5b8060015f6101000a81548173ffffffffffffffffffffffffffffffffffffffff021916908373ffffffffffffffffffffffffffffffffffffffff1602179055508073ffffffffffffffffffffffffffffffffffffffff167f0b2f0a44fea9c661cc85098c5687ed1365281dfdd6d72754e22a6bcb26ce004260405160405180910390a250565b60015f9054906101000a900473ffffffffffffffffffffffffffffffffffffffff1673ffffffffffffffffffffffffffffffffffffffff163373ffffffffffffffffffffffffffffffffffffffff1614610489576040517f08c379a0000000000000000000000000000000000000000000000000000000008152600401610480906111a6565b60405180910390fd5b85859050888890501480156104a357508383905088889050145b80156104b457508181905088889050145b6104f3576040517f08c379a00000000000000000000000000000000000000000000000000000000081526004016104ea9061120e565b60405180910390fd5b5f5f90505b88889050811015610752575f8989838181106105175761051661122c565b5b9050602002013590505f8888848181106105345761053361122c565b5b90506020020160208101906105499190611259565b90505f5f1b820361058f576040517f08c379a0000000000000000000000000000000000000000000000000000000008152600401610586906112ce565b60405180910390fd5b61035267ffffffffffffffff168167ffffffffffffffff1611156105e8576040517f08c379a00000000000000000000000000000000000000000000000000000000081526004016105df90611336565b60405180910390fd5b60405180608001604052808267ffffffffffffffff1681526020018888868181106106165761061561122c565b5b905060200201602081019061062b9190611354565b60070b81526020014367ffffffffffffffff1681526020018686868181106106565761065561122c565b5b9050602002013581525060025f8481526020019081526020015f205f820151815f015f6101000a81548167ffffffffffffffff021916908367ffffffffffffffff1602179055506020820151815f0160086101000a81548167ffffffffffffffff021916908360070b67ffffffffffffffff1602179055506040820151815f0160106101000a81548167ffffffffffffffff021916908367ffffffffffffffff16021790555060608201518160010155905050817f890afb8380038c8fd3e3d79384c758f292ca115f16cdf2433374116fa3c0ecfb824360405161073b929190610f75565b60405180910390a2505080806001019150506104f8565b505050505050505050565b5f5f9054906101000a900473ffffffffffffffffffffffffffffffffffffffff1673ffffffffffffffffffffffffffffffffffffffff163373ffffffffffffffffffffffffffffffffffffffff16146107eb576040517f08c379a00000000000000000000000000000000000000000000000000000000081526004016107e2906110d6565b60405180910390fd5b5f73ffffffffffffffffffffffffffffffffffffffff168173ffffffffffffffffffffffffffffffffffffffff1603610859576040517f08c379a0000000000000000000000000000000000000000000000000000000008152600401610850906113c9565b60405180910390fd5b805f5f6101000a81548173ffffffffffffffffffffffffffffffffffffffff021916908373ffffffffffffffffffffffffffffffffffffffff16021790555050565b5f5f5f60025f8581526020019081526020015f209050805f015f9054906101000a900467ffffffffffffffff16815f0160109054906101000a900467ffffffffffffffff169250925050915091565b60015f9054906101000a900473ffffffffffffffffffffffffffffffffffffffff1673ffffffffffffffffffffffffffffffffffffffff163373ffffffffffffffffffffffffffffffffffffffff1614610979576040517f08c379a0000000000000000000000000000000000000000000000000000000008152600401610970906111a6565b60405180910390fd5b5f5f1b84036109bd576040517f08c379a00000000000000000000000000000000000000000000000000000000081526004016109b4906112ce565b60405180910390fd5b61035267ffffffffffffffff168367ffffffffffffffff161115610a16576040517f08c379a0000000000000000000000000000000000000000000000000000000008152600401610a0d90611336565b60405180910390fd5b60405180608001604052808467ffffffffffffffff1681526020018360070b81526020014367ffffffffffffffff1681526020018281525060025f8681526020019081526020015f205f820151815f015f6101000a81548167ffffffffffffffff021916908367ffffffffffffffff1602179055506020820151815f0160086101000a81548167ffffffffffffffff021916908360070b67ffffffffffffffff1602179055506040820151815f0160106101000a81548167ffffffffffffffff021916908367ffffffffffffffff16021790555060608201518160010155905050837f890afb8380038c8fd3e3d79384c758f292ca115f16cdf2433374116fa3c0ecfb8443604051610b29929190610f75565b60405180910390a250505050565b60015f9054906101000a900473ffffffffffffffffffffffffffffffffffffffff1681565b5f5f9054906101000a900473ffffffffffffffffffffffffffffffffffffffff1681565b60405180608001604052805f67ffffffffffffffff1681526020015f60070b81526020015f67ffffffffffffffff1681526020015f81525090565b5f5ffd5b5f5ffd5b5f819050919050565b610bd581610bc3565b8114610bdf575f5ffd5b50565b5f81359050610bf081610bcc565b92915050565b5f60208284031215610c0b57610c0a610bbb565b5b5f610c1884828501610be2565b91505092915050565b5f67ffffffffffffffff82169050919050565b610c3d81610c21565b82525050565b5f8160070b9050919050565b610c5881610c43565b82525050565b610c6781610bc3565b82525050565b608082015f820151610c815f850182610c34565b506020820151610c946020850182610c4f565b506040820151610ca76040850182610c34565b506060820151610cba6060850182610c5e565b50505050565b5f608082019050610cd35f830184610c6d565b92915050565b610ce281610c21565b82525050565b5f602082019050610cfb5f830184610cd9565b92915050565b5f73ffffffffffffffffffffffffffffffffffffffff82169050919050565b5f610d2a82610d01565b9050919050565b610d3a81610d20565b8114610d44575f5ffd5b50565b5f81359050610d5581610d31565b92915050565b5f60208284031215610d7057610d6f610bbb565b5b5f610d7d84828501610d47565b91505092915050565b5f5ffd5b5f5ffd5b5f5ffd5b5f5f83601f840112610da757610da6610d86565b5b8235905067ffffffffffffffff811115610dc457610dc3610d8a565b5b602083019150836020820283011115610de057610ddf610d8e565b5b9250929050565b5f5f83601f840112610dfc57610dfb610d86565b5b8235905067ffffffffffffffff811115610e1957610e18610d8a565b5b602083019150836020820283011115610e3557610e34610d8e565b5b9250929050565b5f5f83601f840112610e5157610e50610d86565b5b8235905067ffffffffffffffff811115610e6e57610e6d610d8a565b5b602083019150836020820283011115610e8a57610e89610d8e565b5b9250929050565b5f5f5f5f5f5f5f5f6080898b031215610ead57610eac610bbb565b5b5f89013567ffffffffffffffff811115610eca57610ec9610bbf565b5b610ed68b828c01610d92565b9850985050602089013567ffffffffffffffff811115610ef957610ef8610bbf565b5b610f058b828c01610de7565b9650965050604089013567ffffffffffffffff811115610f2857610f27610bbf565b5b610f348b828c01610e3c565b9450945050606089013567ffffffffffffffff811115610f5757610f56610bbf565b5b610f638b828c01610d92565b92509250509295985092959890939650565b5f604082019050610f885f830185610cd9565b610f956020830184610cd9565b9392505050565b610fa581610c21565b8114610faf575f5ffd5b50565b5f81359050610fc081610f9c565b92915050565b610fcf81610c43565b8114610fd9575f5ffd5b50565b5f81359050610fea81610fc6565b92915050565b5f5f5f5f6080858703121561100857611007610bbb565b5b5f61101587828801610be2565b945050602061102687828801610fb2565b935050604061103787828801610fdc565b925050606061104887828801610be2565b91505092959194509250565b61105d81610d20565b82525050565b5f6020820190506110765f830184611054565b92915050565b5f82825260208201905092915050565b7f53636f726552656769737472793a206e6f742061646d696e00000000000000005f82015250565b5f6110c060188361107c565b91506110cb8261108c565b602082019050919050565b5f6020820190508181035f8301526110ed816110b4565b9050919050565b7f53636f726552656769737472793a207a65726f20696e646578657200000000005f82015250565b5f611128601b8361107c565b9150611133826110f4565b602082019050919050565b5f6020820190508181035f8301526111558161111c565b9050919050565b7f53636f726552656769737472793a206e6f7420696e64657865720000000000005f82015250565b5f611190601a8361107c565b915061119b8261115c565b602082019050919050565b5f6020820190508181035f8301526111bd81611184565b9050919050565b7f53636f726552656769737472793a206c656e677468206d69736d6174636800005f82015250565b5f6111f8601e8361107c565b9150611203826111c4565b602082019050919050565b5f6020820190508181035f830152611225816111ec565b9050919050565b7f4e487b71000000000000000000000000000000000000000000000000000000005f52603260045260245ffd5b5f6020828403121561126e5761126d610bbb565b5b5f61127b84828501610fb2565b91505092915050565b7f53636f726552656769737472793a207a65726f20706f704964000000000000005f82015250565b5f6112b860198361107c565b91506112c382611284565b602082019050919050565b5f6020820190508181035f8301526112e5816112ac565b9050919050565b7f53636f726552656769737472793a2073636f7265203e206d61780000000000005f82015250565b5f611320601a8361107c565b915061132b826112ec565b602082019050919050565b5f6020820190508181035f83015261134d81611314565b9050919050565b5f6020828403121561136957611368610bbb565b5b5f61137684828501610fdc565b91505092915050565b7f53636f726552656769737472793a207a65726f2061646d696e000000000000005f82015250565b5f6113b360198361107c565b91506113be8261137f565b602082019050919050565b5f6020820190508181035f8301526113e0816113a7565b905091905056fea2646970667358221220c9aa66765a8a46b61a86f0705f69c51209fc06bbbf8f1e13e408e3759721b65a64736f6c634300081e0033","linkReferences":{}},"methodIdentifiers":{"MAX_SCORE()":"27ff6223","admin()":"f851a440","getFullScore(bytes32)":"23557261","getScore(bytes32)":"7ba53285","indexer()":"e06118b7","setIndexer(address)":"3b431e92","transferAdmin(address)":"75829def","updateScore(bytes32,uint64,int64,bytes32)":"a9e28100","updateScoreBatch(bytes32[],uint64[],int64[],bytes32[])":"3d5d74e1"},"id":2}