{"abi":[{"type":"constructor","inputs":[{"name":"_admin","type":"address","internalType":"address"}],"stateMutability":"nonpayable"},{"type":"function","name":"admin","inputs":[],"outputs":[{"name":"","type":"address","internalType":"address"}],"stateMutability":"view"},{"type":"function","name":"getLinks","inputs":[{"name":"popId","type":"bytes32","internalType":"bytes32"}],"outputs":[{"name":"","type":"tuple[]","internalType":"struct WalletRegistry.WalletLink[]","components":[{"name":"chainId","type":"uint32","internalType":"uint32"},{"name":"addressBytes","type":"bytes32","internalType":"bytes32"},{"name":"registeredAt","type":"uint64","internalType":"uint64"},{"name":"isActive","type":"bool","internalType":"bool"},{"name":"signature","type":"bytes","internalType":"bytes"}]}],"stateMutability":"view"},{"type":"function","name":"linkMessage","inputs":[{"name":"popId","type":"bytes32","internalType":"bytes32"},{"name":"chainId","type":"uint32","internalType":"uint32"},{"name":"addressBytes","type":"bytes32","internalType":"bytes32"}],"outputs":[{"name":"","type":"bytes32","internalType":"bytes32"}],"stateMutability":"pure"},{"type":"function","name":"popIdForWallet","inputs":[{"name":"chainId","type":"uint32","internalType":"uint32"},{"name":"addressBytes","type":"bytes32","internalType":"bytes32"}],"outputs":[{"name":"","type":"bytes32","internalType":"bytes32"}],"stateMutability":"view"},{"type":"function","name":"registerWallet","inputs":[{"name":"chainId","type":"uint32","internalType":"uint32"},{"name":"addressBytes","type":"bytes32","internalType":"bytes32"},{"name":"signature","type":"bytes","internalType":"bytes"}],"outputs":[],"stateMutability":"nonpayable"},{"type":"function","name":"revokeWallet","inputs":[{"name":"chainId","type":"uint32","internalType":"uint32"},{"name":"addressBytes","type":"bytes32","internalType":"bytes32"}],"outputs":[],"stateMutability":"nonpayable"},{"type":"function","name":"transferAdmin","inputs":[{"name":"newAdmin","type":"address","internalType":"address"}],"outputs":[],"stateMutability":"nonpayable"},{"type":"function","name":"walletToPopId","inputs":[{"name":"","type":"uint32","internalType":"uint32"},{"name":"","type":"bytes32","internalType":"bytes32"}],"outputs":[{"name":"","type":"bytes32","internalType":"bytes32"}],"stateMutability":"view"},{"type":"event","name":"WalletRegistered","inputs":[{"name":"popId","type":"bytes32","indexed":true,"internalType":"bytes32"},{"name":"chainId","type":"uint32","indexed":true,"internalType":"uint32"},{"name":"addressBytes","type":"bytes32","indexed":false,"internalType":"bytes32"}],"anonymous":false},{"type":"event","name":"WalletRevoked","inputs":[{"name":"popId","type":"bytes32","indexed":true,"internalType":"bytes32"},{"name":"chainId","type":"uint32","indexed":true,"internalType":"uint32"},{"name":"addressBytes","type":"bytes32","indexed":false,"internalType":"bytes32"}],"anonymous":false}],"bytecode":{"object":"0x608060405234801561000f575f5ffd5b5060405161170738038061170783398181016040528101906100319190610142565b5f73ffffffffffffffffffffffffffffffffffffffff168173ffffffffffffffffffffffffffffffffffffffff160361009f576040517f08c379a0000000000000000000000000000000000000000000000000000000008152600401610096906101c7565b60405180910390fd5b805f5f6101000a81548173ffffffffffffffffffffffffffffffffffffffff021916908373ffffffffffffffffffffffffffffffffffffffff160217905550506101e5565b5f5ffd5b5f73ffffffffffffffffffffffffffffffffffffffff82169050919050565b5f610111826100e8565b9050919050565b61012181610107565b811461012b575f5ffd5b50565b5f8151905061013c81610118565b92915050565b5f60208284031215610157576101566100e4565b5b5f6101648482850161012e565b91505092915050565b5f82825260208201905092915050565b7f57616c6c657452656769737472793a207a65726f2061646d696e0000000000005f82015250565b5f6101b1601a8361016d565b91506101bc8261017d565b602082019050919050565b5f6020820190508181035f8301526101de816101a5565b9050919050565b611515806101f25f395ff3fe608060405234801561000f575f5ffd5b5060043610610086575f3560e01c80639673c3fc116100595780639673c3fc146101225780639e4dc97b14610152578063ce0609ad1461016e578063f851a4401461019e57610086565b8063046cd3171461008a5780632098966b146100ba5780633980acb7146100d657806375829def14610106575b5f5ffd5b6100a4600480360381019061009f9190610a31565b6101bc565b6040516100b19190610a7e565b60405180910390f35b6100d460048036038101906100cf9190610af8565b6101f2565b005b6100f060048036038101906100eb9190610a31565b610487565b6040516100fd9190610a7e565b60405180910390f35b610120600480360381019061011b9190610bc3565b6104a7565b005b61013c60048036038101906101379190610bee565b6105e5565b6040516101499190610a7e565b60405180910390f35b61016c60048036038101906101679190610a31565b61061a565b005b61018860048036038101906101839190610c3e565b610801565b6040516101959190610e61565b60405180910390f35b6101a6610978565b6040516101b39190610e90565b60405180910390f35b5f60025f8463ffffffff1663ffffffff1681526020019081526020015f205f8381526020019081526020015f2054905092915050565b5f6102123373ffffffffffffffffffffffffffffffffffffffff1661099c565b90505f5f1b8403610258576040517f08c379a000000000000000000000000000000000000000000000000000000000815260040161024f90610f03565b60405180910390fd5b5f5f1b60025f8763ffffffff1663ffffffff1681526020019081526020015f205f8681526020019081526020015f2054146102c8576040517f08c379a00000000000000000000000000000000000000000000000000000000081526004016102bf90610f6b565b60405180910390fd5b60015f8281526020019081526020015f206040518060a001604052808763ffffffff1681526020018681526020014367ffffffffffffffff16815260200160011515815260200185858080601f0160208091040260200160405190810160405280939291908181526020018383808284375f81840152601f19601f82011690508083019250505050505050815250908060018154018082558091505060019003905f5260205f2090600402015f909190919091505f820151815f015f6101000a81548163ffffffff021916908363ffffffff160217905550602082015181600101556040820151816002015f6101000a81548167ffffffffffffffff021916908367ffffffffffffffff16021790555060608201518160020160086101000a81548160ff021916908315150217905550608082015181600301908161040d91906111bc565b5050508060025f8763ffffffff1663ffffffff1681526020019081526020015f205f8681526020019081526020015f20819055508463ffffffff16817fc594f08dccd535449a00e98f3a45eb17008ffff4b5e88b2ae32c406cdaa8d717866040516104789190610a7e565b60405180910390a35050505050565b6002602052815f5260405f20602052805f5260405f205f91509150505481565b5f5f9054906101000a900473ffffffffffffffffffffffffffffffffffffffff1673ffffffffffffffffffffffffffffffffffffffff163373ffffffffffffffffffffffffffffffffffffffff1614610535576040517f08c379a000000000000000000000000000000000000000000000000000000000815260040161052c906112d5565b60405180910390fd5b5f73ffffffffffffffffffffffffffffffffffffffff168173ffffffffffffffffffffffffffffffffffffffff16036105a3576040517f08c379a000000000000000000000000000000000000000000000000000000000815260040161059a9061133d565b60405180910390fd5b805f5f6101000a81548173ffffffffffffffffffffffffffffffffffffffff021916908373ffffffffffffffffffffffffffffffffffffffff16021790555050565b5f8383836040516020016105fb93929190611403565b6040516020818303038152906040528051906020012090509392505050565b5f61063a3373ffffffffffffffffffffffffffffffffffffffff1661099c565b90508060025f8563ffffffff1663ffffffff1681526020019081526020015f205f8481526020019081526020015f2054146106aa576040517f08c379a00000000000000000000000000000000000000000000000000000000081526004016106a190611494565b60405180910390fd5b5f60015f8381526020019081526020015f2090505f5f90505b818054905081101561078c578463ffffffff168282815481106106e9576106e86114b2565b5b905f5260205f2090600402015f015f9054906101000a900463ffffffff1663ffffffff1614801561073b575083828281548110610729576107286114b2565b5b905f5260205f20906004020160010154145b1561077f575f828281548110610754576107536114b2565b5b905f5260205f20906004020160020160086101000a81548160ff02191690831515021790555061078c565b80806001019150506106c3565b5060025f8563ffffffff1663ffffffff1681526020019081526020015f205f8481526020019081526020015f205f90558363ffffffff16827f3a484eab1ac6e0321f438f5375ce4f78bf0cdd7184be44cef8cc408c34771ce8856040516107f39190610a7e565b60405180910390a350505050565b606060015f8381526020019081526020015f20805480602002602001604051908101604052809291908181526020015f905b8282101561096d578382905f5260205f2090600402016040518060a00160405290815f82015f9054906101000a900463ffffffff1663ffffffff1663ffffffff16815260200160018201548152602001600282015f9054906101000a900467ffffffffffffffff1667ffffffffffffffff1667ffffffffffffffff1681526020016002820160089054906101000a900460ff161515151581526020016003820180546108de90610fe3565b80601f016020809104026020016040519081016040528092919081815260200182805461090a90610fe3565b80156109555780601f1061092c57610100808354040283529160200191610955565b820191905f5260205f20905b81548152906001019060200180831161093857829003601f168201915b50505050508152505081526020019060010190610833565b505050509050919050565b5f5f9054906101000a900473ffffffffffffffffffffffffffffffffffffffff1681565b5f8173ffffffffffffffffffffffffffffffffffffffff165f1b9050919050565b5f5ffd5b5f5ffd5b5f63ffffffff82169050919050565b6109dd816109c5565b81146109e7575f5ffd5b50565b5f813590506109f8816109d4565b92915050565b5f819050919050565b610a10816109fe565b8114610a1a575f5ffd5b50565b5f81359050610a2b81610a07565b92915050565b5f5f60408385031215610a4757610a466109bd565b5b5f610a54858286016109ea565b9250506020610a6585828601610a1d565b9150509250929050565b610a78816109fe565b82525050565b5f602082019050610a915f830184610a6f565b92915050565b5f5ffd5b5f5ffd5b5f5ffd5b5f5f83601f840112610ab857610ab7610a97565b5b8235905067ffffffffffffffff811115610ad557610ad4610a9b565b5b602083019150836001820283011115610af157610af0610a9f565b5b9250929050565b5f5f5f5f60608587031215610b1057610b0f6109bd565b5b5f610b1d878288016109ea565b9450506020610b2e87828801610a1d565b935050604085013567ffffffffffffffff811115610b4f57610b4e6109c1565b5b610b5b87828801610aa3565b925092505092959194509250565b5f73ffffffffffffffffffffffffffffffffffffffff82169050919050565b5f610b9282610b69565b9050919050565b610ba281610b88565b8114610bac575f5ffd5b50565b5f81359050610bbd81610b99565b92915050565b5f60208284031215610bd857610bd76109bd565b5b5f610be584828501610baf565b91505092915050565b5f5f5f60608486031215610c0557610c046109bd565b5b5f610c1286828701610a1d565b9350506020610c23868287016109ea565b9250506040610c3486828701610a1d565b9150509250925092565b5f60208284031215610c5357610c526109bd565b5b5f610c6084828501610a1d565b91505092915050565b5f81519050919050565b5f82825260208201905092915050565b5f819050602082019050919050565b610c9b816109c5565b82525050565b610caa816109fe565b82525050565b5f67ffffffffffffffff82169050919050565b610ccc81610cb0565b82525050565b5f8115159050919050565b610ce681610cd2565b82525050565b5f81519050919050565b5f82825260208201905092915050565b8281835e5f83830152505050565b5f601f19601f8301169050919050565b5f610d2e82610cec565b610d388185610cf6565b9350610d48818560208601610d06565b610d5181610d14565b840191505092915050565b5f60a083015f830151610d715f860182610c92565b506020830151610d846020860182610ca1565b506040830151610d976040860182610cc3565b506060830151610daa6060860182610cdd565b5060808301518482036080860152610dc28282610d24565b9150508091505092915050565b5f610dda8383610d5c565b905092915050565b5f602082019050919050565b5f610df882610c69565b610e028185610c73565b935083602082028501610e1485610c83565b805f5b85811015610e4f5784840389528151610e308582610dcf565b9450610e3b83610de2565b925060208a01995050600181019050610e17565b50829750879550505050505092915050565b5f6020820190508181035f830152610e798184610dee565b905092915050565b610e8a81610b88565b82525050565b5f602082019050610ea35f830184610e81565b92915050565b5f82825260208201905092915050565b7f57616c6c657452656769737472793a207a65726f2061646472000000000000005f82015250565b5f610eed601983610ea9565b9150610ef882610eb9565b602082019050919050565b5f6020820190508181035f830152610f1a81610ee1565b9050919050565b7f57616c6c657452656769737472793a20616c7265616479206c696e6b656400005f82015250565b5f610f55601e83610ea9565b9150610f6082610f21565b602082019050919050565b5f6020820190508181035f830152610f8281610f49565b9050919050565b7f4e487b71000000000000000000000000000000000000000000000000000000005f52604160045260245ffd5b7f4e487b71000000000000000000000000000000000000000000000000000000005f52602260045260245ffd5b5f6002820490506001821680610ffa57607f821691505b60208210810361100d5761100c610fb6565b5b50919050565b5f819050815f5260205f209050919050565b5f6020601f8301049050919050565b5f82821b905092915050565b5f6008830261106f7fffffffffffffffffffffffffffffffffffffffffffffffffffffffffffffffff82611034565b6110798683611034565b95508019841693508086168417925050509392505050565b5f819050919050565b5f819050919050565b5f6110bd6110b86110b384611091565b61109a565b611091565b9050919050565b5f819050919050565b6110d6836110a3565b6110ea6110e2826110c4565b848454611040565b825550505050565b5f5f905090565b6111016110f2565b61110c8184846110cd565b505050565b5b8181101561112f576111245f826110f9565b600181019050611112565b5050565b601f8211156111745761114581611013565b61114e84611025565b8101602085101561115d578190505b61117161116985611025565b830182611111565b50505b505050565b5f82821c905092915050565b5f6111945f1984600802611179565b1980831691505092915050565b5f6111ac8383611185565b9150826002028217905092915050565b6111c582610cec565b67ffffffffffffffff8111156111de576111dd610f89565b5b6111e88254610fe3565b6111f3828285611133565b5f60209050601f831160018114611224575f8415611212578287015190505b61121c85826111a1565b865550611283565b601f19841661123286611013565b5f5b8281101561125957848901518255600182019150602085019450602081019050611234565b868310156112765784890151611272601f891682611185565b8355505b6001600288020188555050505b505050505050565b7f57616c6c657452656769737472793a206e6f742061646d696e000000000000005f82015250565b5f6112bf601983610ea9565b91506112ca8261128b565b602082019050919050565b5f6020820190508181035f8301526112ec816112b3565b9050919050565b7f57616c6c657452656769737472793a207a65726f2061646d696e0000000000005f82015250565b5f611327601a83610ea9565b9150611332826112f3565b602082019050919050565b5f6020820190508181035f8301526113548161131b565b9050919050565b5f81905092915050565b7f506f6c6b61437265646974206c696e6b000000000000000000000000000000005f82015250565b5f61139960108361135b565b91506113a482611365565b601082019050919050565b5f819050919050565b6113c96113c4826109fe565b6113af565b82525050565b5f8160e01b9050919050565b5f6113e5826113cf565b9050919050565b6113fd6113f8826109c5565b6113db565b82525050565b5f61140d8261138d565b915061141982866113b8565b60208201915061142982856113ec565b60048201915061143982846113b8565b602082019150819050949350505050565b7f57616c6c657452656769737472793a206e6f7420796f7572206c696e6b0000005f82015250565b5f61147e601d83610ea9565b91506114898261144a565b602082019050919050565b5f6020820190508181035f8301526114ab81611472565b9050919050565b7f4e487b71000000000000000000000000000000000000000000000000000000005f52603260045260245ffdfea264697066735822122030c0f151aed66a054aea5981817bb887d3de91e07b7048caed403e515c061fa664736f6c634300081e0033","linkReferences":{}},"methodIdentifiers":{"admin()":"f851a440","getLinks(bytes32)":"ce0609ad","linkMessage(bytes32,uint32,bytes32)":"9673c3fc","popIdForWallet(uint32,bytes32)":"046cd317","registerWallet(uint32,bytes32,bytes)":"2098966b","revokeWallet(uint32,bytes32)":"9e4dc97b","transferAdmin(address)":"75829def","walletToPopId(uint32,bytes32)":"3980acb7"},"id":5}