{
  "_format": "hh-sol-artifact-1",
  "contractName": "PointsLedger",
  "sourceName": "contracts/PointsLedger.sol",
  "abi": [
    {
      "inputs": [
        {
          "internalType": "address",
          "name": "_admin",
          "type": "address"
        }
      ],
      "stateMutability": "nonpayable",
      "type": "constructor"
    },
    {
      "anonymous": false,
      "inputs": [
        {
          "indexed": true,
          "internalType": "address",
          "name": "who",
          "type": "address"
        },
        {
          "indexed": false,
          "internalType": "bool",
          "name": "enabled",
          "type": "bool"
        }
      ],
      "name": "AuthorizedSet",
      "type": "event"
    },
    {
      "anonymous": false,
      "inputs": [
        {
          "indexed": true,
          "internalType": "bytes32",
          "name": "popId",
          "type": "bytes32"
        },
        {
          "indexed": false,
          "internalType": "uint64",
          "name": "amount",
          "type": "uint64"
        },
        {
          "indexed": false,
          "internalType": "string",
          "name": "reason",
          "type": "string"
        }
      ],
      "name": "PointsBurned",
      "type": "event"
    },
    {
      "anonymous": false,
      "inputs": [
        {
          "indexed": true,
          "internalType": "bytes32",
          "name": "popId",
          "type": "bytes32"
        },
        {
          "indexed": false,
          "internalType": "uint64",
          "name": "amount",
          "type": "uint64"
        },
        {
          "indexed": true,
          "internalType": "uint64",
          "name": "vouchId",
          "type": "uint64"
        }
      ],
      "name": "PointsLocked",
      "type": "event"
    },
    {
      "anonymous": false,
      "inputs": [
        {
          "indexed": true,
          "internalType": "bytes32",
          "name": "popId",
          "type": "bytes32"
        },
        {
          "indexed": false,
          "internalType": "uint64",
          "name": "amount",
          "type": "uint64"
        },
        {
          "indexed": false,
          "internalType": "string",
          "name": "reason",
          "type": "string"
        }
      ],
      "name": "PointsMinted",
      "type": "event"
    },
    {
      "anonymous": false,
      "inputs": [
        {
          "indexed": true,
          "internalType": "bytes32",
          "name": "popId",
          "type": "bytes32"
        },
        {
          "indexed": false,
          "internalType": "uint64",
          "name": "amount",
          "type": "uint64"
        },
        {
          "indexed": true,
          "internalType": "uint64",
          "name": "vouchId",
          "type": "uint64"
        }
      ],
      "name": "PointsUnlocked",
      "type": "event"
    },
    {
      "inputs": [],
      "name": "admin",
      "outputs": [
        {
          "internalType": "address",
          "name": "",
          "type": "address"
        }
      ],
      "stateMutability": "view",
      "type": "function"
    },
    {
      "inputs": [
        {
          "internalType": "address",
          "name": "",
          "type": "address"
        }
      ],
      "name": "authorized",
      "outputs": [
        {
          "internalType": "bool",
          "name": "",
          "type": "bool"
        }
      ],
      "stateMutability": "view",
      "type": "function"
    },
    {
      "inputs": [
        {
          "internalType": "bytes32",
          "name": "popId",
          "type": "bytes32"
        },
        {
          "internalType": "uint64",
          "name": "amount",
          "type": "uint64"
        },
        {
          "internalType": "uint64",
          "name": "vouchId",
          "type": "uint64"
        }
      ],
      "name": "burnLockedPoints",
      "outputs": [],
      "stateMutability": "nonpayable",
      "type": "function"
    },
    {
      "inputs": [
        {
          "internalType": "bytes32",
          "name": "popId",
          "type": "bytes32"
        },
        {
          "internalType": "uint64",
          "name": "amount",
          "type": "uint64"
        },
        {
          "internalType": "string",
          "name": "reason",
          "type": "string"
        }
      ],
      "name": "burnPoints",
      "outputs": [],
      "stateMutability": "nonpayable",
      "type": "function"
    },
    {
      "inputs": [
        {
          "internalType": "bytes32",
          "name": "popId",
          "type": "bytes32"
        }
      ],
      "name": "getBalance",
      "outputs": [
        {
          "components": [
            {
              "internalType": "int64",
              "name": "total",
              "type": "int64"
            },
            {
              "internalType": "uint64",
              "name": "earned",
              "type": "uint64"
            },
            {
              "internalType": "uint64",
              "name": "burned",
              "type": "uint64"
            },
            {
              "internalType": "uint64",
              "name": "locked",
              "type": "uint64"
            },
            {
              "internalType": "int64",
              "name": "available",
              "type": "int64"
            },
            {
              "internalType": "uint64",
              "name": "lastUpdated",
              "type": "uint64"
            }
          ],
          "internalType": "struct IPointsLedger.PointsBalance",
          "name": "",
          "type": "tuple"
        }
      ],
      "stateMutability": "view",
      "type": "function"
    },
    {
      "inputs": [
        {
          "internalType": "bytes32",
          "name": "popId",
          "type": "bytes32"
        },
        {
          "internalType": "uint64",
          "name": "fromBlock",
          "type": "uint64"
        },
        {
          "internalType": "uint64",
          "name": "toBlock",
          "type": "uint64"
        }
      ],
      "name": "getPointsEarnedInWindow",
      "outputs": [
        {
          "internalType": "uint64",
          "name": "",
          "type": "uint64"
        }
      ],
      "stateMutability": "view",
      "type": "function"
    },
    {
      "inputs": [
        {
          "internalType": "bytes32",
          "name": "popId",
          "type": "bytes32"
        },
        {
          "internalType": "uint256",
          "name": "idx",
          "type": "uint256"
        }
      ],
      "name": "historyAt",
      "outputs": [
        {
          "components": [
            {
              "internalType": "int64",
              "name": "amount",
              "type": "int64"
            },
            {
              "internalType": "uint64",
              "name": "timestamp",
              "type": "uint64"
            },
            {
              "internalType": "uint64",
              "name": "relatedVouchId",
              "type": "uint64"
            },
            {
              "internalType": "string",
              "name": "reason",
              "type": "string"
            }
          ],
          "internalType": "struct PointsLedger.PointEvent",
          "name": "",
          "type": "tuple"
        }
      ],
      "stateMutability": "view",
      "type": "function"
    },
    {
      "inputs": [
        {
          "internalType": "bytes32",
          "name": "popId",
          "type": "bytes32"
        }
      ],
      "name": "historyLength",
      "outputs": [
        {
          "internalType": "uint256",
          "name": "",
          "type": "uint256"
        }
      ],
      "stateMutability": "view",
      "type": "function"
    },
    {
      "inputs": [
        {
          "internalType": "bytes32",
          "name": "popId",
          "type": "bytes32"
        },
        {
          "internalType": "uint64",
          "name": "amount",
          "type": "uint64"
        },
        {
          "internalType": "uint64",
          "name": "vouchId",
          "type": "uint64"
        }
      ],
      "name": "lockPoints",
      "outputs": [],
      "stateMutability": "nonpayable",
      "type": "function"
    },
    {
      "inputs": [
        {
          "internalType": "bytes32",
          "name": "",
          "type": "bytes32"
        },
        {
          "internalType": "uint64",
          "name": "",
          "type": "uint64"
        }
      ],
      "name": "lockedPoints",
      "outputs": [
        {
          "internalType": "uint64",
          "name": "",
          "type": "uint64"
        }
      ],
      "stateMutability": "view",
      "type": "function"
    },
    {
      "inputs": [
        {
          "internalType": "bytes32",
          "name": "popId",
          "type": "bytes32"
        },
        {
          "internalType": "uint64",
          "name": "amount",
          "type": "uint64"
        },
        {
          "internalType": "string",
          "name": "reason",
          "type": "string"
        }
      ],
      "name": "mintPoints",
      "outputs": [],
      "stateMutability": "nonpayable",
      "type": "function"
    },
    {
      "inputs": [
        {
          "internalType": "address",
          "name": "who",
          "type": "address"
        },
        {
          "internalType": "bool",
          "name": "enabled",
          "type": "bool"
        }
      ],
      "name": "setAuthorized",
      "outputs": [],
      "stateMutability": "nonpayable",
      "type": "function"
    },
    {
      "inputs": [
        {
          "internalType": "address",
          "name": "newAdmin",
          "type": "address"
        }
      ],
      "name": "transferAdmin",
      "outputs": [],
      "stateMutability": "nonpayable",
      "type": "function"
    },
    {
      "inputs": [
        {
          "internalType": "bytes32",
          "name": "popId",
          "type": "bytes32"
        },
        {
          "internalType": "uint64",
          "name": "amount",
          "type": "uint64"
        },
        {
          "internalType": "uint64",
          "name": "vouchId",
          "type": "uint64"
        }
      ],
      "name": "unlockPoints",
      "outputs": [],
      "stateMutability": "nonpayable",
      "type": "function"
    }
  ],
  "bytecode": "0x608060405234801561001057600080fd5b50604051611c11380380611c1183398101604081905261002f916100ae565b6001600160a01b0381166100895760405162461bcd60e51b815260206004820152601860248201527f506f696e74734c65646765723a207a65726f2061646d696e0000000000000000604482015260640160405180910390fd5b600080546001600160a01b0319166001600160a01b03929092169190911790556100de565b6000602082840312156100c057600080fd5b81516001600160a01b03811681146100d757600080fd5b9392505050565b611b24806100ed6000396000f3fe608060405234801561001057600080fd5b50600436106100ea5760003560e01c806371ada8211161008c5780638e739461116100665780638e73946114610208578063b918161114610325578063f851a44014610358578063ff78c9db1461038357600080fd5b806371ada8211461019657806375829def146101e2578063870166a6146101f557600080fd5b806343905859116100c8578063439058591461012a57806361eb10361461015d578063711bf9b2146101705780637162fd751461018357600080fd5b8063029db3a6146100ef5780630ef7389414610104578063143c44dc14610117575b600080fd5b6101026100fd36600461154d565b6103a3565b005b6101026101123660046115d3565b6106a0565b6101026101253660046115d3565b610a1c565b61014a61013836600461160f565b60009081526003602052604090205490565b6040519081526020015b60405180910390f35b61010261016b36600461154d565b610c87565b61010261017e36600461163f565b610f63565b6101026101913660046115d3565b611016565b6101ca6101a436600461167b565b60046020908152600092835260408084209091529082529020546001600160401b031681565b6040516001600160401b039091168152602001610154565b6101026101f03660046116a7565b61120d565b6101ca6102033660046115d3565b6112d9565b6102c061021636600461160f565b6040805160c081018252600080825260208201819052918101829052606081018290526080810182905260a081019190915250600090815260026020908152604091829020825160c0810184528154600781810b8352600160401b8083046001600160401b0390811696850196909652600160801b8304861696840196909652600160c01b909104841660608301526001909201549182900b60808201529290041660a082015290565b6040516101549190600060c082019050825160070b825260208301516001600160401b038082166020850152806040860151166040850152806060860151166060850152608085015160070b60808501528060a08601511660a0850152505092915050565b6103486103333660046116a7565b60016020526000908152604090205460ff1681565b6040519015158152602001610154565b60005461036b906001600160a01b031681565b6040516001600160a01b039091168152602001610154565b6103966103913660046116c9565b6113ff565b60405161015491906116eb565b3360009081526001602052604090205460ff166103db5760405162461bcd60e51b81526004016103d290611773565b60405180910390fd5b836103f85760405162461bcd60e51b81526004016103d2906117aa565b6000836001600160401b03161161044d5760405162461bcd60e51b8152602060048201526019602482015278141bda5b9d1cd3195919d95c8e881e995c9bc8185b5bdd5b9d603a1b60448201526064016103d2565b600084815260026020526040812080549091859183919061047290849060070b6117f7565b92506101000a8154816001600160401b03021916908360070b6001600160401b03160217905550838160000160108282829054906101000a90046001600160401b03166104bf9190611826565b92506101000a8154816001600160401b0302191690836001600160401b03160217905550838160010160008282829054906101000a900460070b61050391906117f7565b92506101000a8154816001600160401b03021916908360070b6001600160401b03160217905550438160010160086101000a8154816001600160401b0302191690836001600160401b031602179055506003600086815260200190815260200160002060405180608001604052808661057b9061184d565b60070b8152602001436001600160401b0316815260200160006001600160401b0316815260200185858080601f0160208091040260200160405190810160405280939291908181526020018383808284376000920182905250939094525050835460018181018655948252602091829020845160029092020180549285015160408601516001600160401b03908116600160801b0267ffffffffffffffff60801b19928216600160401b026001600160801b031990961691909416179390931792909216178155606083015192939092908301915061065a9082611915565b505050847f2d8e2739fe22d2c6401dd77a063076bb1dabd239e5f275851663ad916215bd88858585604051610691939291906119d4565b60405180910390a25050505050565b3360009081526001602052604090205460ff166106cf5760405162461bcd60e51b81526004016103d290611773565b6000838152600260209081526040808320600483528184206001600160401b0380871686529352908320549092908216918516821061070e5784610710565b815b90506001600160401b038116156107b857825481908490601890610745908490600160c01b90046001600160401b0316611a13565b82546101009290920a6001600160401b038181021990931691831602179091556000888152600460209081526040808320898516845290915281208054859450909261079391859116611a13565b92506101000a8154816001600160401b0302191690836001600160401b031602179055505b8254859084906000906107cf90849060070b6117f7565b92506101000a8154816001600160401b03021916908360070b6001600160401b03160217905550848360000160108282829054906101000a90046001600160401b031661081c9190611826565b92506101000a8154816001600160401b0302191690836001600160401b03160217905550806001600160401b0316856001600160401b031611156108a3576108648186611a13565b60018401805460009061087b90849060070b6117f7565b92506101000a8154816001600160401b03021916908360070b6001600160401b031602179055505b60018301805467ffffffffffffffff60401b1916600160401b436001600160401b0316021790556000868152600360205260409081902081516080810190925290806108ee8861184d565b60070b81526001600160401b0343811660208084019190915288821660408085019190915280518082018252600d81526c766f7563685f70656e616c747960981b818401526060948501528554600181810188556000978852968390208651600290920201805493870151928701518516600160801b0267ffffffffffffffff60801b19938616600160401b026001600160801b0319909516929095169190911792909217169190911781559082015191929091908201906109b09082611915565b5050604080516001600160401b038816815260208101829052600d818301526c766f7563685f70656e616c747960981b606082015290518892507f2d8e2739fe22d2c6401dd77a063076bb1dabd239e5f275851663ad916215bd889181900360800190a2505050505050565b3360009081526001602052604090205460ff16610a4b5760405162461bcd60e51b81526004016103d290611773565b82610a685760405162461bcd60e51b81526004016103d2906117aa565b806001600160401b0316600003610ac15760405162461bcd60e51b815260206004820152601a60248201527f506f696e74734c65646765723a207a65726f20766f756368496400000000000060448201526064016103d2565b60008381526002602052604090206001810154600784810b91900b1215610b365760405162461bcd60e51b8152602060048201526024808201527f506f696e74734c65646765723a20696e73756666696369656e7420617661696c60448201526361626c6560e01b60648201526084016103d2565b805483908290601890610b5a908490600160c01b90046001600160401b0316611826565b92506101000a8154816001600160401b0302191690836001600160401b03160217905550828160010160008282829054906101000a900460070b610b9e91906117f7565b82546101009290920a6001600160401b0381810219909316918316021790915560018301805467ffffffffffffffff60401b1916600160401b4384160217905560008681526004602090815260408083208785168452909152812080548794509092610c0c91859116611826565b92506101000a8154816001600160401b0302191690836001600160401b03160217905550816001600160401b0316847fc6d65bc35500e0d2f7329d39f91e79186885f4a4367b15dfdd20bdc9606f12cc85604051610c7991906001600160401b0391909116815260200190565b60405180910390a350505050565b3360009081526001602052604090205460ff16610cb65760405162461bcd60e51b81526004016103d290611773565b83610cd35760405162461bcd60e51b81526004016103d2906117aa565b6000836001600160401b031611610d285760405162461bcd60e51b8152602060048201526019602482015278141bda5b9d1cd3195919d95c8e881e995c9bc8185b5bdd5b9d603a1b60448201526064016103d2565b6000848152600260205260408120805490918591839190610d4d90849060070b611a33565b92506101000a8154816001600160401b03021916908360070b6001600160401b03160217905550838160000160088282829054906101000a90046001600160401b0316610d9a9190611826565b92506101000a8154816001600160401b0302191690836001600160401b03160217905550838160010160008282829054906101000a900460070b610dde9190611a33565b92506101000a8154816001600160401b03021916908360070b6001600160401b03160217905550438160010160086101000a8154816001600160401b0302191690836001600160401b031602179055506003600086815260200190815260200160002060405180608001604052808660070b8152602001436001600160401b0316815260200160006001600160401b0316815260200185858080601f0160208091040260200160405190810160405280939291908181526020018383808284376000920182905250939094525050835460018181018655948252602091829020845160029092020180549285015160408601516001600160401b03908116600160801b0267ffffffffffffffff60801b19928216600160401b026001600160801b0319909616919094161793909317929092161781556060830151929390929083019150610f2c9082611915565b505050847fe52f266631fcae4aaa689c4362db7a354b04870a2ad69382def6058c8a16860d858585604051610691939291906119d4565b6000546001600160a01b03163314610fb75760405162461bcd60e51b81526020600482015260176024820152762837b4b73a39a632b233b2b91d103737ba1030b236b4b760491b60448201526064016103d2565b6001600160a01b038216600081815260016020908152604091829020805460ff191685151590811790915591519182527f19fef6046150baa445c8f44d75e29317c0fa4c6341a6c8444b3ec4cc48d1e1ce910160405180910390a25050565b3360009081526001602052604090205460ff166110455760405162461bcd60e51b81526004016103d290611773565b60008381526004602090815260408083206001600160401b038581168552925290912054818416911610156110bc5760405162461bcd60e51b815260206004820152601f60248201527f506f696e74734c65646765723a206e6f7420656e6f756768206c6f636b65640060448201526064016103d2565b60008381526002602052604090208054839082906018906110ee908490600160c01b90046001600160401b0316611a13565b92506101000a8154816001600160401b0302191690836001600160401b03160217905550828160010160008282829054906101000a900460070b6111329190611a33565b82546101009290920a6001600160401b0381810219909316918316021790915560018301805467ffffffffffffffff60401b1916600160401b43841602179055600086815260046020908152604080832087851684529091528120805487945090926111a091859116611a13565b92506101000a8154816001600160401b0302191690836001600160401b03160217905550816001600160401b0316847f296fd63dd4353d064e702cd895eed43d76548e234b2107b3a81cedc779c7230185604051610c7991906001600160401b0391909116815260200190565b6000546001600160a01b031633146112615760405162461bcd60e51b81526020600482015260176024820152762837b4b73a39a632b233b2b91d103737ba1030b236b4b760491b60448201526064016103d2565b6001600160a01b0381166112b75760405162461bcd60e51b815260206004820152601860248201527f506f696e74734c65646765723a207a65726f2061646d696e000000000000000060448201526064016103d2565b600080546001600160a01b0319166001600160a01b0392909216919091179055565b604080518082018252600b81526a3b37bab1b432b22fb337b960a91b602091820152600085815260039091529081207f0ab2379253d81b8704a16fb919d1a929bf013958631c38c2c7dd822fbe001ff3908290815b81548110156113f357600082828154811061134b5761134b611a62565b6000918252602090912060029091020180549091506001600160401b03808a16600160401b909204161080611393575080546001600160401b03808916600160401b90920416115b1561139e57506113eb565b8054600060079190910b136113b357506113eb565b84816001016040516113c59190611a78565b6040518091039020036113d857506113eb565b80546113e79060070b85611826565b9350505b60010161132e565b50909695505050505050565b6040805160808101825260008082526020820181905291810191909152606080820152600083815260036020526040902080548390811061144257611442611a62565b60009182526020918290206040805160808101825260029093029091018054600781900b84526001600160401b03600160401b8204811695850195909552600160801b9004909316908201526001820180549192916060840191906114a69061188a565b80601f01602080910402602001604051908101604052809291908181526020018280546114d29061188a565b801561151f5780601f106114f45761010080835404028352916020019161151f565b820191906000526020600020905b81548152906001019060200180831161150257829003601f168201915b50505050508152505090505b92915050565b80356001600160401b038116811461154857600080fd5b919050565b6000806000806060858703121561156357600080fd5b8435935061157360208601611531565b925060408501356001600160401b038082111561158f57600080fd5b818701915087601f8301126115a357600080fd5b8135818111156115b257600080fd5b8860208285010111156115c457600080fd5b95989497505060200194505050565b6000806000606084860312156115e857600080fd5b833592506115f860208501611531565b915061160660408501611531565b90509250925092565b60006020828403121561162157600080fd5b5035919050565b80356001600160a01b038116811461154857600080fd5b6000806040838503121561165257600080fd5b61165b83611628565b91506020830135801515811461167057600080fd5b809150509250929050565b6000806040838503121561168e57600080fd5b8235915061169e60208401611531565b90509250929050565b6000602082840312156116b957600080fd5b6116c282611628565b9392505050565b600080604083850312156116dc57600080fd5b50508035926020909101359150565b60006020808352835160070b602084015260208401516001600160401b0380821660408601528060408701511660608601525050606084015160808085015280518060a086015260005b818110156117515782810184015186820160c001528301611735565b50600060c0828701015260c0601f19601f830116860101935050505092915050565b6020808252601c908201527f506f696e74734c65646765723a206e6f7420617574686f72697a656400000000604082015260600190565b60208082526018908201527f506f696e74734c65646765723a207a65726f20706f7049640000000000000000604082015260600190565b634e487b7160e01b600052601160045260246000fd5b600782810b9082900b03677fffffffffffffff198112677fffffffffffffff8213171561152b5761152b6117e1565b6001600160401b03818116838216019080821115611846576118466117e1565b5092915050565b60008160070b677fffffffffffffff19810361186b5761186b6117e1565b60000392915050565b634e487b7160e01b600052604160045260246000fd5b600181811c9082168061189e57607f821691505b6020821081036118be57634e487b7160e01b600052602260045260246000fd5b50919050565b601f821115611910576000816000526020600020601f850160051c810160208610156118ed5750805b601f850160051c820191505b8181101561190c578281556001016118f9565b5050505b505050565b81516001600160401b0381111561192e5761192e611874565b6119428161193c845461188a565b846118c4565b602080601f831160018114611977576000841561195f5750858301515b600019600386901b1c1916600185901b17855561190c565b600085815260208120601f198616915b828110156119a657888601518255948401946001909101908401611987565b50858210156119c45787850151600019600388901b60f8161c191681555b5050505050600190811b01905550565b6001600160401b038416815260406020820152816040820152818360608301376000818301606090810191909152601f909201601f1916010192915050565b6001600160401b03828116828216039080821115611846576118466117e1565b600781810b9083900b01677fffffffffffffff8113677fffffffffffffff198212171561152b5761152b6117e1565b634e487b7160e01b600052603260045260246000fd5b6000808354611a868161188a565b60018281168015611a9e5760018114611ab357611ae2565b60ff1984168752821515830287019450611ae2565b8760005260208060002060005b85811015611ad95781548a820152908401908201611ac0565b50505082870194505b5092969550505050505056fea2646970667358221220f31d1e081970fdd76f0ad875132f5e56a9acf124e37b5c12841b3446aa1e83f864736f6c63430008180033",
  "linkReferences": {},
  "deployedLinkReferences": {}
}