{
  "_format": "hh-sol-artifact-1",
  "contractName": "DisputeResolver",
  "sourceName": "contracts/DisputeResolver.sol",
  "abi": [
    {
      "inputs": [
        {
          "internalType": "address",
          "name": "_admin",
          "type": "address"
        },
        {
          "internalType": "address",
          "name": "_scoreRegistry",
          "type": "address"
        },
        {
          "internalType": "address",
          "name": "_stablecoin",
          "type": "address"
        },
        {
          "internalType": "address",
          "name": "_treasury",
          "type": "address"
        }
      ],
      "stateMutability": "nonpayable",
      "type": "constructor"
    },
    {
      "anonymous": false,
      "inputs": [
        {
          "indexed": true,
          "internalType": "uint64",
          "name": "disputeId",
          "type": "uint64"
        },
        {
          "indexed": false,
          "internalType": "uint128",
          "name": "amount",
          "type": "uint128"
        },
        {
          "indexed": false,
          "internalType": "address",
          "name": "to",
          "type": "address"
        }
      ],
      "name": "BondForfeited",
      "type": "event"
    },
    {
      "anonymous": false,
      "inputs": [
        {
          "indexed": true,
          "internalType": "uint64",
          "name": "disputeId",
          "type": "uint64"
        },
        {
          "indexed": false,
          "internalType": "uint128",
          "name": "amount",
          "type": "uint128"
        },
        {
          "indexed": false,
          "internalType": "address",
          "name": "to",
          "type": "address"
        }
      ],
      "name": "BondRefunded",
      "type": "event"
    },
    {
      "anonymous": false,
      "inputs": [
        {
          "indexed": true,
          "internalType": "uint64",
          "name": "disputeId",
          "type": "uint64"
        },
        {
          "indexed": true,
          "internalType": "bytes32",
          "name": "popId",
          "type": "bytes32"
        },
        {
          "indexed": true,
          "internalType": "uint64",
          "name": "proposalId",
          "type": "uint64"
        },
        {
          "indexed": false,
          "internalType": "enum DisputeResolver.ClaimType",
          "name": "claimType",
          "type": "uint8"
        },
        {
          "indexed": false,
          "internalType": "address",
          "name": "disputer",
          "type": "address"
        }
      ],
      "name": "DisputeCreated",
      "type": "event"
    },
    {
      "anonymous": false,
      "inputs": [
        {
          "indexed": true,
          "internalType": "uint64",
          "name": "disputeId",
          "type": "uint64"
        },
        {
          "indexed": false,
          "internalType": "bool",
          "name": "disputerWon",
          "type": "bool"
        },
        {
          "indexed": false,
          "internalType": "bytes32",
          "name": "popId",
          "type": "bytes32"
        }
      ],
      "name": "DisputeResolved",
      "type": "event"
    },
    {
      "anonymous": false,
      "inputs": [
        {
          "indexed": true,
          "internalType": "address",
          "name": "governance",
          "type": "address"
        }
      ],
      "name": "GovernanceSet",
      "type": "event"
    },
    {
      "anonymous": false,
      "inputs": [
        {
          "indexed": true,
          "internalType": "uint64",
          "name": "proposalId",
          "type": "uint64"
        },
        {
          "indexed": false,
          "internalType": "string",
          "name": "reason",
          "type": "string"
        }
      ],
      "name": "IndexerPenalized",
      "type": "event"
    },
    {
      "anonymous": false,
      "inputs": [
        {
          "indexed": true,
          "internalType": "address",
          "name": "treasury",
          "type": "address"
        }
      ],
      "name": "TreasurySet",
      "type": "event"
    },
    {
      "inputs": [],
      "name": "DISPUTE_BOND",
      "outputs": [
        {
          "internalType": "uint128",
          "name": "",
          "type": "uint128"
        }
      ],
      "stateMutability": "view",
      "type": "function"
    },
    {
      "inputs": [],
      "name": "DISPUTE_REWARD",
      "outputs": [
        {
          "internalType": "uint128",
          "name": "",
          "type": "uint128"
        }
      ],
      "stateMutability": "view",
      "type": "function"
    },
    {
      "inputs": [],
      "name": "RESOLUTION_WINDOW",
      "outputs": [
        {
          "internalType": "uint64",
          "name": "",
          "type": "uint64"
        }
      ],
      "stateMutability": "view",
      "type": "function"
    },
    {
      "inputs": [],
      "name": "admin",
      "outputs": [
        {
          "internalType": "address",
          "name": "",
          "type": "address"
        }
      ],
      "stateMutability": "view",
      "type": "function"
    },
    {
      "inputs": [
        {
          "internalType": "bytes32",
          "name": "popId",
          "type": "bytes32"
        },
        {
          "internalType": "enum DisputeResolver.ClaimType",
          "name": "claimType",
          "type": "uint8"
        },
        {
          "components": [
            {
              "internalType": "uint32",
              "name": "eventSourceChain",
              "type": "uint32"
            },
            {
              "internalType": "uint64",
              "name": "eventBlockNumber",
              "type": "uint64"
            },
            {
              "internalType": "uint32",
              "name": "eventIndex",
              "type": "uint32"
            },
            {
              "internalType": "bytes",
              "name": "eventData",
              "type": "bytes"
            },
            {
              "internalType": "int64",
              "name": "expectedPoints",
              "type": "int64"
            },
            {
              "internalType": "string",
              "name": "expectedReasonCode",
              "type": "string"
            },
            {
              "internalType": "bytes32[]",
              "name": "merkleProof",
              "type": "bytes32[]"
            },
            {
              "internalType": "uint32",
              "name": "leafIndex",
              "type": "uint32"
            },
            {
              "internalType": "bytes",
              "name": "leafData",
              "type": "bytes"
            },
            {
              "internalType": "bytes32",
              "name": "leafHash",
              "type": "bytes32"
            },
            {
              "internalType": "string",
              "name": "disqualifyingReason",
              "type": "string"
            },
            {
              "internalType": "int64",
              "name": "claimedCorrectPoints",
              "type": "int64"
            },
            {
              "internalType": "uint64",
              "name": "claimedCorrectScore",
              "type": "uint64"
            }
          ],
          "internalType": "struct DisputeResolver.DisputeEvidence",
          "name": "evidence",
          "type": "tuple"
        }
      ],
      "name": "dispute",
      "outputs": [
        {
          "internalType": "uint64",
          "name": "",
          "type": "uint64"
        }
      ],
      "stateMutability": "nonpayable",
      "type": "function"
    },
    {
      "inputs": [
        {
          "internalType": "uint256",
          "name": "amount",
          "type": "uint256"
        }
      ],
      "name": "fundReward",
      "outputs": [],
      "stateMutability": "nonpayable",
      "type": "function"
    },
    {
      "inputs": [
        {
          "internalType": "uint64",
          "name": "disputeId",
          "type": "uint64"
        }
      ],
      "name": "getDispute",
      "outputs": [
        {
          "components": [
            {
              "internalType": "uint64",
              "name": "id",
              "type": "uint64"
            },
            {
              "internalType": "bytes32",
              "name": "popId",
              "type": "bytes32"
            },
            {
              "internalType": "uint64",
              "name": "proposalId",
              "type": "uint64"
            },
            {
              "internalType": "address",
              "name": "disputer",
              "type": "address"
            },
            {
              "internalType": "uint128",
              "name": "bond",
              "type": "uint128"
            },
            {
              "internalType": "enum DisputeResolver.ClaimType",
              "name": "claimType",
              "type": "uint8"
            },
            {
              "internalType": "enum DisputeResolver.DisputeStatus",
              "name": "status",
              "type": "uint8"
            },
            {
              "internalType": "uint64",
              "name": "createdAt",
              "type": "uint64"
            },
            {
              "internalType": "uint64",
              "name": "resolvedAt",
              "type": "uint64"
            }
          ],
          "internalType": "struct DisputeResolver.Dispute",
          "name": "",
          "type": "tuple"
        }
      ],
      "stateMutability": "view",
      "type": "function"
    },
    {
      "inputs": [
        {
          "internalType": "uint64",
          "name": "disputeId",
          "type": "uint64"
        }
      ],
      "name": "getEvidence",
      "outputs": [
        {
          "components": [
            {
              "internalType": "uint32",
              "name": "eventSourceChain",
              "type": "uint32"
            },
            {
              "internalType": "uint64",
              "name": "eventBlockNumber",
              "type": "uint64"
            },
            {
              "internalType": "uint32",
              "name": "eventIndex",
              "type": "uint32"
            },
            {
              "internalType": "bytes",
              "name": "eventData",
              "type": "bytes"
            },
            {
              "internalType": "int64",
              "name": "expectedPoints",
              "type": "int64"
            },
            {
              "internalType": "string",
              "name": "expectedReasonCode",
              "type": "string"
            },
            {
              "internalType": "bytes32[]",
              "name": "merkleProof",
              "type": "bytes32[]"
            },
            {
              "internalType": "uint32",
              "name": "leafIndex",
              "type": "uint32"
            },
            {
              "internalType": "bytes",
              "name": "leafData",
              "type": "bytes"
            },
            {
              "internalType": "bytes32",
              "name": "leafHash",
              "type": "bytes32"
            },
            {
              "internalType": "string",
              "name": "disqualifyingReason",
              "type": "string"
            },
            {
              "internalType": "int64",
              "name": "claimedCorrectPoints",
              "type": "int64"
            },
            {
              "internalType": "uint64",
              "name": "claimedCorrectScore",
              "type": "uint64"
            }
          ],
          "internalType": "struct DisputeResolver.DisputeEvidence",
          "name": "",
          "type": "tuple"
        }
      ],
      "stateMutability": "view",
      "type": "function"
    },
    {
      "inputs": [],
      "name": "governance",
      "outputs": [
        {
          "internalType": "address",
          "name": "",
          "type": "address"
        }
      ],
      "stateMutability": "view",
      "type": "function"
    },
    {
      "inputs": [],
      "name": "nextDisputeId",
      "outputs": [
        {
          "internalType": "uint64",
          "name": "",
          "type": "uint64"
        }
      ],
      "stateMutability": "view",
      "type": "function"
    },
    {
      "inputs": [
        {
          "internalType": "uint64",
          "name": "",
          "type": "uint64"
        }
      ],
      "name": "openDisputeByProposal",
      "outputs": [
        {
          "internalType": "uint64",
          "name": "",
          "type": "uint64"
        }
      ],
      "stateMutability": "view",
      "type": "function"
    },
    {
      "inputs": [
        {
          "internalType": "uint64",
          "name": "disputeId",
          "type": "uint64"
        },
        {
          "internalType": "bool",
          "name": "disputerWins",
          "type": "bool"
        },
        {
          "internalType": "uint64",
          "name": "correctedScore",
          "type": "uint64"
        },
        {
          "internalType": "int64",
          "name": "correctedPoints",
          "type": "int64"
        }
      ],
      "name": "resolveDispute",
      "outputs": [],
      "stateMutability": "nonpayable",
      "type": "function"
    },
    {
      "inputs": [],
      "name": "scoreRegistry",
      "outputs": [
        {
          "internalType": "contract IScoreRegistry",
          "name": "",
          "type": "address"
        }
      ],
      "stateMutability": "view",
      "type": "function"
    },
    {
      "inputs": [
        {
          "internalType": "address",
          "name": "g",
          "type": "address"
        }
      ],
      "name": "setGovernance",
      "outputs": [],
      "stateMutability": "nonpayable",
      "type": "function"
    },
    {
      "inputs": [
        {
          "internalType": "address",
          "name": "t",
          "type": "address"
        }
      ],
      "name": "setTreasury",
      "outputs": [],
      "stateMutability": "nonpayable",
      "type": "function"
    },
    {
      "inputs": [],
      "name": "stablecoin",
      "outputs": [
        {
          "internalType": "contract IERC20D",
          "name": "",
          "type": "address"
        }
      ],
      "stateMutability": "view",
      "type": "function"
    },
    {
      "inputs": [
        {
          "internalType": "address",
          "name": "newAdmin",
          "type": "address"
        }
      ],
      "name": "transferAdmin",
      "outputs": [],
      "stateMutability": "nonpayable",
      "type": "function"
    },
    {
      "inputs": [],
      "name": "treasury",
      "outputs": [
        {
          "internalType": "address",
          "name": "",
          "type": "address"
        }
      ],
      "stateMutability": "view",
      "type": "function"
    }
  ],
  "bytecode": "0x60c060405260028054600160a01b600160e01b031916600160a01b1790553480156200002a57600080fd5b5060405162002c6d38038062002c6d8339810160408190526200004d916200021b565b6001600160a01b038416620000a95760405162461bcd60e51b815260206004820152601360248201527f446973707574653a207a65726f2061646d696e0000000000000000000000000060448201526064015b60405180910390fd5b6001600160a01b038316620001015760405162461bcd60e51b815260206004820152601660248201527f446973707574653a207a65726f207265676973747279000000000000000000006044820152606401620000a0565b6001600160a01b038216620001595760405162461bcd60e51b815260206004820152601460248201527f446973707574653a207a65726f20737461626c650000000000000000000000006044820152606401620000a0565b6001600160a01b038116620001b15760405162461bcd60e51b815260206004820152601660248201527f446973707574653a207a65726f207472656173757279000000000000000000006044820152606401620000a0565b600080546001600160a01b039586166001600160a01b0319918216811790925560018054821690921790915560028054928616929091169190911790559082166080521660a05262000278565b80516001600160a01b03811681146200021657600080fd5b919050565b600080600080608085870312156200023257600080fd5b6200023d85620001fe565b93506200024d60208601620001fe565b92506200025d60408601620001fe565b91506200026d60608601620001fe565b905092959194509250565b60805160a051612982620002eb600039600081816102a50152818161057e0152818161119c015281816116e0015281816117a50152611a06015260008181610191015281816103300152818161040b015281816108d9015281816114b8015281816118fd0152611b5101526129826000f3fe608060405234801561001057600080fd5b50600436106101165760003560e01c806375829def116100a2578063c9ccbf7f11610071578063c9ccbf7f1461028d578063e9cbd822146102a0578063f0f44260146102c7578063f851a440146102da578063f953190a146102ed57600080fd5b806375829def1461021e5780638634251a146102315780639ea6942714610251578063ab033ea91461027a57600080fd5b806345abda1e116100e957806345abda1e146101cb5780634c68ae63146101e05780635aa6e675146101ef57806361d027b314610202578063734c85441461021557600080fd5b806302c588241461011b5780630db399341461014b5780630ddb0fb9146101655780633eb8104a1461018c575b600080fd5b61012e610129366004611d33565b61030d565b6040516001600160401b0390911681526020015b60405180910390f35b60025461012e90600160a01b90046001600160401b031681565b61017467d02ab486cedc000081565b6040516001600160801b039091168152602001610142565b6101b37f000000000000000000000000000000000000000000000000000000000000000081565b6040516001600160a01b039091168152602001610142565b6101de6101d9366004611dc9565b610afa565b005b610174678ac7230489e8000081565b6001546101b3906001600160a01b031681565b6002546101b3906001600160a01b031681565b61012e610e1081565b6101de61022c366004611e3a565b610c5f565b61024461023f366004611e57565b610cf7565b6040516101429190611ef6565b61012e61025f366004611e57565b6005602052600090815260409020546001600160401b031681565b6101de610288366004611e3a565b6110b0565b6101de61029b366004612044565b61117a565b6101b37f000000000000000000000000000000000000000000000000000000000000000081565b6101de6102d5366004611e3a565b611260565b6000546101b3906001600160a01b031681565b6103006102fb366004611e57565b611323565b6040516101429190612097565b604051632e07087560e01b81526004810184905260009081906001600160a01b037f00000000000000000000000000000000000000000000000000000000000000001690632e0708759060240161016060405180830381865afa158015610378573d6000803e3d6000fd5b505050506040513d601f19601f8201168201806040525081019061039c91906121fd565b9050600181610140015160058111156103b7576103b761205d565b146104095760405162461bcd60e51b815260206004820152601c60248201527f446973707574653a206e6f2070656e64696e672070726f706f73616c0000000060448201526064015b60405180910390fd5b7f00000000000000000000000000000000000000000000000000000000000000006001600160a01b031663d62aad296040518163ffffffff1660e01b8152600401602060405180830381865afa158015610467573d6000803e3d6000fd5b505050506040513d601f19601f8201168201806040525081019061048b91906122c9565b81610100015161049b91906122fc565b6001600160401b031643106104eb5760405162461bcd60e51b8152602060048201526016602482015275111a5cdc1d5d194e881dda5b991bddc818db1bdcd95960521b6044820152606401610400565b80516001600160401b0390811660009081526005602052604090205416156105555760405162461bcd60e51b815260206004820152601960248201527f446973707574653a20616c7265616479206469737075746564000000000000006044820152606401610400565b6040516323b872dd60e01b8152336004820152306024820152678ac7230489e8000060448201527f00000000000000000000000000000000000000000000000000000000000000006001600160a01b0316906323b872dd906064016020604051808303816000875af11580156105cf573d6000803e3d6000fd5b505050506040513d601f19601f820116820180604052508101906105f39190612323565b61063f5760405162461bcd60e51b815260206004820152601d60248201527f446973707574653a20626f6e64207472616e73666572206661696c65640000006044820152606401610400565b60028054600091600160a01b9091046001600160401b031690601461066383612340565b91906101000a8154816001600160401b0302191690836001600160401b031602179055509050604051806101200160405280826001600160401b0316815260200187815260200183600001516001600160401b03168152602001336001600160a01b03168152602001678ac7230489e800006001600160801b031681526020018660028111156106f5576106f561205d565b8152602001600181526001600160401b034381166020808401919091526000604093840181905285831681526003808352908490208551815490851667ffffffffffffffff19909116178155918501516001830155928401516002808301805460608801516001600160a01b0316600160401b026001600160e01b03199091169390951692909217939093179055608084015192810180546001600160801b039094166fffffffffffffffffffffffffffffffff1985168117825560a086015192949293919270ffffffffffffffffffffffffffffffffff19161790600160801b9084908111156107e8576107e861205d565b021790555060c08201518160030160116101000a81548160ff021916908360038111156108175761081761205d565b021790555060e082015160038201805467ffffffffffffffff60901b1916600160901b6001600160401b0393841602179055610100909201516004918201805467ffffffffffffffff1916918416919091179055908216600090815260209190915260409020849061088982826125fa565b505081516001600160401b0390811660009081526005602052604090819020805467ffffffffffffffff191692841692831790555163c8c0dd0960e01b81526004810188905260248101919091527f00000000000000000000000000000000000000000000000000000000000000006001600160a01b03169063c8c0dd0990604401600060405180830381600087803b15801561092557600080fd5b505af1158015610939573d6000803e3d6000fd5b5050505081600001516001600160401b031686826001600160401b03167f45864a89016c09046f944f856b1f1e73c9d20da43fc9cb3f147274633f6b144688336040516109879291906127f7565b60405180910390a460028560028111156109a3576109a361205d565b036109b1576109b181611482565b60018560028111156109c5576109c561205d565b03610af1576080820151610a2e906101208601356109e660c0880188612526565b80806020026020016040519081016040528093929190818152602001838360200280828437600092019190915250610a2992505050610100890160e08a0161281d565b611581565b610a7a5760405162461bcd60e51b815260206004820152601c60248201527f446973707574653a2062616420696e636c7573696f6e2070726f6f66000000006044820152606401610400565b610120840135610a8e610100860186612386565b604051610a9c92919061283a565b604051809103902014610af15760405162461bcd60e51b815260206004820152601b60248201527f446973707574653a206c6561662068617368206d69736d6174636800000000006044820152606401610400565b95945050505050565b6001546001600160a01b0316331480610b1d57506000546001600160a01b031633145b610b695760405162461bcd60e51b815260206004820152601760248201527f446973707574653a206e6f7420676f7665726e616e63650000000000000000006044820152606401610400565b6001600160401b03841660009081526003602052604090206001600382810154600160881b900460ff1690811115610ba357610ba361205d565b14610be45760405162461bcd60e51b81526020600482015260116024820152702234b9b83aba329d103737ba1037b832b760791b6044820152606401610400565b60026003820154600160801b900460ff166002811115610c0657610c0661205d565b03610c4c5760405162461bcd60e51b8152602060048201526016602482015275446973707574653a206175746f2d7265736f6c76657360501b6044820152606401610400565b610c5885858585611649565b5050505050565b6000546001600160a01b03163314610c895760405162461bcd60e51b81526004016104009061284a565b6001600160a01b038116610cd55760405162461bcd60e51b81526020600482015260136024820152722234b9b83aba329d103d32b9379030b236b4b760691b6044820152606401610400565b600080546001600160a01b0319166001600160a01b0392909216919091179055565b604080516101a080820183526000808352602080840182905283850182905260608085018190526080850183905260a0850181905260c0850181905260e08501839052610100850181905261012085018390526101408501819052610160850183905261018085018390526001600160401b038781168452600483529286902086519485018752805463ffffffff8082168752640100000000820490951693860193909352600160601b909204909216948301949094526001840180549394929391840191610dc5906123d3565b80601f0160208091040260200160405190810160405280929190818152602001828054610df1906123d3565b8015610e3e5780601f10610e1357610100808354040283529160200191610e3e565b820191906000526020600020905b815481529060010190602001808311610e2157829003601f168201915b5050509183525050600282015460070b6020820152600382018054604090920191610e68906123d3565b80601f0160208091040260200160405190810160405280929190818152602001828054610e94906123d3565b8015610ee15780601f10610eb657610100808354040283529160200191610ee1565b820191906000526020600020905b815481529060010190602001808311610ec457829003601f168201915b5050505050815260200160048201805480602002602001604051908101604052809291908181526020018280548015610f3957602002820191906000526020600020905b815481526020019060010190808311610f25575b5050509183525050600582015463ffffffff166020820152600682018054604090920191610f66906123d3565b80601f0160208091040260200160405190810160405280929190818152602001828054610f92906123d3565b8015610fdf5780601f10610fb457610100808354040283529160200191610fdf565b820191906000526020600020905b815481529060010190602001808311610fc257829003601f168201915b5050505050815260200160078201548152602001600882018054611002906123d3565b80601f016020809104026020016040519081016040528092919081815260200182805461102e906123d3565b801561107b5780601f106110505761010080835404028352916020019161107b565b820191906000526020600020905b81548152906001019060200180831161105e57829003601f168201915b505050918352505060099190910154600781900b6020830152600160401b90046001600160401b031660409091015292915050565b6000546001600160a01b031633146110da5760405162461bcd60e51b81526004016104009061284a565b6001600160a01b0381166111305760405162461bcd60e51b815260206004820152601860248201527f446973707574653a207a65726f20676f7665726e616e636500000000000000006044820152606401610400565b600180546001600160a01b0319166001600160a01b0383169081179091556040517fc73be659241aade67e9a059bcf21494955018b213dbd1179054ccf928b13f3b690600090a250565b6040516323b872dd60e01b8152336004820152306024820152604481018290527f00000000000000000000000000000000000000000000000000000000000000006001600160a01b0316906323b872dd906064016020604051808303816000875af11580156111ed573d6000803e3d6000fd5b505050506040513d601f19601f820116820180604052508101906112119190612323565b61125d5760405162461bcd60e51b815260206004820152601d60248201527f446973707574653a2066756e64207472616e73666572206661696c65640000006044820152606401610400565b50565b6000546001600160a01b0316331461128a5760405162461bcd60e51b81526004016104009061284a565b6001600160a01b0381166112d95760405162461bcd60e51b8152602060048201526016602482015275446973707574653a207a65726f20747265617375727960501b6044820152606401610400565b600280546001600160a01b0319166001600160a01b0383169081179091556040517f3c864541ef71378c6229510ed90f376565ee42d9c5e0904a984a9e863e6db44f90600090a250565b611372604080516101208101825260008082526020820181905291810182905260608101829052608081018290529060a082019081526020016000815260006020820181905260409091015290565b6001600160401b0382811660009081526003602081815260409283902083516101208101855281548616815260018201549281019290925260028082015495861694830194909452600160401b9094046001600160a01b03166060820152908301546001600160801b038116608083015290929160a0840191600160801b900460ff16908111156114055761140561205d565b60028111156114165761141661205d565b81526020016003820160119054906101000a900460ff16600381111561143e5761143e61205d565b600381111561144f5761144f61205d565b815260038201546001600160401b03600160901b9091048116602083015260049092015490911660409091015292915050565b6001600160401b03811660009081526003602052604080822060018101549151632e07087560e01b8152600481019290925291907f00000000000000000000000000000000000000000000000000000000000000006001600160a01b031690632e0708759060240161016060405180830381865afa158015611508573d6000803e3d6000fd5b505050506040513d601f19601f8201168201806040525081019061152c91906121fd565b9050600061153d8260600151611c2d565b60408301519091506001600160401b0380831691161415600081611565578360400151611567565b825b90506115798683838760600151611649565b505050505050565b60008363ffffffff8316825b855181101561163c5760008682815181106115aa576115aa612876565b602002602001015190506002836115c191906128a2565b6000036115f9576040805160208101869052908101829052606001604051602081830303815290604052805190602001209350611626565b60408051602081018390529081018590526060016040516020818303038152906040528051906020012093505b6116316002846128b6565b92505060010161158d565b5050909414949350505050565b6001600160401b03841660009081526003602052604090208361166d576003611670565b60025b8160030160116101000a81548160ff021916908360038111156116955761169561205d565b021790555060048101805467ffffffffffffffff1916436001600160401b031617905583156119cf576040516370a0823160e01b815230600482015267d02ab486cedc0000906000907f00000000000000000000000000000000000000000000000000000000000000006001600160a01b0316906370a0823190602401602060405180830381865afa15801561172f573d6000803e3d6000fd5b505050506040513d601f19601f8201168201806040525081019061175391906128ca565b9050816001600160801b031681101561176a578091505b600283015460405163a9059cbb60e01b8152600160401b9091046001600160a01b0390811660048301526001600160801b03841660248301527f0000000000000000000000000000000000000000000000000000000000000000169063a9059cbb906044016020604051808303816000875af11580156117ee573d6000803e3d6000fd5b505050506040513d601f19601f820116820180604052508101906118129190612323565b61185e5760405162461bcd60e51b815260206004820152601f60248201527f446973707574653a20726577617264207472616e73666572206661696c6564006044820152606401610400565b6002830154604080516001600160801b0385168152600160401b9092046001600160a01b031660208301526001600160401b038916917f7d4a3fbebf3718049a7759ec8807c04bf8eec191626bfd3ea88cac493e3cc0a3910160405180910390a26001838101546040516326d27d0760e01b8152600481019190915260248101919091526001600160401b0386166044820152600785900b60648201527f00000000000000000000000000000000000000000000000000000000000000006001600160a01b0316906326d27d0790608401600060405180830381600087803b15801561194957600080fd5b505af115801561195d573d6000803e3d6000fd5b50505060028401546040516001600160401b0390911691507fbf634a220e36423de09f63d7169ee211f57ad8bf687dc02062a618c1bf7ac8a2906119c0906020808252600b908201526a3234b9b83aba32afbbb7b760a91b604082015260600190565b60405180910390a25050611bb6565b600254600382015460405163a9059cbb60e01b81526001600160a01b0392831660048201526001600160801b0390911660248201527f00000000000000000000000000000000000000000000000000000000000000009091169063a9059cbb906044016020604051808303816000875af1158015611a51573d6000803e3d6000fd5b505050506040513d601f19601f82011682018060405250810190611a759190612323565b611ac15760405162461bcd60e51b815260206004820152601d60248201527f446973707574653a20626f6e64207472616e73666572206661696c65640000006044820152606401610400565b6003810154600254604080516001600160801b0390931683526001600160a01b0390911660208301526001600160401b038716917fb6ed3fcf3ff296179f90192429785de957aea2aa5df11bbdae1c82fb22299fb7910160405180910390a260018101546040516326d27d0760e01b815260048101919091526000602482018190526044820181905260648201527f00000000000000000000000000000000000000000000000000000000000000006001600160a01b0316906326d27d0790608401600060405180830381600087803b158015611b9d57600080fd5b505af1158015611bb1573d6000803e3d6000fd5b505050505b60028101546001600160401b03908116600090815260056020908152604091829020805467ffffffffffffffff1916905560018401548251881515815291820152918716917fb9413dd96a8caf5943512d4427e653f47650f846161e49a14a9e487174a7eeef910160405180910390a25050505050565b6000808260070b13611c4157506000919050565b6101f48260070b12611c565750610352919050565b8160326001600160401b0382161015611c87576032611c768260646128e3565b611c809190612906565b9392505050565b6064816001600160401b03161015611cc5576032611ca5818361292c565b611cb09060646128e3565b611cba9190612906565b611c809060646122fc565b60fa816001600160401b03161015611d05576096611ce460648361292c565b611cf09061012c6128e3565b611cfa9190612906565b611c809060c86122fc565b60fa611d11818361292c565b611d1d9061015e6128e3565b611d279190612906565b611c80906101f46122fc565b600080600060608486031215611d4857600080fd5b83359250602084013560038110611d5e57600080fd5b915060408401356001600160401b03811115611d7957600080fd5b84016101a08187031215611d8c57600080fd5b809150509250925092565b6001600160401b038116811461125d57600080fd5b801515811461125d57600080fd5b8060070b811461125d57600080fd5b60008060008060808587031215611ddf57600080fd5b8435611dea81611d97565b93506020850135611dfa81611dac565b92506040850135611e0a81611d97565b91506060850135611e1a81611dba565b939692955090935050565b6001600160a01b038116811461125d57600080fd5b600060208284031215611e4c57600080fd5b8135611c8081611e25565b600060208284031215611e6957600080fd5b8135611c8081611d97565b6000815180845260005b81811015611e9a57602081850181015186830182015201611e7e565b506000602082860101526020601f19601f83011685010191505092915050565b60008151808452602080850194506020840160005b83811015611eeb57815187529582019590820190600101611ecf565b509495945050505050565b60208152611f0d60208201835163ffffffff169052565b60006020830151611f2960408401826001600160401b03169052565b50604083015163ffffffff811660608401525060608301516101a0806080850152611f586101c0850183611e74565b91506080850151611f6e60a086018260070b9052565b5060a0850151601f19808685030160c0870152611f8b8483611e74565b935060c08701519150808685030160e0870152611fa88483611eba565b935060e08701519150610100611fc58188018463ffffffff169052565b80880151925050610120818786030181880152611fe28584611e74565b9450808801519250506101408281880152808801519250506101608187860301818801526120108584611e74565b9450808801519250505061018061202b8187018360070b9052565b909501516001600160401b031693019290925250919050565b60006020828403121561205657600080fd5b5035919050565b634e487b7160e01b600052602160045260246000fd5b600381106120835761208361205d565b9052565b600481106120835761208361205d565b6000610120820190506001600160401b03808451168352602084015160208401528060408501511660408401525060608301516120df60608401826001600160a01b03169052565b5060808301516120fa60808401826001600160801b03169052565b5060a083015161210d60a0840182612073565b5060c083015161212060c0840182612087565b5060e083015161213b60e08401826001600160401b03169052565b50610100838101516001600160401b038116848301525b505092915050565b634e487b7160e01b600052604160045260246000fd5b60405161016081016001600160401b03811182821017156121935761219361215a565b60405290565b80516121a481611d97565b919050565b80516121a481611dba565b63ffffffff8116811461125d57600080fd5b80516121a4816121b4565b805161ffff811681146121a457600080fd5b80516121a481611e25565b8051600681106121a457600080fd5b6000610160828403121561221057600080fd5b612218612170565b61222183612199565b81526020830151602082015261223960408401612199565b604082015261224a606084016121a9565b60608201526080830151608082015261226560a084016121c6565b60a082015261227660c08401612199565b60c082015261228760e084016121d1565b60e082015261010061229a818501612199565b908201526101206122ac8482016121e3565b908201526101406122be8482016121ee565b908201529392505050565b6000602082840312156122db57600080fd5b8151611c8081611d97565b634e487b7160e01b600052601160045260246000fd5b6001600160401b0381811683821601908082111561231c5761231c6122e6565b5092915050565b60006020828403121561233557600080fd5b8151611c8081611dac565b60006001600160401b0380831681810361235c5761235c6122e6565b6001019392505050565b60008135612373816121b4565b92915050565b6000813561237381611d97565b6000808335601e1984360301811261239d57600080fd5b8301803591506001600160401b038211156123b757600080fd5b6020019150368190038213156123cc57600080fd5b9250929050565b600181811c908216806123e757607f821691505b60208210810361240757634e487b7160e01b600052602260045260246000fd5b50919050565b601f821115612455576000816000526020600020601f850160051c810160208610156124365750805b601f850160051c820191505b8181101561157957828155600101612442565b505050565b6001600160401b038311156124715761247161215a565b6124858361247f83546123d3565b8361240d565b6000601f8411600181146124b957600085156124a15750838201355b600019600387901b1c1916600186901b178355610c58565b600083815260209020601f19861690835b828110156124ea57868501358255602094850194600190920191016124ca565b50868210156125075760001960f88860031b161c19848701351681555b505060018560011b0183555050505050565b6000813561237381611dba565b6000808335601e1984360301811261253d57600080fd5b8301803591506001600160401b0382111561255757600080fd5b6020019150600581901b36038213156123cc57600080fd5b6001600160401b038311156125865761258661215a565b600160401b83111561259a5761259a61215a565b8054838255808410156125d1576000828152602081208581019083015b808210156125cd578282556001820191506125b7565b5050505b5060008181526020812083915b85811015611579578235828201556020909201916001016125de565b61261d61260683612366565b825463ffffffff191663ffffffff91909116178255565b61265661262c60208401612379565b82546bffffffffffffffff00000000191660209190911b6bffffffffffffffff0000000016178255565b61268961266560408401612366565b82805463ffffffff60601b191660609290921b63ffffffff60601b16919091179055565b6126966060830183612386565b6126a481836001860161245a565b50506126d86126b560808401612519565b600283016001600160401b0319815416826001600160401b031681178255505050565b6126e560a0830183612386565b6126f381836003860161245a565b505061270260c0830183612526565b61271081836004860161256f565b505061273c61272160e08401612366565b6005830163ffffffff821663ffffffff198254161781555050565b61274a610100830183612386565b61275881836006860161245a565b50506101208201356007820155612773610140830183612386565b61278181836008860161245a565b5050600981016127b56127976101608501612519565b825467ffffffffffffffff19166001600160401b0391909116178255565b6124556127c56101808501612379565b82546fffffffffffffffff0000000000000000191660409190911b6fffffffffffffffff000000000000000016178255565b604081016128058285612073565b6001600160a01b039290921660209190910152919050565b60006020828403121561282f57600080fd5b8135611c80816121b4565b8183823760009101908152919050565b6020808252601290820152712234b9b83aba329d103737ba1030b236b4b760711b604082015260600190565b634e487b7160e01b600052603260045260246000fd5b634e487b7160e01b600052601260045260246000fd5b6000826128b1576128b161288c565b500690565b6000826128c5576128c561288c565b500490565b6000602082840312156128dc57600080fd5b5051919050565b6001600160401b03818116838216028082169190828114612152576121526122e6565b60006001600160401b03808416806129205761292061288c565b92169190910492915050565b6001600160401b0382811682821603908082111561231c5761231c6122e656fea26469706673582212204ff57ca2c2aa39728f1070708f0a2f3dddc847d8e29f9432b55099c0692fcd4964736f6c63430008180033",
  "linkReferences": {},
  "deployedLinkReferences": {}
}