{"contracts/StakingVault.sol":{"StakingVault":{"abi":[{"inputs":[{"internalType":"address","name":"_admin","type":"address"},{"internalType":"address","name":"_stablecoin","type":"address"},{"internalType":"address","name":"_pointsLedger","type":"address"}],"stateMutability":"nonpayable","type":"constructor"},{"anonymous":false,"inputs":[{"indexed":true,"internalType":"bytes32","name":"popId","type":"bytes32"},{"indexed":false,"internalType":"uint128","name":"amount","type":"uint128"},{"indexed":false,"internalType":"uint64","name":"stakedAt","type":"uint64"}],"name":"Staked","type":"event"},{"anonymous":false,"inputs":[{"indexed":true,"internalType":"bytes32","name":"popId","type":"bytes32"},{"indexed":false,"internalType":"uint128","name":"amount","type":"uint128"},{"indexed":false,"internalType":"uint64","name":"unstakedAt","type":"uint64"}],"name":"Unstaked","type":"event"},{"anonymous":false,"inputs":[{"indexed":true,"internalType":"address","name":"vouchRegistry","type":"address"}],"name":"VouchRegistrySet","type":"event"},{"inputs":[],"name":"LOCK_DURATION","outputs":[{"internalType":"uint64","name":"","type":"uint64"}],"stateMutability":"view","type":"function"},{"inputs":[],"name":"MINIMUM_STAKE","outputs":[{"internalType":"uint128","name":"","type":"uint128"}],"stateMutability":"view","type":"function"},{"inputs":[],"name":"STAKE_DEPOSIT_POINTS","outputs":[{"internalType":"uint64","name":"","type":"uint64"}],"stateMutability":"view","type":"function"},{"inputs":[],"name":"admin","outputs":[{"internalType":"address","name":"","type":"address"}],"stateMutability":"view","type":"function"},{"inputs":[{"internalType":"bytes32","name":"popId","type":"bytes32"}],"name":"extendLock","outputs":[],"stateMutability":"nonpayable","type":"function"},{"inputs":[{"internalType":"bytes32","name":"popId","type":"bytes32"}],"name":"getStake","outputs":[{"components":[{"internalType":"uint128","name":"amount","type":"uint128"},{"internalType":"uint64","name":"stakedAt","type":"uint64"},{"internalType":"uint64","name":"lockUntil","type":"uint64"},{"internalType":"bool","name":"isLocked","type":"bool"}],"internalType":"struct IStakingVault.StakeRecord","name":"","type":"tuple"}],"stateMutability":"view","type":"function"},{"inputs":[{"internalType":"bytes32","name":"popId","type":"bytes32"}],"name":"hasActiveStake","outputs":[{"internalType":"bool","name":"","type":"bool"}],"stateMutability":"view","type":"function"},{"inputs":[],"name":"pointsLedger","outputs":[{"internalType":"contract IPointsLedger","name":"","type":"address"}],"stateMutability":"view","type":"function"},{"inputs":[{"internalType":"bytes32","name":"popId","type":"bytes32"}],"name":"releaseLock","outputs":[],"stateMutability":"nonpayable","type":"function"},{"inputs":[{"internalType":"address","name":"_vouchRegistry","type":"address"}],"name":"setVouchRegistry","outputs":[],"stateMutability":"nonpayable","type":"function"},{"inputs":[],"name":"stablecoin","outputs":[{"internalType":"contract IERC20","name":"","type":"address"}],"stateMutability":"view","type":"function"},{"inputs":[{"internalType":"uint128","name":"amount","type":"uint128"}],"name":"stake","outputs":[],"stateMutability":"nonpayable","type":"function"},{"inputs":[{"internalType":"address","name":"newAdmin","type":"address"}],"name":"transferAdmin","outputs":[],"stateMutability":"nonpayable","type":"function"},{"inputs":[],"name":"unstake","outputs":[],"stateMutability":"nonpayable","type":"function"},{"inputs":[],"name":"vouchRegistry","outputs":[{"internalType":"address","name":"","type":"address"}],"stateMutability":"view","type":"function"}],"evm":{"bytecode":{"linkReferences":{},"object":"60c0604052600160025534801561001557600080fd5b506040516200103d3803806200103d83398101604081905261003691610184565b6001600160a01b0383166100915760405162461bcd60e51b815260206004820152601860248201527f5374616b696e675661756c743a207a65726f2061646d696e000000000000000060448201526064015b60405180910390fd5b6001600160a01b0382166100e75760405162461bcd60e51b815260206004820152601960248201527f5374616b696e675661756c743a207a65726f20737461626c65000000000000006044820152606401610088565b6001600160a01b03811661013d5760405162461bcd60e51b815260206004820152601960248201527f5374616b696e675661756c743a207a65726f206c6564676572000000000000006044820152606401610088565b600080546001600160a01b0319166001600160a01b039485161790559082166080521660a0526101c7565b80516001600160a01b038116811461017f57600080fd5b919050565b60008060006060848603121561019957600080fd5b6101a284610168565b92506101b060208501610168565b91506101be60408501610168565b90509250925092565b60805160a051610e3b62000202600039600081816101e80152610b2c0152600081816103320152818161055901526109590152610e3b6000f3fe608060405234801561001057600080fd5b50600436106100f55760003560e01c806388fe2be811610097578063e5f062bb11610066578063e5f062bb14610235578063e765c12214610248578063e9cbd8221461032d578063f851a4401461035457600080fd5b806388fe2be8146101bd5780639848e545146101d0578063a33e7faf146101e3578063aa618fb61461022257600080fd5b8063485d3834116100d3578063485d3834146101525780636c57966d1461015c57806375829def1461016f57806382e141451461018257600080fd5b806308dbbb03146100fa57806312dceb47146101275780632def662014610148575b600080fd5b61010a6802b5e3af16b188000081565b6040516001600160801b0390911681526020015b60405180910390f35b61012f600a81565b60405167ffffffffffffffff909116815260200161011e565b610150610367565b005b61012f6201fa4081565b61015061016a366004610d3b565b610674565b61015061017d366004610d54565b61074b565b6101ad610190366004610d3b565b6000908152600360205260409020546001600160801b0316151590565b604051901515815260200161011e565b6101506101cb366004610d84565b610817565b6101506101de366004610d3b565b610bd2565b61020a7f000000000000000000000000000000000000000000000000000000000000000081565b6040516001600160a01b03909116815260200161011e565b60015461020a906001600160a01b031681565b610150610243366004610d54565b610c47565b6102e0610256366004610d3b565b60408051608081018252600080825260208201819052918101829052606081019190915250600090815260036020908152604091829020825160808101845281546001600160801b038116825267ffffffffffffffff600160801b8204811694830194909452600160c01b90049092169282019290925260019091015460ff161515606082015290565b6040805182516001600160801b0316815260208084015167ffffffffffffffff9081169183019190915283830151169181019190915260609182015115159181019190915260800161011e565b61020a7f000000000000000000000000000000000000000000000000000000000000000081565b60005461020a906001600160a01b031681565b6002546001146103b85760405162461bcd60e51b815260206004820152601760248201527614dd185ada5b99d5985d5b1d0e881c99595b9d1c985b9d604a1b60448201526064015b60405180910390fd5b6002805533600081815260036020908152604091829020825160808101845281546001600160801b03811680835267ffffffffffffffff600160801b8304811695840195909552600160c01b909104909316938101939093526001015460ff16151560608301526104645760405162461bcd60e51b81526020600482015260166024820152755374616b696e675661756c743a206e6f207374616b6560501b60448201526064016103af565b806040015167ffffffffffffffff164310156104c25760405162461bcd60e51b815260206004820152601a60248201527f5374616b696e675661756c743a207374696c6c206c6f636b656400000000000060448201526064016103af565b8060600151156105145760405162461bcd60e51b815260206004820152601c60248201527f5374616b696e675661756c743a2061637469766520766f75636865730000000060448201526064016103af565b6000828152600360205260408082209182556001909101805460ff191690558151905163a9059cbb60e01b81523360048201526001600160801b0390911660248201527f00000000000000000000000000000000000000000000000000000000000000006001600160a01b03169063a9059cbb906044016020604051808303816000875af11580156105aa573d6000803e3d6000fd5b505050506040513d601f19601f820116820180604052508101906105ce9190610dad565b61061a5760405162461bcd60e51b815260206004820152601d60248201527f5374616b696e675661756c743a207472616e73666572206661696c656400000060448201526064016103af565b8051604080516001600160801b03909216825267ffffffffffffffff4316602083015283917fd25cda7ec2005bae11fe142a33195b9f64bcc514352cf8aa1b514be779fd76d791015b60405180910390a250506001600255565b6001546001600160a01b031633146106ce5760405162461bcd60e51b815260206004820181905260248201527f5374616b696e675661756c743a206e6f7420766f75636820726567697374727960448201526064016103af565b6000818152600360205260409020546001600160801b031661072b5760405162461bcd60e51b81526020600482015260166024820152755374616b696e675661756c743a206e6f207374616b6560501b60448201526064016103af565b60009081526003602052604090206001908101805460ff19169091179055565b6000546001600160a01b0316331461079f5760405162461bcd60e51b815260206004820152601760248201527629ba30b5b4b733ab30bab63a1d103737ba1030b236b4b760491b60448201526064016103af565b6001600160a01b0381166107f55760405162461bcd60e51b815260206004820152601860248201527f5374616b696e675661756c743a207a65726f2061646d696e000000000000000060448201526064016103af565b600080546001600160a01b0319166001600160a01b0392909216919091179055565b6002546001146108635760405162461bcd60e51b815260206004820152601760248201527614dd185ada5b99d5985d5b1d0e881c99595b9d1c985b9d604a1b60448201526064016103af565b60028055336802b5e3af16b18800006001600160801b03831610156108ca5760405162461bcd60e51b815260206004820152601b60248201527f5374616b696e675661756c743a2062656c6f77206d696e696d756d000000000060448201526064016103af565b6000818152600360205260409020546001600160801b03161561092f5760405162461bcd60e51b815260206004820152601c60248201527f5374616b696e675661756c743a20616c7265616479207374616b65640000000060448201526064016103af565b6040516323b872dd60e01b81523360048201523060248201526001600160801b03831660448201527f00000000000000000000000000000000000000000000000000000000000000006001600160a01b0316906323b872dd906064016020604051808303816000875af11580156109aa573d6000803e3d6000fd5b505050506040513d601f19601f820116820180604052508101906109ce9190610dad565b610a1a5760405162461bcd60e51b815260206004820152601d60248201527f5374616b696e675661756c743a207472616e73666572206661696c656400000060448201526064016103af565b6040518060800160405280836001600160801b031681526020014367ffffffffffffffff1681526020016201fa4043610a539190610dcf565b67ffffffffffffffff908116825260006020928301819052848152600383526040908190208451815494860151868401518516600160c01b026001600160c01b0391909516600160801b026001600160c01b03199096166001600160801b039092169190911794909417939093169190911782556060928301516001909201805492151560ff1990931692909217909155516330f5881b60e11b815260048101839052600a60248201526044810191909152600d60648201526c1cdd185ad957d9195c1bdcda5d609a1b60848201526001600160a01b037f000000000000000000000000000000000000000000000000000000000000000016906361eb10369060a401600060405180830381600087803b158015610b7057600080fd5b505af1158015610b84573d6000803e3d6000fd5b5050604080516001600160801b038616815267ffffffffffffffff431660208201528493507f844fdcebbba4a19d4207dbae24408dab38c1f2ae82d1fa3d82fe434335cfd3b9925001610663565b6001546001600160a01b03163314610c2c5760405162461bcd60e51b815260206004820181905260248201527f5374616b696e675661756c743a206e6f7420766f75636820726567697374727960448201526064016103af565b6000908152600360205260409020600101805460ff19169055565b6000546001600160a01b03163314610c9b5760405162461bcd60e51b815260206004820152601760248201527629ba30b5b4b733ab30bab63a1d103737ba1030b236b4b760491b60448201526064016103af565b6001600160a01b038116610cf15760405162461bcd60e51b815260206004820152601b60248201527f5374616b696e675661756c743a207a65726f207265676973747279000000000060448201526064016103af565b600180546001600160a01b0319166001600160a01b0383169081179091556040517fb7f6c1c608fdcdf6258c32aa36d88f01dd96fb120a86e5664c338e201c3a803690600090a250565b600060208284031215610d4d57600080fd5b5035919050565b600060208284031215610d6657600080fd5b81356001600160a01b0381168114610d7d57600080fd5b9392505050565b600060208284031215610d9657600080fd5b81356001600160801b0381168114610d7d57600080fd5b600060208284031215610dbf57600080fd5b81518015158114610d7d57600080fd5b67ffffffffffffffff818116838216019080821115610dfe57634e487b7160e01b600052601160045260246000fd5b509291505056fea2646970667358221220685b1e192ac7b6988cc7f4f6a351df54893363baf8d4a2d4b087c95f7d4d1ccf64736f6c63430008180033","opcodes":"PUSH1 0xC0 PUSH1 0x40 MSTORE PUSH1 0x1 PUSH1 0x2 SSTORE CALLVALUE DUP1 ISZERO PUSH2 0x15 JUMPI PUSH1 0x0 DUP1 REVERT JUMPDEST POP PUSH1 0x40 MLOAD PUSH3 0x103D CODESIZE SUB DUP1 PUSH3 0x103D DUP4 CODECOPY DUP2 ADD PUSH1 0x40 DUP2 SWAP1 MSTORE PUSH2 0x36 SWAP2 PUSH2 0x184 JUMP JUMPDEST PUSH1 0x1 PUSH1 0x1 PUSH1 0xA0 SHL SUB DUP4 AND PUSH2 0x91 JUMPI PUSH1 0x40 MLOAD PUSH3 0x461BCD PUSH1 0xE5 SHL DUP2 MSTORE PUSH1 0x20 PUSH1 0x4 DUP3 ADD MSTORE PUSH1 0x18 PUSH1 0x24 DUP3 ADD MSTORE PUSH32 0x5374616B696E675661756C743A207A65726F2061646D696E0000000000000000 PUSH1 0x44 DUP3 ADD MSTORE PUSH1 0x64 ADD JUMPDEST PUSH1 0x40 MLOAD DUP1 SWAP2 SUB SWAP1 REVERT JUMPDEST PUSH1 0x1 PUSH1 0x1 PUSH1 0xA0 SHL SUB DUP3 AND PUSH2 0xE7 JUMPI PUSH1 0x40 MLOAD PUSH3 0x461BCD PUSH1 0xE5 SHL DUP2 MSTORE PUSH1 0x20 PUSH1 0x4 DUP3 ADD MSTORE PUSH1 0x19 PUSH1 0x24 DUP3 ADD MSTORE PUSH32 0x5374616B696E675661756C743A207A65726F20737461626C6500000000000000 PUSH1 0x44 DUP3 ADD MSTORE PUSH1 0x64 ADD PUSH2 0x88 JUMP JUMPDEST PUSH1 0x1 PUSH1 0x1 PUSH1 0xA0 SHL SUB DUP2 AND PUSH2 0x13D JUMPI PUSH1 0x40 MLOAD PUSH3 0x461BCD PUSH1 0xE5 SHL DUP2 MSTORE PUSH1 0x20 PUSH1 0x4 DUP3 ADD MSTORE PUSH1 0x19 PUSH1 0x24 DUP3 ADD MSTORE PUSH32 0x5374616B696E675661756C743A207A65726F206C656467657200000000000000 PUSH1 0x44 DUP3 ADD MSTORE PUSH1 0x64 ADD PUSH2 0x88 JUMP JUMPDEST PUSH1 0x0 DUP1 SLOAD PUSH1 0x1 PUSH1 0x1 PUSH1 0xA0 SHL SUB NOT AND PUSH1 0x1 PUSH1 0x1 PUSH1 0xA0 SHL SUB SWAP5 DUP6 AND OR SWAP1 SSTORE SWAP1 DUP3 AND PUSH1 0x80 MSTORE AND PUSH1 0xA0 MSTORE PUSH2 0x1C7 JUMP JUMPDEST DUP1 MLOAD PUSH1 0x1 PUSH1 0x1 PUSH1 0xA0 SHL SUB DUP2 AND DUP2 EQ PUSH2 0x17F JUMPI PUSH1 0x0 DUP1 REVERT JUMPDEST SWAP2 SWAP1 POP JUMP JUMPDEST PUSH1 0x0 DUP1 PUSH1 0x0 PUSH1 0x60 DUP5 DUP7 SUB SLT ISZERO PUSH2 0x199 JUMPI PUSH1 0x0 DUP1 REVERT JUMPDEST PUSH2 0x1A2 DUP5 PUSH2 0x168 JUMP JUMPDEST SWAP3 POP PUSH2 0x1B0 PUSH1 0x20 DUP6 ADD PUSH2 0x168 JUMP JUMPDEST SWAP2 POP PUSH2 0x1BE PUSH1 0x40 DUP6 ADD PUSH2 0x168 JUMP JUMPDEST SWAP1 POP SWAP3 POP SWAP3 POP SWAP3 JUMP JUMPDEST PUSH1 0x80 MLOAD PUSH1 0xA0 MLOAD PUSH2 0xE3B PUSH3 0x202 PUSH1 0x0 CODECOPY PUSH1 0x0 DUP2 DUP2 PUSH2 0x1E8 ADD MSTORE PUSH2 0xB2C ADD MSTORE PUSH1 0x0 DUP2 DUP2 PUSH2 0x332 ADD MSTORE DUP2 DUP2 PUSH2 0x559 ADD MSTORE PUSH2 0x959 ADD MSTORE PUSH2 0xE3B PUSH1 0x0 RETURN INVALID PUSH1 0x80 PUSH1 0x40 MSTORE CALLVALUE DUP1 ISZERO PUSH2 0x10 JUMPI PUSH1 0x0 DUP1 REVERT JUMPDEST POP PUSH1 0x4 CALLDATASIZE LT PUSH2 0xF5 JUMPI PUSH1 0x0 CALLDATALOAD PUSH1 0xE0 SHR DUP1 PUSH4 0x88FE2BE8 GT PUSH2 0x97 JUMPI DUP1 PUSH4 0xE5F062BB GT PUSH2 0x66 JUMPI DUP1 PUSH4 0xE5F062BB EQ PUSH2 0x235 JUMPI DUP1 PUSH4 0xE765C122 EQ PUSH2 0x248 JUMPI DUP1 PUSH4 0xE9CBD822 EQ PUSH2 0x32D JUMPI DUP1 PUSH4 0xF851A440 EQ PUSH2 0x354 JUMPI PUSH1 0x0 DUP1 REVERT JUMPDEST DUP1 PUSH4 0x88FE2BE8 EQ PUSH2 0x1BD JUMPI DUP1 PUSH4 0x9848E545 EQ PUSH2 0x1D0 JUMPI DUP1 PUSH4 0xA33E7FAF EQ PUSH2 0x1E3 JUMPI DUP1 PUSH4 0xAA618FB6 EQ PUSH2 0x222 JUMPI PUSH1 0x0 DUP1 REVERT JUMPDEST DUP1 PUSH4 0x485D3834 GT PUSH2 0xD3 JUMPI DUP1 PUSH4 0x485D3834 EQ PUSH2 0x152 JUMPI DUP1 PUSH4 0x6C57966D EQ PUSH2 0x15C JUMPI DUP1 PUSH4 0x75829DEF EQ PUSH2 0x16F JUMPI DUP1 PUSH4 0x82E14145 EQ PUSH2 0x182 JUMPI PUSH1 0x0 DUP1 REVERT JUMPDEST DUP1 PUSH4 0x8DBBB03 EQ PUSH2 0xFA JUMPI DUP1 PUSH4 0x12DCEB47 EQ PUSH2 0x127 JUMPI DUP1 PUSH4 0x2DEF6620 EQ PUSH2 0x148 JUMPI JUMPDEST PUSH1 0x0 DUP1 REVERT JUMPDEST PUSH2 0x10A PUSH9 0x2B5E3AF16B1880000 DUP2 JUMP JUMPDEST PUSH1 0x40 MLOAD PUSH1 0x1 PUSH1 0x1 PUSH1 0x80 SHL SUB SWAP1 SWAP2 AND DUP2 MSTORE PUSH1 0x20 ADD JUMPDEST PUSH1 0x40 MLOAD DUP1 SWAP2 SUB SWAP1 RETURN JUMPDEST PUSH2 0x12F PUSH1 0xA DUP2 JUMP JUMPDEST PUSH1 0x40 MLOAD PUSH8 0xFFFFFFFFFFFFFFFF SWAP1 SWAP2 AND DUP2 MSTORE PUSH1 0x20 ADD PUSH2 0x11E JUMP JUMPDEST PUSH2 0x150 PUSH2 0x367 JUMP JUMPDEST STOP JUMPDEST PUSH2 0x12F PUSH3 0x1FA40 DUP2 JUMP JUMPDEST PUSH2 0x150 PUSH2 0x16A CALLDATASIZE PUSH1 0x4 PUSH2 0xD3B JUMP JUMPDEST PUSH2 0x674 JUMP JUMPDEST PUSH2 0x150 PUSH2 0x17D CALLDATASIZE PUSH1 0x4 PUSH2 0xD54 JUMP JUMPDEST PUSH2 0x74B JUMP JUMPDEST PUSH2 0x1AD PUSH2 0x190 CALLDATASIZE PUSH1 0x4 PUSH2 0xD3B JUMP JUMPDEST PUSH1 0x0 SWAP1 DUP2 MSTORE PUSH1 0x3 PUSH1 0x20 MSTORE PUSH1 0x40 SWAP1 KECCAK256 SLOAD PUSH1 0x1 PUSH1 0x1 PUSH1 0x80 SHL SUB AND ISZERO ISZERO SWAP1 JUMP JUMPDEST PUSH1 0x40 MLOAD SWAP1 ISZERO ISZERO DUP2 MSTORE PUSH1 0x20 ADD PUSH2 0x11E JUMP JUMPDEST PUSH2 0x150 PUSH2 0x1CB CALLDATASIZE PUSH1 0x4 PUSH2 0xD84 JUMP JUMPDEST PUSH2 0x817 JUMP JUMPDEST PUSH2 0x150 PUSH2 0x1DE CALLDATASIZE PUSH1 0x4 PUSH2 0xD3B JUMP JUMPDEST PUSH2 0xBD2 JUMP JUMPDEST PUSH2 0x20A PUSH32 0x0 DUP2 JUMP JUMPDEST PUSH1 0x40 MLOAD PUSH1 0x1 PUSH1 0x1 PUSH1 0xA0 SHL SUB SWAP1 SWAP2 AND DUP2 MSTORE PUSH1 0x20 ADD PUSH2 0x11E JUMP JUMPDEST PUSH1 0x1 SLOAD PUSH2 0x20A SWAP1 PUSH1 0x1 PUSH1 0x1 PUSH1 0xA0 SHL SUB AND DUP2 JUMP JUMPDEST PUSH2 0x150 PUSH2 0x243 CALLDATASIZE PUSH1 0x4 PUSH2 0xD54 JUMP JUMPDEST PUSH2 0xC47 JUMP JUMPDEST PUSH2 0x2E0 PUSH2 0x256 CALLDATASIZE PUSH1 0x4 PUSH2 0xD3B JUMP JUMPDEST PUSH1 0x40 DUP1 MLOAD PUSH1 0x80 DUP2 ADD DUP3 MSTORE PUSH1 0x0 DUP1 DUP3 MSTORE PUSH1 0x20 DUP3 ADD DUP2 SWAP1 MSTORE SWAP2 DUP2 ADD DUP3 SWAP1 MSTORE PUSH1 0x60 DUP2 ADD SWAP2 SWAP1 SWAP2 MSTORE POP PUSH1 0x0 SWAP1 DUP2 MSTORE PUSH1 0x3 PUSH1 0x20 SWAP1 DUP2 MSTORE PUSH1 0x40 SWAP2 DUP3 SWAP1 KECCAK256 DUP3 MLOAD PUSH1 0x80 DUP2 ADD DUP5 MSTORE DUP2 SLOAD PUSH1 0x1 PUSH1 0x1 PUSH1 0x80 SHL SUB DUP2 AND DUP3 MSTORE PUSH8 0xFFFFFFFFFFFFFFFF PUSH1 0x1 PUSH1 0x80 SHL DUP3 DIV DUP2 AND SWAP5 DUP4 ADD SWAP5 SWAP1 SWAP5 MSTORE PUSH1 0x1 PUSH1 0xC0 SHL SWAP1 DIV SWAP1 SWAP3 AND SWAP3 DUP3 ADD SWAP3 SWAP1 SWAP3 MSTORE PUSH1 0x1 SWAP1 SWAP2 ADD SLOAD PUSH1 0xFF AND ISZERO ISZERO PUSH1 0x60 DUP3 ADD MSTORE SWAP1 JUMP JUMPDEST PUSH1 0x40 DUP1 MLOAD DUP3 MLOAD PUSH1 0x1 PUSH1 0x1 PUSH1 0x80 SHL SUB AND DUP2 MSTORE PUSH1 0x20 DUP1 DUP5 ADD MLOAD PUSH8 0xFFFFFFFFFFFFFFFF SWAP1 DUP2 AND SWAP2 DUP4 ADD SWAP2 SWAP1 SWAP2 MSTORE DUP4 DUP4 ADD MLOAD AND SWAP2 DUP2 ADD SWAP2 SWAP1 SWAP2 MSTORE PUSH1 0x60 SWAP2 DUP3 ADD MLOAD ISZERO ISZERO SWAP2 DUP2 ADD SWAP2 SWAP1 SWAP2 MSTORE PUSH1 0x80 ADD PUSH2 0x11E JUMP JUMPDEST PUSH2 0x20A PUSH32 0x0 DUP2 JUMP JUMPDEST PUSH1 0x0 SLOAD PUSH2 0x20A SWAP1 PUSH1 0x1 PUSH1 0x1 PUSH1 0xA0 SHL SUB AND DUP2 JUMP JUMPDEST PUSH1 0x2 SLOAD PUSH1 0x1 EQ PUSH2 0x3B8 JUMPI PUSH1 0x40 MLOAD PUSH3 0x461BCD PUSH1 0xE5 SHL DUP2 MSTORE PUSH1 0x20 PUSH1 0x4 DUP3 ADD MSTORE PUSH1 0x17 PUSH1 0x24 DUP3 ADD MSTORE PUSH23 0x14DD185ADA5B99D5985D5B1D0E881C99595B9D1C985B9D PUSH1 0x4A SHL PUSH1 0x44 DUP3 ADD MSTORE PUSH1 0x64 ADD JUMPDEST PUSH1 0x40 MLOAD DUP1 SWAP2 SUB SWAP1 REVERT JUMPDEST PUSH1 0x2 DUP1 SSTORE CALLER PUSH1 0x0 DUP2 DUP2 MSTORE PUSH1 0x3 PUSH1 0x20 SWAP1 DUP2 MSTORE PUSH1 0x40 SWAP2 DUP3 SWAP1 KECCAK256 DUP3 MLOAD PUSH1 0x80 DUP2 ADD DUP5 MSTORE DUP2 SLOAD PUSH1 0x1 PUSH1 0x1 PUSH1 0x80 SHL SUB DUP2 AND DUP1 DUP4 MSTORE PUSH8 0xFFFFFFFFFFFFFFFF PUSH1 0x1 PUSH1 0x80 SHL DUP4 DIV DUP2 AND SWAP6 DUP5 ADD SWAP6 SWAP1 SWAP6 MSTORE PUSH1 0x1 PUSH1 0xC0 SHL SWAP1 SWAP2 DIV SWAP1 SWAP4 AND SWAP4 DUP2 ADD SWAP4 SWAP1 SWAP4 MSTORE PUSH1 0x1 ADD SLOAD PUSH1 0xFF AND ISZERO ISZERO PUSH1 0x60 DUP4 ADD MSTORE PUSH2 0x464 JUMPI PUSH1 0x40 MLOAD PUSH3 0x461BCD PUSH1 0xE5 SHL DUP2 MSTORE PUSH1 0x20 PUSH1 0x4 DUP3 ADD MSTORE PUSH1 0x16 PUSH1 0x24 DUP3 ADD MSTORE PUSH22 0x5374616B696E675661756C743A206E6F207374616B65 PUSH1 0x50 SHL PUSH1 0x44 DUP3 ADD MSTORE PUSH1 0x64 ADD PUSH2 0x3AF JUMP JUMPDEST DUP1 PUSH1 0x40 ADD MLOAD PUSH8 0xFFFFFFFFFFFFFFFF AND NUMBER LT ISZERO PUSH2 0x4C2 JUMPI PUSH1 0x40 MLOAD PUSH3 0x461BCD PUSH1 0xE5 SHL DUP2 MSTORE PUSH1 0x20 PUSH1 0x4 DUP3 ADD MSTORE PUSH1 0x1A PUSH1 0x24 DUP3 ADD MSTORE PUSH32 0x5374616B696E675661756C743A207374696C6C206C6F636B6564000000000000 PUSH1 0x44 DUP3 ADD MSTORE PUSH1 0x64 ADD PUSH2 0x3AF JUMP JUMPDEST DUP1 PUSH1 0x60 ADD MLOAD ISZERO PUSH2 0x514 JUMPI PUSH1 0x40 MLOAD PUSH3 0x461BCD PUSH1 0xE5 SHL DUP2 MSTORE PUSH1 0x20 PUSH1 0x4 DUP3 ADD MSTORE PUSH1 0x1C PUSH1 0x24 DUP3 ADD MSTORE PUSH32 0x5374616B696E675661756C743A2061637469766520766F756368657300000000 PUSH1 0x44 DUP3 ADD MSTORE PUSH1 0x64 ADD PUSH2 0x3AF JUMP JUMPDEST PUSH1 0x0 DUP3 DUP2 MSTORE PUSH1 0x3 PUSH1 0x20 MSTORE PUSH1 0x40 DUP1 DUP3 KECCAK256 SWAP2 DUP3 SSTORE PUSH1 0x1 SWAP1 SWAP2 ADD DUP1 SLOAD PUSH1 0xFF NOT AND SWAP1 SSTORE DUP2 MLOAD SWAP1 MLOAD PUSH4 0xA9059CBB PUSH1 0xE0 SHL DUP2 MSTORE CALLER PUSH1 0x4 DUP3 ADD MSTORE PUSH1 0x1 PUSH1 0x1 PUSH1 0x80 SHL SUB SWAP1 SWAP2 AND PUSH1 0x24 DUP3 ADD MSTORE PUSH32 0x0 PUSH1 0x1 PUSH1 0x1 PUSH1 0xA0 SHL SUB AND SWAP1 PUSH4 0xA9059CBB SWAP1 PUSH1 0x44 ADD PUSH1 0x20 PUSH1 0x40 MLOAD DUP1 DUP4 SUB DUP2 PUSH1 0x0 DUP8 GAS CALL ISZERO DUP1 ISZERO PUSH2 0x5AA JUMPI RETURNDATASIZE PUSH1 0x0 DUP1 RETURNDATACOPY RETURNDATASIZE PUSH1 0x0 REVERT JUMPDEST POP POP POP POP PUSH1 0x40 MLOAD RETURNDATASIZE PUSH1 0x1F NOT PUSH1 0x1F DUP3 ADD AND DUP3 ADD DUP1 PUSH1 0x40 MSTORE POP DUP2 ADD SWAP1 PUSH2 0x5CE SWAP2 SWAP1 PUSH2 0xDAD JUMP JUMPDEST PUSH2 0x61A JUMPI PUSH1 0x40 MLOAD PUSH3 0x461BCD PUSH1 0xE5 SHL DUP2 MSTORE PUSH1 0x20 PUSH1 0x4 DUP3 ADD MSTORE PUSH1 0x1D PUSH1 0x24 DUP3 ADD MSTORE PUSH32 0x5374616B696E675661756C743A207472616E73666572206661696C6564000000 PUSH1 0x44 DUP3 ADD MSTORE PUSH1 0x64 ADD PUSH2 0x3AF JUMP JUMPDEST DUP1 MLOAD PUSH1 0x40 DUP1 MLOAD PUSH1 0x1 PUSH1 0x1 PUSH1 0x80 SHL SUB SWAP1 SWAP3 AND DUP3 MSTORE PUSH8 0xFFFFFFFFFFFFFFFF NUMBER AND PUSH1 0x20 DUP4 ADD MSTORE DUP4 SWAP2 PUSH32 0xD25CDA7EC2005BAE11FE142A33195B9F64BCC514352CF8AA1B514BE779FD76D7 SWAP2 ADD JUMPDEST PUSH1 0x40 MLOAD DUP1 SWAP2 SUB SWAP1 LOG2 POP POP PUSH1 0x1 PUSH1 0x2 SSTORE JUMP JUMPDEST PUSH1 0x1 SLOAD PUSH1 0x1 PUSH1 0x1 PUSH1 0xA0 SHL SUB AND CALLER EQ PUSH2 0x6CE JUMPI PUSH1 0x40 MLOAD PUSH3 0x461BCD PUSH1 0xE5 SHL DUP2 MSTORE PUSH1 0x20 PUSH1 0x4 DUP3 ADD DUP2 SWAP1 MSTORE PUSH1 0x24 DUP3 ADD MSTORE PUSH32 0x5374616B696E675661756C743A206E6F7420766F756368207265676973747279 PUSH1 0x44 DUP3 ADD MSTORE PUSH1 0x64 ADD PUSH2 0x3AF JUMP JUMPDEST PUSH1 0x0 DUP2 DUP2 MSTORE PUSH1 0x3 PUSH1 0x20 MSTORE PUSH1 0x40 SWAP1 KECCAK256 SLOAD PUSH1 0x1 PUSH1 0x1 PUSH1 0x80 SHL SUB AND PUSH2 0x72B JUMPI PUSH1 0x40 MLOAD PUSH3 0x461BCD PUSH1 0xE5 SHL DUP2 MSTORE PUSH1 0x20 PUSH1 0x4 DUP3 ADD MSTORE PUSH1 0x16 PUSH1 0x24 DUP3 ADD MSTORE PUSH22 0x5374616B696E675661756C743A206E6F207374616B65 PUSH1 0x50 SHL PUSH1 0x44 DUP3 ADD MSTORE PUSH1 0x64 ADD PUSH2 0x3AF JUMP JUMPDEST PUSH1 0x0 SWAP1 DUP2 MSTORE PUSH1 0x3 PUSH1 0x20 MSTORE PUSH1 0x40 SWAP1 KECCAK256 PUSH1 0x1 SWAP1 DUP2 ADD DUP1 SLOAD PUSH1 0xFF NOT AND SWAP1 SWAP2 OR SWAP1 SSTORE JUMP JUMPDEST PUSH1 0x0 SLOAD PUSH1 0x1 PUSH1 0x1 PUSH1 0xA0 SHL SUB AND CALLER EQ PUSH2 0x79F JUMPI PUSH1 0x40 MLOAD PUSH3 0x461BCD PUSH1 0xE5 SHL DUP2 MSTORE PUSH1 0x20 PUSH1 0x4 DUP3 ADD MSTORE PUSH1 0x17 PUSH1 0x24 DUP3 ADD MSTORE PUSH23 0x29BA30B5B4B733AB30BAB63A1D103737BA1030B236B4B7 PUSH1 0x49 SHL PUSH1 0x44 DUP3 ADD MSTORE PUSH1 0x64 ADD PUSH2 0x3AF JUMP JUMPDEST PUSH1 0x1 PUSH1 0x1 PUSH1 0xA0 SHL SUB DUP2 AND PUSH2 0x7F5 JUMPI PUSH1 0x40 MLOAD PUSH3 0x461BCD PUSH1 0xE5 SHL DUP2 MSTORE PUSH1 0x20 PUSH1 0x4 DUP3 ADD MSTORE PUSH1 0x18 PUSH1 0x24 DUP3 ADD MSTORE PUSH32 0x5374616B696E675661756C743A207A65726F2061646D696E0000000000000000 PUSH1 0x44 DUP3 ADD MSTORE PUSH1 0x64 ADD PUSH2 0x3AF JUMP JUMPDEST PUSH1 0x0 DUP1 SLOAD PUSH1 0x1 PUSH1 0x1 PUSH1 0xA0 SHL SUB NOT AND PUSH1 0x1 PUSH1 0x1 PUSH1 0xA0 SHL SUB SWAP3 SWAP1 SWAP3 AND SWAP2 SWAP1 SWAP2 OR SWAP1 SSTORE JUMP JUMPDEST PUSH1 0x2 SLOAD PUSH1 0x1 EQ PUSH2 0x863 JUMPI PUSH1 0x40 MLOAD PUSH3 0x461BCD PUSH1 0xE5 SHL DUP2 MSTORE PUSH1 0x20 PUSH1 0x4 DUP3 ADD MSTORE PUSH1 0x17 PUSH1 0x24 DUP3 ADD MSTORE PUSH23 0x14DD185ADA5B99D5985D5B1D0E881C99595B9D1C985B9D PUSH1 0x4A SHL PUSH1 0x44 DUP3 ADD MSTORE PUSH1 0x64 ADD PUSH2 0x3AF JUMP JUMPDEST PUSH1 0x2 DUP1 SSTORE CALLER PUSH9 0x2B5E3AF16B1880000 PUSH1 0x1 PUSH1 0x1 PUSH1 0x80 SHL SUB DUP4 AND LT ISZERO PUSH2 0x8CA JUMPI PUSH1 0x40 MLOAD PUSH3 0x461BCD PUSH1 0xE5 SHL DUP2 MSTORE PUSH1 0x20 PUSH1 0x4 DUP3 ADD MSTORE PUSH1 0x1B PUSH1 0x24 DUP3 ADD MSTORE PUSH32 0x5374616B696E675661756C743A2062656C6F77206D696E696D756D0000000000 PUSH1 0x44 DUP3 ADD MSTORE PUSH1 0x64 ADD PUSH2 0x3AF JUMP JUMPDEST PUSH1 0x0 DUP2 DUP2 MSTORE PUSH1 0x3 PUSH1 0x20 MSTORE PUSH1 0x40 SWAP1 KECCAK256 SLOAD PUSH1 0x1 PUSH1 0x1 PUSH1 0x80 SHL SUB AND ISZERO PUSH2 0x92F JUMPI PUSH1 0x40 MLOAD PUSH3 0x461BCD PUSH1 0xE5 SHL DUP2 MSTORE PUSH1 0x20 PUSH1 0x4 DUP3 ADD MSTORE PUSH1 0x1C PUSH1 0x24 DUP3 ADD MSTORE PUSH32 0x5374616B696E675661756C743A20616C7265616479207374616B656400000000 PUSH1 0x44 DUP3 ADD MSTORE PUSH1 0x64 ADD PUSH2 0x3AF JUMP JUMPDEST PUSH1 0x40 MLOAD PUSH4 0x23B872DD PUSH1 0xE0 SHL DUP2 MSTORE CALLER PUSH1 0x4 DUP3 ADD MSTORE ADDRESS PUSH1 0x24 DUP3 ADD MSTORE PUSH1 0x1 PUSH1 0x1 PUSH1 0x80 SHL SUB DUP4 AND PUSH1 0x44 DUP3 ADD MSTORE PUSH32 0x0 PUSH1 0x1 PUSH1 0x1 PUSH1 0xA0 SHL SUB AND SWAP1 PUSH4 0x23B872DD SWAP1 PUSH1 0x64 ADD PUSH1 0x20 PUSH1 0x40 MLOAD DUP1 DUP4 SUB DUP2 PUSH1 0x0 DUP8 GAS CALL ISZERO DUP1 ISZERO PUSH2 0x9AA JUMPI RETURNDATASIZE PUSH1 0x0 DUP1 RETURNDATACOPY RETURNDATASIZE PUSH1 0x0 REVERT JUMPDEST POP POP POP POP PUSH1 0x40 MLOAD RETURNDATASIZE PUSH1 0x1F NOT PUSH1 0x1F DUP3 ADD AND DUP3 ADD DUP1 PUSH1 0x40 MSTORE POP DUP2 ADD SWAP1 PUSH2 0x9CE SWAP2 SWAP1 PUSH2 0xDAD JUMP JUMPDEST PUSH2 0xA1A JUMPI PUSH1 0x40 MLOAD PUSH3 0x461BCD PUSH1 0xE5 SHL DUP2 MSTORE PUSH1 0x20 PUSH1 0x4 DUP3 ADD MSTORE PUSH1 0x1D PUSH1 0x24 DUP3 ADD MSTORE PUSH32 0x5374616B696E675661756C743A207472616E73666572206661696C6564000000 PUSH1 0x44 DUP3 ADD MSTORE PUSH1 0x64 ADD PUSH2 0x3AF JUMP JUMPDEST PUSH1 0x40 MLOAD DUP1 PUSH1 0x80 ADD PUSH1 0x40 MSTORE DUP1 DUP4 PUSH1 0x1 PUSH1 0x1 PUSH1 0x80 SHL SUB AND DUP2 MSTORE PUSH1 0x20 ADD NUMBER PUSH8 0xFFFFFFFFFFFFFFFF AND DUP2 MSTORE PUSH1 0x20 ADD PUSH3 0x1FA40 NUMBER PUSH2 0xA53 SWAP2 SWAP1 PUSH2 0xDCF JUMP JUMPDEST PUSH8 0xFFFFFFFFFFFFFFFF SWAP1 DUP2 AND DUP3 MSTORE PUSH1 0x0 PUSH1 0x20 SWAP3 DUP4 ADD DUP2 SWAP1 MSTORE DUP5 DUP2 MSTORE PUSH1 0x3 DUP4 MSTORE PUSH1 0x40 SWAP1 DUP2 SWAP1 KECCAK256 DUP5 MLOAD DUP2 SLOAD SWAP5 DUP7 ADD MLOAD DUP7 DUP5 ADD MLOAD DUP6 AND PUSH1 0x1 PUSH1 0xC0 SHL MUL PUSH1 0x1 PUSH1 0x1 PUSH1 0xC0 SHL SUB SWAP2 SWAP1 SWAP6 AND PUSH1 0x1 PUSH1 0x80 SHL MUL PUSH1 0x1 PUSH1 0x1 PUSH1 0xC0 SHL SUB NOT SWAP1 SWAP7 AND PUSH1 0x1 PUSH1 0x1 PUSH1 0x80 SHL SUB SWAP1 SWAP3 AND SWAP2 SWAP1 SWAP2 OR SWAP5 SWAP1 SWAP5 OR SWAP4 SWAP1 SWAP4 AND SWAP2 SWAP1 SWAP2 OR DUP3 SSTORE PUSH1 0x60 SWAP3 DUP4 ADD MLOAD PUSH1 0x1 SWAP1 SWAP3 ADD DUP1 SLOAD SWAP3 ISZERO ISZERO PUSH1 0xFF NOT SWAP1 SWAP4 AND SWAP3 SWAP1 SWAP3 OR SWAP1 SWAP2 SSTORE MLOAD PUSH4 0x30F5881B PUSH1 0xE1 SHL DUP2 MSTORE PUSH1 0x4 DUP2 ADD DUP4 SWAP1 MSTORE PUSH1 0xA PUSH1 0x24 DUP3 ADD MSTORE PUSH1 0x44 DUP2 ADD SWAP2 SWAP1 SWAP2 MSTORE PUSH1 0xD PUSH1 0x64 DUP3 ADD MSTORE PUSH13 0x1CDD185AD957D9195C1BDCDA5D PUSH1 0x9A SHL PUSH1 0x84 DUP3 ADD MSTORE PUSH1 0x1 PUSH1 0x1 PUSH1 0xA0 SHL SUB PUSH32 0x0 AND SWAP1 PUSH4 0x61EB1036 SWAP1 PUSH1 0xA4 ADD PUSH1 0x0 PUSH1 0x40 MLOAD DUP1 DUP4 SUB DUP2 PUSH1 0x0 DUP8 DUP1 EXTCODESIZE ISZERO DUP1 ISZERO PUSH2 0xB70 JUMPI PUSH1 0x0 DUP1 REVERT JUMPDEST POP GAS CALL ISZERO DUP1 ISZERO PUSH2 0xB84 JUMPI RETURNDATASIZE PUSH1 0x0 DUP1 RETURNDATACOPY RETURNDATASIZE PUSH1 0x0 REVERT JUMPDEST POP POP PUSH1 0x40 DUP1 MLOAD PUSH1 0x1 PUSH1 0x1 PUSH1 0x80 SHL SUB DUP7 AND DUP2 MSTORE PUSH8 0xFFFFFFFFFFFFFFFF NUMBER AND PUSH1 0x20 DUP3 ADD MSTORE DUP5 SWAP4 POP PUSH32 0x844FDCEBBBA4A19D4207DBAE24408DAB38C1F2AE82D1FA3D82FE434335CFD3B9 SWAP3 POP ADD PUSH2 0x663 JUMP JUMPDEST PUSH1 0x1 SLOAD PUSH1 0x1 PUSH1 0x1 PUSH1 0xA0 SHL SUB AND CALLER EQ PUSH2 0xC2C JUMPI PUSH1 0x40 MLOAD PUSH3 0x461BCD PUSH1 0xE5 SHL DUP2 MSTORE PUSH1 0x20 PUSH1 0x4 DUP3 ADD DUP2 SWAP1 MSTORE PUSH1 0x24 DUP3 ADD MSTORE PUSH32 0x5374616B696E675661756C743A206E6F7420766F756368207265676973747279 PUSH1 0x44 DUP3 ADD MSTORE PUSH1 0x64 ADD PUSH2 0x3AF JUMP JUMPDEST PUSH1 0x0 SWAP1 DUP2 MSTORE PUSH1 0x3 PUSH1 0x20 MSTORE PUSH1 0x40 SWAP1 KECCAK256 PUSH1 0x1 ADD DUP1 SLOAD PUSH1 0xFF NOT AND SWAP1 SSTORE JUMP JUMPDEST PUSH1 0x0 SLOAD PUSH1 0x1 PUSH1 0x1 PUSH1 0xA0 SHL SUB AND CALLER EQ PUSH2 0xC9B JUMPI PUSH1 0x40 MLOAD PUSH3 0x461BCD PUSH1 0xE5 SHL DUP2 MSTORE PUSH1 0x20 PUSH1 0x4 DUP3 ADD MSTORE PUSH1 0x17 PUSH1 0x24 DUP3 ADD MSTORE PUSH23 0x29BA30B5B4B733AB30BAB63A1D103737BA1030B236B4B7 PUSH1 0x49 SHL PUSH1 0x44 DUP3 ADD MSTORE PUSH1 0x64 ADD PUSH2 0x3AF JUMP JUMPDEST PUSH1 0x1 PUSH1 0x1 PUSH1 0xA0 SHL SUB DUP2 AND PUSH2 0xCF1 JUMPI PUSH1 0x40 MLOAD PUSH3 0x461BCD PUSH1 0xE5 SHL DUP2 MSTORE PUSH1 0x20 PUSH1 0x4 DUP3 ADD MSTORE PUSH1 0x1B PUSH1 0x24 DUP3 ADD MSTORE PUSH32 0x5374616B696E675661756C743A207A65726F2072656769737472790000000000 PUSH1 0x44 DUP3 ADD MSTORE PUSH1 0x64 ADD PUSH2 0x3AF JUMP JUMPDEST PUSH1 0x1 DUP1 SLOAD PUSH1 0x1 PUSH1 0x1 PUSH1 0xA0 SHL SUB NOT AND PUSH1 0x1 PUSH1 0x1 PUSH1 0xA0 SHL SUB DUP4 AND SWAP1 DUP2 OR SWAP1 SWAP2 SSTORE PUSH1 0x40 MLOAD PUSH32 0xB7F6C1C608FDCDF6258C32AA36D88F01DD96FB120A86E5664C338E201C3A8036 SWAP1 PUSH1 0x0 SWAP1 LOG2 POP JUMP JUMPDEST PUSH1 0x0 PUSH1 0x20 DUP3 DUP5 SUB SLT ISZERO PUSH2 0xD4D JUMPI PUSH1 0x0 DUP1 REVERT JUMPDEST POP CALLDATALOAD SWAP2 SWAP1 POP JUMP JUMPDEST PUSH1 0x0 PUSH1 0x20 DUP3 DUP5 SUB SLT ISZERO PUSH2 0xD66 JUMPI PUSH1 0x0 DUP1 REVERT JUMPDEST DUP2 CALLDATALOAD PUSH1 0x1 PUSH1 0x1 PUSH1 0xA0 SHL SUB DUP2 AND DUP2 EQ PUSH2 0xD7D JUMPI PUSH1 0x0 DUP1 REVERT JUMPDEST SWAP4 SWAP3 POP POP POP JUMP JUMPDEST PUSH1 0x0 PUSH1 0x20 DUP3 DUP5 SUB SLT ISZERO PUSH2 0xD96 JUMPI PUSH1 0x0 DUP1 REVERT JUMPDEST DUP2 CALLDATALOAD PUSH1 0x1 PUSH1 0x1 PUSH1 0x80 SHL SUB DUP2 AND DUP2 EQ PUSH2 0xD7D JUMPI PUSH1 0x0 DUP1 REVERT JUMPDEST PUSH1 0x0 PUSH1 0x20 DUP3 DUP5 SUB SLT ISZERO PUSH2 0xDBF JUMPI PUSH1 0x0 DUP1 REVERT JUMPDEST DUP2 MLOAD DUP1 ISZERO ISZERO DUP2 EQ PUSH2 0xD7D JUMPI PUSH1 0x0 DUP1 REVERT JUMPDEST PUSH8 0xFFFFFFFFFFFFFFFF DUP2 DUP2 AND DUP4 DUP3 AND ADD SWAP1 DUP1 DUP3 GT ISZERO PUSH2 0xDFE JUMPI PUSH4 0x4E487B71 PUSH1 0xE0 SHL PUSH1 0x0 MSTORE PUSH1 0x11 PUSH1 0x4 MSTORE PUSH1 0x24 PUSH1 0x0 REVERT JUMPDEST POP SWAP3 SWAP2 POP POP JUMP INVALID LOG2 PUSH5 0x6970667358 0x22 SLT KECCAK256 PUSH9 0x5B1E192AC7B6988CC7 DELEGATECALL 0xF6 LOG3 MLOAD 0xDF SLOAD DUP10 CALLER PUSH4 0xBAF8D4A2 0xD4 0xB0 DUP8 0xC9 PUSH0 PUSH30 0x4D1CCF64736F6C6343000818003300000000000000000000000000000000 "},"methodIdentifiers":{"LOCK_DURATION()":"485d3834","MINIMUM_STAKE()":"08dbbb03","STAKE_DEPOSIT_POINTS()":"12dceb47","admin()":"f851a440","extendLock(bytes32)":"6c57966d","getStake(bytes32)":"e765c122","hasActiveStake(bytes32)":"82e14145","pointsLedger()":"a33e7faf","releaseLock(bytes32)":"9848e545","setVouchRegistry(address)":"e5f062bb","stablecoin()":"e9cbd822","stake(uint128)":"88fe2be8","transferAdmin(address)":"75829def","unstake()":"2def6620","vouchRegistry()":"aa618fb6"}}}}}