{"contracts/PointsLedger.sol":{"PointsLedger":{"abi":[{"inputs":[{"internalType":"address","name":"_admin","type":"address"}],"stateMutability":"nonpayable","type":"constructor"},{"anonymous":false,"inputs":[{"indexed":true,"internalType":"address","name":"who","type":"address"},{"indexed":false,"internalType":"bool","name":"enabled","type":"bool"}],"name":"AuthorizedSet","type":"event"},{"anonymous":false,"inputs":[{"indexed":true,"internalType":"bytes32","name":"popId","type":"bytes32"},{"indexed":false,"internalType":"uint64","name":"amount","type":"uint64"},{"indexed":false,"internalType":"string","name":"reason","type":"string"}],"name":"PointsBurned","type":"event"},{"anonymous":false,"inputs":[{"indexed":true,"internalType":"bytes32","name":"popId","type":"bytes32"},{"indexed":false,"internalType":"uint64","name":"amount","type":"uint64"},{"indexed":true,"internalType":"uint64","name":"vouchId","type":"uint64"}],"name":"PointsLocked","type":"event"},{"anonymous":false,"inputs":[{"indexed":true,"internalType":"bytes32","name":"popId","type":"bytes32"},{"indexed":false,"internalType":"uint64","name":"amount","type":"uint64"},{"indexed":false,"internalType":"string","name":"reason","type":"string"}],"name":"PointsMinted","type":"event"},{"anonymous":false,"inputs":[{"indexed":true,"internalType":"bytes32","name":"popId","type":"bytes32"},{"indexed":false,"internalType":"uint64","name":"amount","type":"uint64"},{"indexed":true,"internalType":"uint64","name":"vouchId","type":"uint64"}],"name":"PointsUnlocked","type":"event"},{"inputs":[],"name":"admin","outputs":[{"internalType":"address","name":"","type":"address"}],"stateMutability":"view","type":"function"},{"inputs":[{"internalType":"address","name":"","type":"address"}],"name":"authorized","outputs":[{"internalType":"bool","name":"","type":"bool"}],"stateMutability":"view","type":"function"},{"inputs":[{"internalType":"bytes32","name":"popId","type":"bytes32"},{"internalType":"uint64","name":"amount","type":"uint64"},{"internalType":"uint64","name":"vouchId","type":"uint64"}],"name":"burnLockedPoints","outputs":[],"stateMutability":"nonpayable","type":"function"},{"inputs":[{"internalType":"bytes32","name":"popId","type":"bytes32"},{"internalType":"uint64","name":"amount","type":"uint64"},{"internalType":"string","name":"reason","type":"string"}],"name":"burnPoints","outputs":[],"stateMutability":"nonpayable","type":"function"},{"inputs":[{"internalType":"bytes32","name":"popId","type":"bytes32"}],"name":"getBalance","outputs":[{"components":[{"internalType":"int64","name":"total","type":"int64"},{"internalType":"uint64","name":"earned","type":"uint64"},{"internalType":"uint64","name":"burned","type":"uint64"},{"internalType":"uint64","name":"locked","type":"uint64"},{"internalType":"int64","name":"available","type":"int64"},{"internalType":"uint64","name":"lastUpdated","type":"uint64"}],"internalType":"struct IPointsLedger.PointsBalance","name":"","type":"tuple"}],"stateMutability":"view","type":"function"},{"inputs":[{"internalType":"bytes32","name":"popId","type":"bytes32"},{"internalType":"uint64","name":"fromBlock","type":"uint64"},{"internalType":"uint64","name":"toBlock","type":"uint64"}],"name":"getPointsEarnedInWindow","outputs":[{"internalType":"uint64","name":"","type":"uint64"}],"stateMutability":"view","type":"function"},{"inputs":[{"internalType":"bytes32","name":"popId","type":"bytes32"},{"internalType":"uint256","name":"idx","type":"uint256"}],"name":"historyAt","outputs":[{"components":[{"internalType":"int64","name":"amount","type":"int64"},{"internalType":"uint64","name":"timestamp","type":"uint64"},{"internalType":"uint64","name":"relatedVouchId","type":"uint64"},{"internalType":"string","name":"reason","type":"string"}],"internalType":"struct PointsLedger.PointEvent","name":"","type":"tuple"}],"stateMutability":"view","type":"function"},{"inputs":[{"internalType":"bytes32","name":"popId","type":"bytes32"}],"name":"historyLength","outputs":[{"internalType":"uint256","name":"","type":"uint256"}],"stateMutability":"view","type":"function"},{"inputs":[{"internalType":"bytes32","name":"popId","type":"bytes32"},{"internalType":"uint64","name":"amount","type":"uint64"},{"internalType":"uint64","name":"vouchId","type":"uint64"}],"name":"lockPoints","outputs":[],"stateMutability":"nonpayable","type":"function"},{"inputs":[{"internalType":"bytes32","name":"","type":"bytes32"},{"internalType":"uint64","name":"","type":"uint64"}],"name":"lockedPoints","outputs":[{"internalType":"uint64","name":"","type":"uint64"}],"stateMutability":"view","type":"function"},{"inputs":[{"internalType":"bytes32","name":"popId","type":"bytes32"},{"internalType":"uint64","name":"amount","type":"uint64"},{"internalType":"string","name":"reason","type":"string"}],"name":"mintPoints","outputs":[],"stateMutability":"nonpayable","type":"function"},{"inputs":[{"internalType":"address","name":"who","type":"address"},{"internalType":"bool","name":"enabled","type":"bool"}],"name":"setAuthorized","outputs":[],"stateMutability":"nonpayable","type":"function"},{"inputs":[{"internalType":"address","name":"newAdmin","type":"address"}],"name":"transferAdmin","outputs":[],"stateMutability":"nonpayable","type":"function"},{"inputs":[{"internalType":"bytes32","name":"popId","type":"bytes32"},{"internalType":"uint64","name":"amount","type":"uint64"},{"internalType":"uint64","name":"vouchId","type":"uint64"}],"name":"unlockPoints","outputs":[],"stateMutability":"nonpayable","type":"function"}],"evm":{"bytecode":{"linkReferences":{},"object":"608060405234801561001057600080fd5b50604051611c11380380611c1183398101604081905261002f916100ae565b6001600160a01b0381166100895760405162461bcd60e51b815260206004820152601860248201527f506f696e74734c65646765723a207a65726f2061646d696e0000000000000000604482015260640160405180910390fd5b600080546001600160a01b0319166001600160a01b03929092169190911790556100de565b6000602082840312156100c057600080fd5b81516001600160a01b03811681146100d757600080fd5b9392505050565b611b24806100ed6000396000f3fe608060405234801561001057600080fd5b50600436106100ea5760003560e01c806371ada8211161008c5780638e739461116100665780638e73946114610208578063b918161114610325578063f851a44014610358578063ff78c9db1461038357600080fd5b806371ada8211461019657806375829def146101e2578063870166a6146101f557600080fd5b806343905859116100c8578063439058591461012a57806361eb10361461015d578063711bf9b2146101705780637162fd751461018357600080fd5b8063029db3a6146100ef5780630ef7389414610104578063143c44dc14610117575b600080fd5b6101026100fd36600461154d565b6103a3565b005b6101026101123660046115d3565b6106a0565b6101026101253660046115d3565b610a1c565b61014a61013836600461160f565b60009081526003602052604090205490565b6040519081526020015b60405180910390f35b61010261016b36600461154d565b610c87565b61010261017e36600461163f565b610f63565b6101026101913660046115d3565b611016565b6101ca6101a436600461167b565b60046020908152600092835260408084209091529082529020546001600160401b031681565b6040516001600160401b039091168152602001610154565b6101026101f03660046116a7565b61120d565b6101ca6102033660046115d3565b6112d9565b6102c061021636600461160f565b6040805160c081018252600080825260208201819052918101829052606081018290526080810182905260a081019190915250600090815260026020908152604091829020825160c0810184528154600781810b8352600160401b8083046001600160401b0390811696850196909652600160801b8304861696840196909652600160c01b909104841660608301526001909201549182900b60808201529290041660a082015290565b6040516101549190600060c082019050825160070b825260208301516001600160401b038082166020850152806040860151166040850152806060860151166060850152608085015160070b60808501528060a08601511660a0850152505092915050565b6103486103333660046116a7565b60016020526000908152604090205460ff1681565b6040519015158152602001610154565b60005461036b906001600160a01b031681565b6040516001600160a01b039091168152602001610154565b6103966103913660046116c9565b6113ff565b60405161015491906116eb565b3360009081526001602052604090205460ff166103db5760405162461bcd60e51b81526004016103d290611773565b60405180910390fd5b836103f85760405162461bcd60e51b81526004016103d2906117aa565b6000836001600160401b03161161044d5760405162461bcd60e51b8152602060048201526019602482015278141bda5b9d1cd3195919d95c8e881e995c9bc8185b5bdd5b9d603a1b60448201526064016103d2565b600084815260026020526040812080549091859183919061047290849060070b6117f7565b92506101000a8154816001600160401b03021916908360070b6001600160401b03160217905550838160000160108282829054906101000a90046001600160401b03166104bf9190611826565b92506101000a8154816001600160401b0302191690836001600160401b03160217905550838160010160008282829054906101000a900460070b61050391906117f7565b92506101000a8154816001600160401b03021916908360070b6001600160401b03160217905550438160010160086101000a8154816001600160401b0302191690836001600160401b031602179055506003600086815260200190815260200160002060405180608001604052808661057b9061184d565b60070b8152602001436001600160401b0316815260200160006001600160401b0316815260200185858080601f0160208091040260200160405190810160405280939291908181526020018383808284376000920182905250939094525050835460018181018655948252602091829020845160029092020180549285015160408601516001600160401b03908116600160801b0267ffffffffffffffff60801b19928216600160401b026001600160801b031990961691909416179390931792909216178155606083015192939092908301915061065a9082611915565b505050847f2d8e2739fe22d2c6401dd77a063076bb1dabd239e5f275851663ad916215bd88858585604051610691939291906119d4565b60405180910390a25050505050565b3360009081526001602052604090205460ff166106cf5760405162461bcd60e51b81526004016103d290611773565b6000838152600260209081526040808320600483528184206001600160401b0380871686529352908320549092908216918516821061070e5784610710565b815b90506001600160401b038116156107b857825481908490601890610745908490600160c01b90046001600160401b0316611a13565b82546101009290920a6001600160401b038181021990931691831602179091556000888152600460209081526040808320898516845290915281208054859450909261079391859116611a13565b92506101000a8154816001600160401b0302191690836001600160401b031602179055505b8254859084906000906107cf90849060070b6117f7565b92506101000a8154816001600160401b03021916908360070b6001600160401b03160217905550848360000160108282829054906101000a90046001600160401b031661081c9190611826565b92506101000a8154816001600160401b0302191690836001600160401b03160217905550806001600160401b0316856001600160401b031611156108a3576108648186611a13565b60018401805460009061087b90849060070b6117f7565b92506101000a8154816001600160401b03021916908360070b6001600160401b031602179055505b60018301805467ffffffffffffffff60401b1916600160401b436001600160401b0316021790556000868152600360205260409081902081516080810190925290806108ee8861184d565b60070b81526001600160401b0343811660208084019190915288821660408085019190915280518082018252600d81526c766f7563685f70656e616c747960981b818401526060948501528554600181810188556000978852968390208651600290920201805493870151928701518516600160801b0267ffffffffffffffff60801b19938616600160401b026001600160801b0319909516929095169190911792909217169190911781559082015191929091908201906109b09082611915565b5050604080516001600160401b038816815260208101829052600d818301526c766f7563685f70656e616c747960981b606082015290518892507f2d8e2739fe22d2c6401dd77a063076bb1dabd239e5f275851663ad916215bd889181900360800190a2505050505050565b3360009081526001602052604090205460ff16610a4b5760405162461bcd60e51b81526004016103d290611773565b82610a685760405162461bcd60e51b81526004016103d2906117aa565b806001600160401b0316600003610ac15760405162461bcd60e51b815260206004820152601a60248201527f506f696e74734c65646765723a207a65726f20766f756368496400000000000060448201526064016103d2565b60008381526002602052604090206001810154600784810b91900b1215610b365760405162461bcd60e51b8152602060048201526024808201527f506f696e74734c65646765723a20696e73756666696369656e7420617661696c60448201526361626c6560e01b60648201526084016103d2565b805483908290601890610b5a908490600160c01b90046001600160401b0316611826565b92506101000a8154816001600160401b0302191690836001600160401b03160217905550828160010160008282829054906101000a900460070b610b9e91906117f7565b82546101009290920a6001600160401b0381810219909316918316021790915560018301805467ffffffffffffffff60401b1916600160401b4384160217905560008681526004602090815260408083208785168452909152812080548794509092610c0c91859116611826565b92506101000a8154816001600160401b0302191690836001600160401b03160217905550816001600160401b0316847fc6d65bc35500e0d2f7329d39f91e79186885f4a4367b15dfdd20bdc9606f12cc85604051610c7991906001600160401b0391909116815260200190565b60405180910390a350505050565b3360009081526001602052604090205460ff16610cb65760405162461bcd60e51b81526004016103d290611773565b83610cd35760405162461bcd60e51b81526004016103d2906117aa565b6000836001600160401b031611610d285760405162461bcd60e51b8152602060048201526019602482015278141bda5b9d1cd3195919d95c8e881e995c9bc8185b5bdd5b9d603a1b60448201526064016103d2565b6000848152600260205260408120805490918591839190610d4d90849060070b611a33565b92506101000a8154816001600160401b03021916908360070b6001600160401b03160217905550838160000160088282829054906101000a90046001600160401b0316610d9a9190611826565b92506101000a8154816001600160401b0302191690836001600160401b03160217905550838160010160008282829054906101000a900460070b610dde9190611a33565b92506101000a8154816001600160401b03021916908360070b6001600160401b03160217905550438160010160086101000a8154816001600160401b0302191690836001600160401b031602179055506003600086815260200190815260200160002060405180608001604052808660070b8152602001436001600160401b0316815260200160006001600160401b0316815260200185858080601f0160208091040260200160405190810160405280939291908181526020018383808284376000920182905250939094525050835460018181018655948252602091829020845160029092020180549285015160408601516001600160401b03908116600160801b0267ffffffffffffffff60801b19928216600160401b026001600160801b0319909616919094161793909317929092161781556060830151929390929083019150610f2c9082611915565b505050847fe52f266631fcae4aaa689c4362db7a354b04870a2ad69382def6058c8a16860d858585604051610691939291906119d4565b6000546001600160a01b03163314610fb75760405162461bcd60e51b81526020600482015260176024820152762837b4b73a39a632b233b2b91d103737ba1030b236b4b760491b60448201526064016103d2565b6001600160a01b038216600081815260016020908152604091829020805460ff191685151590811790915591519182527f19fef6046150baa445c8f44d75e29317c0fa4c6341a6c8444b3ec4cc48d1e1ce910160405180910390a25050565b3360009081526001602052604090205460ff166110455760405162461bcd60e51b81526004016103d290611773565b60008381526004602090815260408083206001600160401b038581168552925290912054818416911610156110bc5760405162461bcd60e51b815260206004820152601f60248201527f506f696e74734c65646765723a206e6f7420656e6f756768206c6f636b65640060448201526064016103d2565b60008381526002602052604090208054839082906018906110ee908490600160c01b90046001600160401b0316611a13565b92506101000a8154816001600160401b0302191690836001600160401b03160217905550828160010160008282829054906101000a900460070b6111329190611a33565b82546101009290920a6001600160401b0381810219909316918316021790915560018301805467ffffffffffffffff60401b1916600160401b43841602179055600086815260046020908152604080832087851684529091528120805487945090926111a091859116611a13565b92506101000a8154816001600160401b0302191690836001600160401b03160217905550816001600160401b0316847f296fd63dd4353d064e702cd895eed43d76548e234b2107b3a81cedc779c7230185604051610c7991906001600160401b0391909116815260200190565b6000546001600160a01b031633146112615760405162461bcd60e51b81526020600482015260176024820152762837b4b73a39a632b233b2b91d103737ba1030b236b4b760491b60448201526064016103d2565b6001600160a01b0381166112b75760405162461bcd60e51b815260206004820152601860248201527f506f696e74734c65646765723a207a65726f2061646d696e000000000000000060448201526064016103d2565b600080546001600160a01b0319166001600160a01b0392909216919091179055565b604080518082018252600b81526a3b37bab1b432b22fb337b960a91b602091820152600085815260039091529081207f0ab2379253d81b8704a16fb919d1a929bf013958631c38c2c7dd822fbe001ff3908290815b81548110156113f357600082828154811061134b5761134b611a62565b6000918252602090912060029091020180549091506001600160401b03808a16600160401b909204161080611393575080546001600160401b03808916600160401b90920416115b1561139e57506113eb565b8054600060079190910b136113b357506113eb565b84816001016040516113c59190611a78565b6040518091039020036113d857506113eb565b80546113e79060070b85611826565b9350505b60010161132e565b50909695505050505050565b6040805160808101825260008082526020820181905291810191909152606080820152600083815260036020526040902080548390811061144257611442611a62565b60009182526020918290206040805160808101825260029093029091018054600781900b84526001600160401b03600160401b8204811695850195909552600160801b9004909316908201526001820180549192916060840191906114a69061188a565b80601f01602080910402602001604051908101604052809291908181526020018280546114d29061188a565b801561151f5780601f106114f45761010080835404028352916020019161151f565b820191906000526020600020905b81548152906001019060200180831161150257829003601f168201915b50505050508152505090505b92915050565b80356001600160401b038116811461154857600080fd5b919050565b6000806000806060858703121561156357600080fd5b8435935061157360208601611531565b925060408501356001600160401b038082111561158f57600080fd5b818701915087601f8301126115a357600080fd5b8135818111156115b257600080fd5b8860208285010111156115c457600080fd5b95989497505060200194505050565b6000806000606084860312156115e857600080fd5b833592506115f860208501611531565b915061160660408501611531565b90509250925092565b60006020828403121561162157600080fd5b5035919050565b80356001600160a01b038116811461154857600080fd5b6000806040838503121561165257600080fd5b61165b83611628565b91506020830135801515811461167057600080fd5b809150509250929050565b6000806040838503121561168e57600080fd5b8235915061169e60208401611531565b90509250929050565b6000602082840312156116b957600080fd5b6116c282611628565b9392505050565b600080604083850312156116dc57600080fd5b50508035926020909101359150565b60006020808352835160070b602084015260208401516001600160401b0380821660408601528060408701511660608601525050606084015160808085015280518060a086015260005b818110156117515782810184015186820160c001528301611735565b50600060c0828701015260c0601f19601f830116860101935050505092915050565b6020808252601c908201527f506f696e74734c65646765723a206e6f7420617574686f72697a656400000000604082015260600190565b60208082526018908201527f506f696e74734c65646765723a207a65726f20706f7049640000000000000000604082015260600190565b634e487b7160e01b600052601160045260246000fd5b600782810b9082900b03677fffffffffffffff198112677fffffffffffffff8213171561152b5761152b6117e1565b6001600160401b03818116838216019080821115611846576118466117e1565b5092915050565b60008160070b677fffffffffffffff19810361186b5761186b6117e1565b60000392915050565b634e487b7160e01b600052604160045260246000fd5b600181811c9082168061189e57607f821691505b6020821081036118be57634e487b7160e01b600052602260045260246000fd5b50919050565b601f821115611910576000816000526020600020601f850160051c810160208610156118ed5750805b601f850160051c820191505b8181101561190c578281556001016118f9565b5050505b505050565b81516001600160401b0381111561192e5761192e611874565b6119428161193c845461188a565b846118c4565b602080601f831160018114611977576000841561195f5750858301515b600019600386901b1c1916600185901b17855561190c565b600085815260208120601f198616915b828110156119a657888601518255948401946001909101908401611987565b50858210156119c45787850151600019600388901b60f8161c191681555b5050505050600190811b01905550565b6001600160401b038416815260406020820152816040820152818360608301376000818301606090810191909152601f909201601f1916010192915050565b6001600160401b03828116828216039080821115611846576118466117e1565b600781810b9083900b01677fffffffffffffff8113677fffffffffffffff198212171561152b5761152b6117e1565b634e487b7160e01b600052603260045260246000fd5b6000808354611a868161188a565b60018281168015611a9e5760018114611ab357611ae2565b60ff1984168752821515830287019450611ae2565b8760005260208060002060005b85811015611ad95781548a820152908401908201611ac0565b50505082870194505b5092969550505050505056fea2646970667358221220f31d1e081970fdd76f0ad875132f5e56a9acf124e37b5c12841b3446aa1e83f864736f6c63430008180033","opcodes":"PUSH1 0x80 PUSH1 0x40 MSTORE CALLVALUE DUP1 ISZERO PUSH2 0x10 JUMPI PUSH1 0x0 DUP1 REVERT JUMPDEST POP PUSH1 0x40 MLOAD PUSH2 0x1C11 CODESIZE SUB DUP1 PUSH2 0x1C11 DUP4 CODECOPY DUP2 ADD PUSH1 0x40 DUP2 SWAP1 MSTORE PUSH2 0x2F SWAP2 PUSH2 0xAE JUMP JUMPDEST PUSH1 0x1 PUSH1 0x1 PUSH1 0xA0 SHL SUB DUP2 AND PUSH2 0x89 JUMPI PUSH1 0x40 MLOAD PUSH3 0x461BCD PUSH1 0xE5 SHL DUP2 MSTORE PUSH1 0x20 PUSH1 0x4 DUP3 ADD MSTORE PUSH1 0x18 PUSH1 0x24 DUP3 ADD MSTORE PUSH32 0x506F696E74734C65646765723A207A65726F2061646D696E0000000000000000 PUSH1 0x44 DUP3 ADD MSTORE PUSH1 0x64 ADD PUSH1 0x40 MLOAD DUP1 SWAP2 SUB SWAP1 REVERT JUMPDEST PUSH1 0x0 DUP1 SLOAD PUSH1 0x1 PUSH1 0x1 PUSH1 0xA0 SHL SUB NOT AND PUSH1 0x1 PUSH1 0x1 PUSH1 0xA0 SHL SUB SWAP3 SWAP1 SWAP3 AND SWAP2 SWAP1 SWAP2 OR SWAP1 SSTORE PUSH2 0xDE JUMP JUMPDEST PUSH1 0x0 PUSH1 0x20 DUP3 DUP5 SUB SLT ISZERO PUSH2 0xC0 JUMPI PUSH1 0x0 DUP1 REVERT JUMPDEST DUP2 MLOAD PUSH1 0x1 PUSH1 0x1 PUSH1 0xA0 SHL SUB DUP2 AND DUP2 EQ PUSH2 0xD7 JUMPI PUSH1 0x0 DUP1 REVERT JUMPDEST SWAP4 SWAP3 POP POP POP JUMP JUMPDEST PUSH2 0x1B24 DUP1 PUSH2 0xED PUSH1 0x0 CODECOPY PUSH1 0x0 RETURN INVALID PUSH1 0x80 PUSH1 0x40 MSTORE CALLVALUE DUP1 ISZERO PUSH2 0x10 JUMPI PUSH1 0x0 DUP1 REVERT JUMPDEST POP PUSH1 0x4 CALLDATASIZE LT PUSH2 0xEA JUMPI PUSH1 0x0 CALLDATALOAD PUSH1 0xE0 SHR DUP1 PUSH4 0x71ADA821 GT PUSH2 0x8C JUMPI DUP1 PUSH4 0x8E739461 GT PUSH2 0x66 JUMPI DUP1 PUSH4 0x8E739461 EQ PUSH2 0x208 JUMPI DUP1 PUSH4 0xB9181611 EQ PUSH2 0x325 JUMPI DUP1 PUSH4 0xF851A440 EQ PUSH2 0x358 JUMPI DUP1 PUSH4 0xFF78C9DB EQ PUSH2 0x383 JUMPI PUSH1 0x0 DUP1 REVERT JUMPDEST DUP1 PUSH4 0x71ADA821 EQ PUSH2 0x196 JUMPI DUP1 PUSH4 0x75829DEF EQ PUSH2 0x1E2 JUMPI DUP1 PUSH4 0x870166A6 EQ PUSH2 0x1F5 JUMPI PUSH1 0x0 DUP1 REVERT JUMPDEST DUP1 PUSH4 0x43905859 GT PUSH2 0xC8 JUMPI DUP1 PUSH4 0x43905859 EQ PUSH2 0x12A JUMPI DUP1 PUSH4 0x61EB1036 EQ PUSH2 0x15D JUMPI DUP1 PUSH4 0x711BF9B2 EQ PUSH2 0x170 JUMPI DUP1 PUSH4 0x7162FD75 EQ PUSH2 0x183 JUMPI PUSH1 0x0 DUP1 REVERT JUMPDEST DUP1 PUSH4 0x29DB3A6 EQ PUSH2 0xEF JUMPI DUP1 PUSH4 0xEF73894 EQ PUSH2 0x104 JUMPI DUP1 PUSH4 0x143C44DC EQ PUSH2 0x117 JUMPI JUMPDEST PUSH1 0x0 DUP1 REVERT JUMPDEST PUSH2 0x102 PUSH2 0xFD CALLDATASIZE PUSH1 0x4 PUSH2 0x154D JUMP JUMPDEST PUSH2 0x3A3 JUMP JUMPDEST STOP JUMPDEST PUSH2 0x102 PUSH2 0x112 CALLDATASIZE PUSH1 0x4 PUSH2 0x15D3 JUMP JUMPDEST PUSH2 0x6A0 JUMP JUMPDEST PUSH2 0x102 PUSH2 0x125 CALLDATASIZE PUSH1 0x4 PUSH2 0x15D3 JUMP JUMPDEST PUSH2 0xA1C JUMP JUMPDEST PUSH2 0x14A PUSH2 0x138 CALLDATASIZE PUSH1 0x4 PUSH2 0x160F JUMP JUMPDEST PUSH1 0x0 SWAP1 DUP2 MSTORE PUSH1 0x3 PUSH1 0x20 MSTORE PUSH1 0x40 SWAP1 KECCAK256 SLOAD SWAP1 JUMP JUMPDEST PUSH1 0x40 MLOAD SWAP1 DUP2 MSTORE PUSH1 0x20 ADD JUMPDEST PUSH1 0x40 MLOAD DUP1 SWAP2 SUB SWAP1 RETURN JUMPDEST PUSH2 0x102 PUSH2 0x16B CALLDATASIZE PUSH1 0x4 PUSH2 0x154D JUMP JUMPDEST PUSH2 0xC87 JUMP JUMPDEST PUSH2 0x102 PUSH2 0x17E CALLDATASIZE PUSH1 0x4 PUSH2 0x163F JUMP JUMPDEST PUSH2 0xF63 JUMP JUMPDEST PUSH2 0x102 PUSH2 0x191 CALLDATASIZE PUSH1 0x4 PUSH2 0x15D3 JUMP JUMPDEST PUSH2 0x1016 JUMP JUMPDEST PUSH2 0x1CA PUSH2 0x1A4 CALLDATASIZE PUSH1 0x4 PUSH2 0x167B JUMP JUMPDEST PUSH1 0x4 PUSH1 0x20 SWAP1 DUP2 MSTORE PUSH1 0x0 SWAP3 DUP4 MSTORE PUSH1 0x40 DUP1 DUP5 KECCAK256 SWAP1 SWAP2 MSTORE SWAP1 DUP3 MSTORE SWAP1 KECCAK256 SLOAD PUSH1 0x1 PUSH1 0x1 PUSH1 0x40 SHL SUB AND DUP2 JUMP JUMPDEST PUSH1 0x40 MLOAD PUSH1 0x1 PUSH1 0x1 PUSH1 0x40 SHL SUB SWAP1 SWAP2 AND DUP2 MSTORE PUSH1 0x20 ADD PUSH2 0x154 JUMP JUMPDEST PUSH2 0x102 PUSH2 0x1F0 CALLDATASIZE PUSH1 0x4 PUSH2 0x16A7 JUMP JUMPDEST PUSH2 0x120D JUMP JUMPDEST PUSH2 0x1CA PUSH2 0x203 CALLDATASIZE PUSH1 0x4 PUSH2 0x15D3 JUMP JUMPDEST PUSH2 0x12D9 JUMP JUMPDEST PUSH2 0x2C0 PUSH2 0x216 CALLDATASIZE PUSH1 0x4 PUSH2 0x160F JUMP JUMPDEST PUSH1 0x40 DUP1 MLOAD PUSH1 0xC0 DUP2 ADD DUP3 MSTORE PUSH1 0x0 DUP1 DUP3 MSTORE PUSH1 0x20 DUP3 ADD DUP2 SWAP1 MSTORE SWAP2 DUP2 ADD DUP3 SWAP1 MSTORE PUSH1 0x60 DUP2 ADD DUP3 SWAP1 MSTORE PUSH1 0x80 DUP2 ADD DUP3 SWAP1 MSTORE PUSH1 0xA0 DUP2 ADD SWAP2 SWAP1 SWAP2 MSTORE POP PUSH1 0x0 SWAP1 DUP2 MSTORE PUSH1 0x2 PUSH1 0x20 SWAP1 DUP2 MSTORE PUSH1 0x40 SWAP2 DUP3 SWAP1 KECCAK256 DUP3 MLOAD PUSH1 0xC0 DUP2 ADD DUP5 MSTORE DUP2 SLOAD PUSH1 0x7 DUP2 DUP2 SIGNEXTEND DUP4 MSTORE PUSH1 0x1 PUSH1 0x40 SHL DUP1 DUP4 DIV PUSH1 0x1 PUSH1 0x1 PUSH1 0x40 SHL SUB SWAP1 DUP2 AND SWAP7 DUP6 ADD SWAP7 SWAP1 SWAP7 MSTORE PUSH1 0x1 PUSH1 0x80 SHL DUP4 DIV DUP7 AND SWAP7 DUP5 ADD SWAP7 SWAP1 SWAP7 MSTORE PUSH1 0x1 PUSH1 0xC0 SHL SWAP1 SWAP2 DIV DUP5 AND PUSH1 0x60 DUP4 ADD MSTORE PUSH1 0x1 SWAP1 SWAP3 ADD SLOAD SWAP2 DUP3 SWAP1 SIGNEXTEND PUSH1 0x80 DUP3 ADD MSTORE SWAP3 SWAP1 DIV AND PUSH1 0xA0 DUP3 ADD MSTORE SWAP1 JUMP JUMPDEST PUSH1 0x40 MLOAD PUSH2 0x154 SWAP2 SWAP1 PUSH1 0x0 PUSH1 0xC0 DUP3 ADD SWAP1 POP DUP3 MLOAD PUSH1 0x7 SIGNEXTEND DUP3 MSTORE PUSH1 0x20 DUP4 ADD MLOAD PUSH1 0x1 PUSH1 0x1 PUSH1 0x40 SHL SUB DUP1 DUP3 AND PUSH1 0x20 DUP6 ADD MSTORE DUP1 PUSH1 0x40 DUP7 ADD MLOAD AND PUSH1 0x40 DUP6 ADD MSTORE DUP1 PUSH1 0x60 DUP7 ADD MLOAD AND PUSH1 0x60 DUP6 ADD MSTORE PUSH1 0x80 DUP6 ADD MLOAD PUSH1 0x7 SIGNEXTEND PUSH1 0x80 DUP6 ADD MSTORE DUP1 PUSH1 0xA0 DUP7 ADD MLOAD AND PUSH1 0xA0 DUP6 ADD MSTORE POP POP SWAP3 SWAP2 POP POP JUMP JUMPDEST PUSH2 0x348 PUSH2 0x333 CALLDATASIZE PUSH1 0x4 PUSH2 0x16A7 JUMP JUMPDEST PUSH1 0x1 PUSH1 0x20 MSTORE PUSH1 0x0 SWAP1 DUP2 MSTORE PUSH1 0x40 SWAP1 KECCAK256 SLOAD PUSH1 0xFF AND DUP2 JUMP JUMPDEST PUSH1 0x40 MLOAD SWAP1 ISZERO ISZERO DUP2 MSTORE PUSH1 0x20 ADD PUSH2 0x154 JUMP JUMPDEST PUSH1 0x0 SLOAD PUSH2 0x36B SWAP1 PUSH1 0x1 PUSH1 0x1 PUSH1 0xA0 SHL SUB AND DUP2 JUMP JUMPDEST PUSH1 0x40 MLOAD PUSH1 0x1 PUSH1 0x1 PUSH1 0xA0 SHL SUB SWAP1 SWAP2 AND DUP2 MSTORE PUSH1 0x20 ADD PUSH2 0x154 JUMP JUMPDEST PUSH2 0x396 PUSH2 0x391 CALLDATASIZE PUSH1 0x4 PUSH2 0x16C9 JUMP JUMPDEST PUSH2 0x13FF JUMP JUMPDEST PUSH1 0x40 MLOAD PUSH2 0x154 SWAP2 SWAP1 PUSH2 0x16EB JUMP JUMPDEST CALLER PUSH1 0x0 SWAP1 DUP2 MSTORE PUSH1 0x1 PUSH1 0x20 MSTORE PUSH1 0x40 SWAP1 KECCAK256 SLOAD PUSH1 0xFF AND PUSH2 0x3DB JUMPI PUSH1 0x40 MLOAD PUSH3 0x461BCD PUSH1 0xE5 SHL DUP2 MSTORE PUSH1 0x4 ADD PUSH2 0x3D2 SWAP1 PUSH2 0x1773 JUMP JUMPDEST PUSH1 0x40 MLOAD DUP1 SWAP2 SUB SWAP1 REVERT JUMPDEST DUP4 PUSH2 0x3F8 JUMPI PUSH1 0x40 MLOAD PUSH3 0x461BCD PUSH1 0xE5 SHL DUP2 MSTORE PUSH1 0x4 ADD PUSH2 0x3D2 SWAP1 PUSH2 0x17AA JUMP JUMPDEST PUSH1 0x0 DUP4 PUSH1 0x1 PUSH1 0x1 PUSH1 0x40 SHL SUB AND GT PUSH2 0x44D JUMPI PUSH1 0x40 MLOAD PUSH3 0x461BCD PUSH1 0xE5 SHL DUP2 MSTORE PUSH1 0x20 PUSH1 0x4 DUP3 ADD MSTORE PUSH1 0x19 PUSH1 0x24 DUP3 ADD MSTORE PUSH25 0x141BDA5B9D1CD3195919D95C8E881E995C9BC8185B5BDD5B9D PUSH1 0x3A SHL PUSH1 0x44 DUP3 ADD MSTORE PUSH1 0x64 ADD PUSH2 0x3D2 JUMP JUMPDEST PUSH1 0x0 DUP5 DUP2 MSTORE PUSH1 0x2 PUSH1 0x20 MSTORE PUSH1 0x40 DUP2 KECCAK256 DUP1 SLOAD SWAP1 SWAP2 DUP6 SWAP2 DUP4 SWAP2 SWAP1 PUSH2 0x472 SWAP1 DUP5 SWAP1 PUSH1 0x7 SIGNEXTEND PUSH2 0x17F7 JUMP JUMPDEST SWAP3 POP PUSH2 0x100 EXP DUP2 SLOAD DUP2 PUSH1 0x1 PUSH1 0x1 PUSH1 0x40 SHL SUB MUL NOT AND SWAP1 DUP4 PUSH1 0x7 SIGNEXTEND PUSH1 0x1 PUSH1 0x1 PUSH1 0x40 SHL SUB AND MUL OR SWAP1 SSTORE POP DUP4 DUP2 PUSH1 0x0 ADD PUSH1 0x10 DUP3 DUP3 DUP3 SWAP1 SLOAD SWAP1 PUSH2 0x100 EXP SWAP1 DIV PUSH1 0x1 PUSH1 0x1 PUSH1 0x40 SHL SUB AND PUSH2 0x4BF SWAP2 SWAP1 PUSH2 0x1826 JUMP JUMPDEST SWAP3 POP PUSH2 0x100 EXP DUP2 SLOAD DUP2 PUSH1 0x1 PUSH1 0x1 PUSH1 0x40 SHL SUB MUL NOT AND SWAP1 DUP4 PUSH1 0x1 PUSH1 0x1 PUSH1 0x40 SHL SUB AND MUL OR SWAP1 SSTORE POP DUP4 DUP2 PUSH1 0x1 ADD PUSH1 0x0 DUP3 DUP3 DUP3 SWAP1 SLOAD SWAP1 PUSH2 0x100 EXP SWAP1 DIV PUSH1 0x7 SIGNEXTEND PUSH2 0x503 SWAP2 SWAP1 PUSH2 0x17F7 JUMP JUMPDEST SWAP3 POP PUSH2 0x100 EXP DUP2 SLOAD DUP2 PUSH1 0x1 PUSH1 0x1 PUSH1 0x40 SHL SUB MUL NOT AND SWAP1 DUP4 PUSH1 0x7 SIGNEXTEND PUSH1 0x1 PUSH1 0x1 PUSH1 0x40 SHL SUB AND MUL OR SWAP1 SSTORE POP NUMBER DUP2 PUSH1 0x1 ADD PUSH1 0x8 PUSH2 0x100 EXP DUP2 SLOAD DUP2 PUSH1 0x1 PUSH1 0x1 PUSH1 0x40 SHL SUB MUL NOT AND SWAP1 DUP4 PUSH1 0x1 PUSH1 0x1 PUSH1 0x40 SHL SUB AND MUL OR SWAP1 SSTORE POP PUSH1 0x3 PUSH1 0x0 DUP7 DUP2 MSTORE PUSH1 0x20 ADD SWAP1 DUP2 MSTORE PUSH1 0x20 ADD PUSH1 0x0 KECCAK256 PUSH1 0x40 MLOAD DUP1 PUSH1 0x80 ADD PUSH1 0x40 MSTORE DUP1 DUP7 PUSH2 0x57B SWAP1 PUSH2 0x184D JUMP JUMPDEST PUSH1 0x7 SIGNEXTEND DUP2 MSTORE PUSH1 0x20 ADD NUMBER PUSH1 0x1 PUSH1 0x1 PUSH1 0x40 SHL SUB AND DUP2 MSTORE PUSH1 0x20 ADD PUSH1 0x0 PUSH1 0x1 PUSH1 0x1 PUSH1 0x40 SHL SUB AND DUP2 MSTORE PUSH1 0x20 ADD DUP6 DUP6 DUP1 DUP1 PUSH1 0x1F ADD PUSH1 0x20 DUP1 SWAP2 DIV MUL PUSH1 0x20 ADD PUSH1 0x40 MLOAD SWAP1 DUP2 ADD PUSH1 0x40 MSTORE DUP1 SWAP4 SWAP3 SWAP2 SWAP1 DUP2 DUP2 MSTORE PUSH1 0x20 ADD DUP4 DUP4 DUP1 DUP3 DUP5 CALLDATACOPY PUSH1 0x0 SWAP3 ADD DUP3 SWAP1 MSTORE POP SWAP4 SWAP1 SWAP5 MSTORE POP POP DUP4 SLOAD PUSH1 0x1 DUP2 DUP2 ADD DUP7 SSTORE SWAP5 DUP3 MSTORE PUSH1 0x20 SWAP2 DUP3 SWAP1 KECCAK256 DUP5 MLOAD PUSH1 0x2 SWAP1 SWAP3 MUL ADD DUP1 SLOAD SWAP3 DUP6 ADD MLOAD PUSH1 0x40 DUP7 ADD MLOAD PUSH1 0x1 PUSH1 0x1 PUSH1 0x40 SHL SUB SWAP1 DUP2 AND PUSH1 0x1 PUSH1 0x80 SHL MUL PUSH8 0xFFFFFFFFFFFFFFFF PUSH1 0x80 SHL NOT SWAP3 DUP3 AND PUSH1 0x1 PUSH1 0x40 SHL MUL PUSH1 0x1 PUSH1 0x1 PUSH1 0x80 SHL SUB NOT SWAP1 SWAP7 AND SWAP2 SWAP1 SWAP5 AND OR SWAP4 SWAP1 SWAP4 OR SWAP3 SWAP1 SWAP3 AND OR DUP2 SSTORE PUSH1 0x60 DUP4 ADD MLOAD SWAP3 SWAP4 SWAP1 SWAP3 SWAP1 DUP4 ADD SWAP2 POP PUSH2 0x65A SWAP1 DUP3 PUSH2 0x1915 JUMP JUMPDEST POP POP POP DUP5 PUSH32 0x2D8E2739FE22D2C6401DD77A063076BB1DABD239E5F275851663AD916215BD88 DUP6 DUP6 DUP6 PUSH1 0x40 MLOAD PUSH2 0x691 SWAP4 SWAP3 SWAP2 SWAP1 PUSH2 0x19D4 JUMP JUMPDEST PUSH1 0x40 MLOAD DUP1 SWAP2 SUB SWAP1 LOG2 POP POP POP POP POP JUMP JUMPDEST CALLER PUSH1 0x0 SWAP1 DUP2 MSTORE PUSH1 0x1 PUSH1 0x20 MSTORE PUSH1 0x40 SWAP1 KECCAK256 SLOAD PUSH1 0xFF AND PUSH2 0x6CF JUMPI PUSH1 0x40 MLOAD PUSH3 0x461BCD PUSH1 0xE5 SHL DUP2 MSTORE PUSH1 0x4 ADD PUSH2 0x3D2 SWAP1 PUSH2 0x1773 JUMP JUMPDEST PUSH1 0x0 DUP4 DUP2 MSTORE PUSH1 0x2 PUSH1 0x20 SWAP1 DUP2 MSTORE PUSH1 0x40 DUP1 DUP4 KECCAK256 PUSH1 0x4 DUP4 MSTORE DUP2 DUP5 KECCAK256 PUSH1 0x1 PUSH1 0x1 PUSH1 0x40 SHL SUB DUP1 DUP8 AND DUP7 MSTORE SWAP4 MSTORE SWAP1 DUP4 KECCAK256 SLOAD SWAP1 SWAP3 SWAP1 DUP3 AND SWAP2 DUP6 AND DUP3 LT PUSH2 0x70E JUMPI DUP5 PUSH2 0x710 JUMP JUMPDEST DUP2 JUMPDEST SWAP1 POP PUSH1 0x1 PUSH1 0x1 PUSH1 0x40 SHL SUB DUP2 AND ISZERO PUSH2 0x7B8 JUMPI DUP3 SLOAD DUP2 SWAP1 DUP5 SWAP1 PUSH1 0x18 SWAP1 PUSH2 0x745 SWAP1 DUP5 SWAP1 PUSH1 0x1 PUSH1 0xC0 SHL SWAP1 DIV PUSH1 0x1 PUSH1 0x1 PUSH1 0x40 SHL SUB AND PUSH2 0x1A13 JUMP JUMPDEST DUP3 SLOAD PUSH2 0x100 SWAP3 SWAP1 SWAP3 EXP PUSH1 0x1 PUSH1 0x1 PUSH1 0x40 SHL SUB DUP2 DUP2 MUL NOT SWAP1 SWAP4 AND SWAP2 DUP4 AND MUL OR SWAP1 SWAP2 SSTORE PUSH1 0x0 DUP9 DUP2 MSTORE PUSH1 0x4 PUSH1 0x20 SWAP1 DUP2 MSTORE PUSH1 0x40 DUP1 DUP4 KECCAK256 DUP10 DUP6 AND DUP5 MSTORE SWAP1 SWAP2 MSTORE DUP2 KECCAK256 DUP1 SLOAD DUP6 SWAP5 POP SWAP1 SWAP3 PUSH2 0x793 SWAP2 DUP6 SWAP2 AND PUSH2 0x1A13 JUMP JUMPDEST SWAP3 POP PUSH2 0x100 EXP DUP2 SLOAD DUP2 PUSH1 0x1 PUSH1 0x1 PUSH1 0x40 SHL SUB MUL NOT AND SWAP1 DUP4 PUSH1 0x1 PUSH1 0x1 PUSH1 0x40 SHL SUB AND MUL OR SWAP1 SSTORE POP JUMPDEST DUP3 SLOAD DUP6 SWAP1 DUP5 SWAP1 PUSH1 0x0 SWAP1 PUSH2 0x7CF SWAP1 DUP5 SWAP1 PUSH1 0x7 SIGNEXTEND PUSH2 0x17F7 JUMP JUMPDEST SWAP3 POP PUSH2 0x100 EXP DUP2 SLOAD DUP2 PUSH1 0x1 PUSH1 0x1 PUSH1 0x40 SHL SUB MUL NOT AND SWAP1 DUP4 PUSH1 0x7 SIGNEXTEND PUSH1 0x1 PUSH1 0x1 PUSH1 0x40 SHL SUB AND MUL OR SWAP1 SSTORE POP DUP5 DUP4 PUSH1 0x0 ADD PUSH1 0x10 DUP3 DUP3 DUP3 SWAP1 SLOAD SWAP1 PUSH2 0x100 EXP SWAP1 DIV PUSH1 0x1 PUSH1 0x1 PUSH1 0x40 SHL SUB AND PUSH2 0x81C SWAP2 SWAP1 PUSH2 0x1826 JUMP JUMPDEST SWAP3 POP PUSH2 0x100 EXP DUP2 SLOAD DUP2 PUSH1 0x1 PUSH1 0x1 PUSH1 0x40 SHL SUB MUL NOT AND SWAP1 DUP4 PUSH1 0x1 PUSH1 0x1 PUSH1 0x40 SHL SUB AND MUL OR SWAP1 SSTORE POP DUP1 PUSH1 0x1 PUSH1 0x1 PUSH1 0x40 SHL SUB AND DUP6 PUSH1 0x1 PUSH1 0x1 PUSH1 0x40 SHL SUB AND GT ISZERO PUSH2 0x8A3 JUMPI PUSH2 0x864 DUP2 DUP7 PUSH2 0x1A13 JUMP JUMPDEST PUSH1 0x1 DUP5 ADD DUP1 SLOAD PUSH1 0x0 SWAP1 PUSH2 0x87B SWAP1 DUP5 SWAP1 PUSH1 0x7 SIGNEXTEND PUSH2 0x17F7 JUMP JUMPDEST SWAP3 POP PUSH2 0x100 EXP DUP2 SLOAD DUP2 PUSH1 0x1 PUSH1 0x1 PUSH1 0x40 SHL SUB MUL NOT AND SWAP1 DUP4 PUSH1 0x7 SIGNEXTEND PUSH1 0x1 PUSH1 0x1 PUSH1 0x40 SHL SUB AND MUL OR SWAP1 SSTORE POP JUMPDEST PUSH1 0x1 DUP4 ADD DUP1 SLOAD PUSH8 0xFFFFFFFFFFFFFFFF PUSH1 0x40 SHL NOT AND PUSH1 0x1 PUSH1 0x40 SHL NUMBER PUSH1 0x1 PUSH1 0x1 PUSH1 0x40 SHL SUB AND MUL OR SWAP1 SSTORE PUSH1 0x0 DUP7 DUP2 MSTORE PUSH1 0x3 PUSH1 0x20 MSTORE PUSH1 0x40 SWAP1 DUP2 SWAP1 KECCAK256 DUP2 MLOAD PUSH1 0x80 DUP2 ADD SWAP1 SWAP3 MSTORE SWAP1 DUP1 PUSH2 0x8EE DUP9 PUSH2 0x184D JUMP JUMPDEST PUSH1 0x7 SIGNEXTEND DUP2 MSTORE PUSH1 0x1 PUSH1 0x1 PUSH1 0x40 SHL SUB NUMBER DUP2 AND PUSH1 0x20 DUP1 DUP5 ADD SWAP2 SWAP1 SWAP2 MSTORE DUP9 DUP3 AND PUSH1 0x40 DUP1 DUP6 ADD SWAP2 SWAP1 SWAP2 MSTORE DUP1 MLOAD DUP1 DUP3 ADD DUP3 MSTORE PUSH1 0xD DUP2 MSTORE PUSH13 0x766F7563685F70656E616C7479 PUSH1 0x98 SHL DUP2 DUP5 ADD MSTORE PUSH1 0x60 SWAP5 DUP6 ADD MSTORE DUP6 SLOAD PUSH1 0x1 DUP2 DUP2 ADD DUP9 SSTORE PUSH1 0x0 SWAP8 DUP9 MSTORE SWAP7 DUP4 SWAP1 KECCAK256 DUP7 MLOAD PUSH1 0x2 SWAP1 SWAP3 MUL ADD DUP1 SLOAD SWAP4 DUP8 ADD MLOAD SWAP3 DUP8 ADD MLOAD DUP6 AND PUSH1 0x1 PUSH1 0x80 SHL MUL PUSH8 0xFFFFFFFFFFFFFFFF PUSH1 0x80 SHL NOT SWAP4 DUP7 AND PUSH1 0x1 PUSH1 0x40 SHL MUL PUSH1 0x1 PUSH1 0x1 PUSH1 0x80 SHL SUB NOT SWAP1 SWAP6 AND SWAP3 SWAP1 SWAP6 AND SWAP2 SWAP1 SWAP2 OR SWAP3 SWAP1 SWAP3 OR AND SWAP2 SWAP1 SWAP2 OR DUP2 SSTORE SWAP1 DUP3 ADD MLOAD SWAP2 SWAP3 SWAP1 SWAP2 SWAP1 DUP3 ADD SWAP1 PUSH2 0x9B0 SWAP1 DUP3 PUSH2 0x1915 JUMP JUMPDEST POP POP PUSH1 0x40 DUP1 MLOAD PUSH1 0x1 PUSH1 0x1 PUSH1 0x40 SHL SUB DUP9 AND DUP2 MSTORE PUSH1 0x20 DUP2 ADD DUP3 SWAP1 MSTORE PUSH1 0xD DUP2 DUP4 ADD MSTORE PUSH13 0x766F7563685F70656E616C7479 PUSH1 0x98 SHL PUSH1 0x60 DUP3 ADD MSTORE SWAP1 MLOAD DUP9 SWAP3 POP PUSH32 0x2D8E2739FE22D2C6401DD77A063076BB1DABD239E5F275851663AD916215BD88 SWAP2 DUP2 SWAP1 SUB PUSH1 0x80 ADD SWAP1 LOG2 POP POP POP POP POP POP JUMP JUMPDEST CALLER PUSH1 0x0 SWAP1 DUP2 MSTORE PUSH1 0x1 PUSH1 0x20 MSTORE PUSH1 0x40 SWAP1 KECCAK256 SLOAD PUSH1 0xFF AND PUSH2 0xA4B JUMPI PUSH1 0x40 MLOAD PUSH3 0x461BCD PUSH1 0xE5 SHL DUP2 MSTORE PUSH1 0x4 ADD PUSH2 0x3D2 SWAP1 PUSH2 0x1773 JUMP JUMPDEST DUP3 PUSH2 0xA68 JUMPI PUSH1 0x40 MLOAD PUSH3 0x461BCD PUSH1 0xE5 SHL DUP2 MSTORE PUSH1 0x4 ADD PUSH2 0x3D2 SWAP1 PUSH2 0x17AA JUMP JUMPDEST DUP1 PUSH1 0x1 PUSH1 0x1 PUSH1 0x40 SHL SUB AND PUSH1 0x0 SUB PUSH2 0xAC1 JUMPI PUSH1 0x40 MLOAD PUSH3 0x461BCD PUSH1 0xE5 SHL DUP2 MSTORE PUSH1 0x20 PUSH1 0x4 DUP3 ADD MSTORE PUSH1 0x1A PUSH1 0x24 DUP3 ADD MSTORE PUSH32 0x506F696E74734C65646765723A207A65726F20766F7563684964000000000000 PUSH1 0x44 DUP3 ADD MSTORE PUSH1 0x64 ADD PUSH2 0x3D2 JUMP JUMPDEST PUSH1 0x0 DUP4 DUP2 MSTORE PUSH1 0x2 PUSH1 0x20 MSTORE PUSH1 0x40 SWAP1 KECCAK256 PUSH1 0x1 DUP2 ADD SLOAD PUSH1 0x7 DUP5 DUP2 SIGNEXTEND SWAP2 SWAP1 SIGNEXTEND SLT ISZERO PUSH2 0xB36 JUMPI PUSH1 0x40 MLOAD PUSH3 0x461BCD PUSH1 0xE5 SHL DUP2 MSTORE PUSH1 0x20 PUSH1 0x4 DUP3 ADD MSTORE PUSH1 0x24 DUP1 DUP3 ADD MSTORE PUSH32 0x506F696E74734C65646765723A20696E73756666696369656E7420617661696C PUSH1 0x44 DUP3 ADD MSTORE PUSH4 0x61626C65 PUSH1 0xE0 SHL PUSH1 0x64 DUP3 ADD MSTORE PUSH1 0x84 ADD PUSH2 0x3D2 JUMP JUMPDEST DUP1 SLOAD DUP4 SWAP1 DUP3 SWAP1 PUSH1 0x18 SWAP1 PUSH2 0xB5A SWAP1 DUP5 SWAP1 PUSH1 0x1 PUSH1 0xC0 SHL SWAP1 DIV PUSH1 0x1 PUSH1 0x1 PUSH1 0x40 SHL SUB AND PUSH2 0x1826 JUMP JUMPDEST SWAP3 POP PUSH2 0x100 EXP DUP2 SLOAD DUP2 PUSH1 0x1 PUSH1 0x1 PUSH1 0x40 SHL SUB MUL NOT AND SWAP1 DUP4 PUSH1 0x1 PUSH1 0x1 PUSH1 0x40 SHL SUB AND MUL OR SWAP1 SSTORE POP DUP3 DUP2 PUSH1 0x1 ADD PUSH1 0x0 DUP3 DUP3 DUP3 SWAP1 SLOAD SWAP1 PUSH2 0x100 EXP SWAP1 DIV PUSH1 0x7 SIGNEXTEND PUSH2 0xB9E SWAP2 SWAP1 PUSH2 0x17F7 JUMP JUMPDEST DUP3 SLOAD PUSH2 0x100 SWAP3 SWAP1 SWAP3 EXP PUSH1 0x1 PUSH1 0x1 PUSH1 0x40 SHL SUB DUP2 DUP2 MUL NOT SWAP1 SWAP4 AND SWAP2 DUP4 AND MUL OR SWAP1 SWAP2 SSTORE PUSH1 0x1 DUP4 ADD DUP1 SLOAD PUSH8 0xFFFFFFFFFFFFFFFF PUSH1 0x40 SHL NOT AND PUSH1 0x1 PUSH1 0x40 SHL NUMBER DUP5 AND MUL OR SWAP1 SSTORE PUSH1 0x0 DUP7 DUP2 MSTORE PUSH1 0x4 PUSH1 0x20 SWAP1 DUP2 MSTORE PUSH1 0x40 DUP1 DUP4 KECCAK256 DUP8 DUP6 AND DUP5 MSTORE SWAP1 SWAP2 MSTORE DUP2 KECCAK256 DUP1 SLOAD DUP8 SWAP5 POP SWAP1 SWAP3 PUSH2 0xC0C SWAP2 DUP6 SWAP2 AND PUSH2 0x1826 JUMP JUMPDEST SWAP3 POP PUSH2 0x100 EXP DUP2 SLOAD DUP2 PUSH1 0x1 PUSH1 0x1 PUSH1 0x40 SHL SUB MUL NOT AND SWAP1 DUP4 PUSH1 0x1 PUSH1 0x1 PUSH1 0x40 SHL SUB AND MUL OR SWAP1 SSTORE POP DUP2 PUSH1 0x1 PUSH1 0x1 PUSH1 0x40 SHL SUB AND DUP5 PUSH32 0xC6D65BC35500E0D2F7329D39F91E79186885F4A4367B15DFDD20BDC9606F12CC DUP6 PUSH1 0x40 MLOAD PUSH2 0xC79 SWAP2 SWAP1 PUSH1 0x1 PUSH1 0x1 PUSH1 0x40 SHL SUB SWAP2 SWAP1 SWAP2 AND DUP2 MSTORE PUSH1 0x20 ADD SWAP1 JUMP JUMPDEST PUSH1 0x40 MLOAD DUP1 SWAP2 SUB SWAP1 LOG3 POP POP POP POP JUMP JUMPDEST CALLER PUSH1 0x0 SWAP1 DUP2 MSTORE PUSH1 0x1 PUSH1 0x20 MSTORE PUSH1 0x40 SWAP1 KECCAK256 SLOAD PUSH1 0xFF AND PUSH2 0xCB6 JUMPI PUSH1 0x40 MLOAD PUSH3 0x461BCD PUSH1 0xE5 SHL DUP2 MSTORE PUSH1 0x4 ADD PUSH2 0x3D2 SWAP1 PUSH2 0x1773 JUMP JUMPDEST DUP4 PUSH2 0xCD3 JUMPI PUSH1 0x40 MLOAD PUSH3 0x461BCD PUSH1 0xE5 SHL DUP2 MSTORE PUSH1 0x4 ADD PUSH2 0x3D2 SWAP1 PUSH2 0x17AA JUMP JUMPDEST PUSH1 0x0 DUP4 PUSH1 0x1 PUSH1 0x1 PUSH1 0x40 SHL SUB AND GT PUSH2 0xD28 JUMPI PUSH1 0x40 MLOAD PUSH3 0x461BCD PUSH1 0xE5 SHL DUP2 MSTORE PUSH1 0x20 PUSH1 0x4 DUP3 ADD MSTORE PUSH1 0x19 PUSH1 0x24 DUP3 ADD MSTORE PUSH25 0x141BDA5B9D1CD3195919D95C8E881E995C9BC8185B5BDD5B9D PUSH1 0x3A SHL PUSH1 0x44 DUP3 ADD MSTORE PUSH1 0x64 ADD PUSH2 0x3D2 JUMP JUMPDEST PUSH1 0x0 DUP5 DUP2 MSTORE PUSH1 0x2 PUSH1 0x20 MSTORE PUSH1 0x40 DUP2 KECCAK256 DUP1 SLOAD SWAP1 SWAP2 DUP6 SWAP2 DUP4 SWAP2 SWAP1 PUSH2 0xD4D SWAP1 DUP5 SWAP1 PUSH1 0x7 SIGNEXTEND PUSH2 0x1A33 JUMP JUMPDEST SWAP3 POP PUSH2 0x100 EXP DUP2 SLOAD DUP2 PUSH1 0x1 PUSH1 0x1 PUSH1 0x40 SHL SUB MUL NOT AND SWAP1 DUP4 PUSH1 0x7 SIGNEXTEND PUSH1 0x1 PUSH1 0x1 PUSH1 0x40 SHL SUB AND MUL OR SWAP1 SSTORE POP DUP4 DUP2 PUSH1 0x0 ADD PUSH1 0x8 DUP3 DUP3 DUP3 SWAP1 SLOAD SWAP1 PUSH2 0x100 EXP SWAP1 DIV PUSH1 0x1 PUSH1 0x1 PUSH1 0x40 SHL SUB AND PUSH2 0xD9A SWAP2 SWAP1 PUSH2 0x1826 JUMP JUMPDEST SWAP3 POP PUSH2 0x100 EXP DUP2 SLOAD DUP2 PUSH1 0x1 PUSH1 0x1 PUSH1 0x40 SHL SUB MUL NOT AND SWAP1 DUP4 PUSH1 0x1 PUSH1 0x1 PUSH1 0x40 SHL SUB AND MUL OR SWAP1 SSTORE POP DUP4 DUP2 PUSH1 0x1 ADD PUSH1 0x0 DUP3 DUP3 DUP3 SWAP1 SLOAD SWAP1 PUSH2 0x100 EXP SWAP1 DIV PUSH1 0x7 SIGNEXTEND PUSH2 0xDDE SWAP2 SWAP1 PUSH2 0x1A33 JUMP JUMPDEST SWAP3 POP PUSH2 0x100 EXP DUP2 SLOAD DUP2 PUSH1 0x1 PUSH1 0x1 PUSH1 0x40 SHL SUB MUL NOT AND SWAP1 DUP4 PUSH1 0x7 SIGNEXTEND PUSH1 0x1 PUSH1 0x1 PUSH1 0x40 SHL SUB AND MUL OR SWAP1 SSTORE POP NUMBER DUP2 PUSH1 0x1 ADD PUSH1 0x8 PUSH2 0x100 EXP DUP2 SLOAD DUP2 PUSH1 0x1 PUSH1 0x1 PUSH1 0x40 SHL SUB MUL NOT AND SWAP1 DUP4 PUSH1 0x1 PUSH1 0x1 PUSH1 0x40 SHL SUB AND MUL OR SWAP1 SSTORE POP PUSH1 0x3 PUSH1 0x0 DUP7 DUP2 MSTORE PUSH1 0x20 ADD SWAP1 DUP2 MSTORE PUSH1 0x20 ADD PUSH1 0x0 KECCAK256 PUSH1 0x40 MLOAD DUP1 PUSH1 0x80 ADD PUSH1 0x40 MSTORE DUP1 DUP7 PUSH1 0x7 SIGNEXTEND DUP2 MSTORE PUSH1 0x20 ADD NUMBER PUSH1 0x1 PUSH1 0x1 PUSH1 0x40 SHL SUB AND DUP2 MSTORE PUSH1 0x20 ADD PUSH1 0x0 PUSH1 0x1 PUSH1 0x1 PUSH1 0x40 SHL SUB AND DUP2 MSTORE PUSH1 0x20 ADD DUP6 DUP6 DUP1 DUP1 PUSH1 0x1F ADD PUSH1 0x20 DUP1 SWAP2 DIV MUL PUSH1 0x20 ADD PUSH1 0x40 MLOAD SWAP1 DUP2 ADD PUSH1 0x40 MSTORE DUP1 SWAP4 SWAP3 SWAP2 SWAP1 DUP2 DUP2 MSTORE PUSH1 0x20 ADD DUP4 DUP4 DUP1 DUP3 DUP5 CALLDATACOPY PUSH1 0x0 SWAP3 ADD DUP3 SWAP1 MSTORE POP SWAP4 SWAP1 SWAP5 MSTORE POP POP DUP4 SLOAD PUSH1 0x1 DUP2 DUP2 ADD DUP7 SSTORE SWAP5 DUP3 MSTORE PUSH1 0x20 SWAP2 DUP3 SWAP1 KECCAK256 DUP5 MLOAD PUSH1 0x2 SWAP1 SWAP3 MUL ADD DUP1 SLOAD SWAP3 DUP6 ADD MLOAD PUSH1 0x40 DUP7 ADD MLOAD PUSH1 0x1 PUSH1 0x1 PUSH1 0x40 SHL SUB SWAP1 DUP2 AND PUSH1 0x1 PUSH1 0x80 SHL MUL PUSH8 0xFFFFFFFFFFFFFFFF PUSH1 0x80 SHL NOT SWAP3 DUP3 AND PUSH1 0x1 PUSH1 0x40 SHL MUL PUSH1 0x1 PUSH1 0x1 PUSH1 0x80 SHL SUB NOT SWAP1 SWAP7 AND SWAP2 SWAP1 SWAP5 AND OR SWAP4 SWAP1 SWAP4 OR SWAP3 SWAP1 SWAP3 AND OR DUP2 SSTORE PUSH1 0x60 DUP4 ADD MLOAD SWAP3 SWAP4 SWAP1 SWAP3 SWAP1 DUP4 ADD SWAP2 POP PUSH2 0xF2C SWAP1 DUP3 PUSH2 0x1915 JUMP JUMPDEST POP POP POP DUP5 PUSH32 0xE52F266631FCAE4AAA689C4362DB7A354B04870A2AD69382DEF6058C8A16860D DUP6 DUP6 DUP6 PUSH1 0x40 MLOAD PUSH2 0x691 SWAP4 SWAP3 SWAP2 SWAP1 PUSH2 0x19D4 JUMP JUMPDEST PUSH1 0x0 SLOAD PUSH1 0x1 PUSH1 0x1 PUSH1 0xA0 SHL SUB AND CALLER EQ PUSH2 0xFB7 JUMPI PUSH1 0x40 MLOAD PUSH3 0x461BCD PUSH1 0xE5 SHL DUP2 MSTORE PUSH1 0x20 PUSH1 0x4 DUP3 ADD MSTORE PUSH1 0x17 PUSH1 0x24 DUP3 ADD MSTORE PUSH23 0x2837B4B73A39A632B233B2B91D103737BA1030B236B4B7 PUSH1 0x49 SHL PUSH1 0x44 DUP3 ADD MSTORE PUSH1 0x64 ADD PUSH2 0x3D2 JUMP JUMPDEST PUSH1 0x1 PUSH1 0x1 PUSH1 0xA0 SHL SUB DUP3 AND PUSH1 0x0 DUP2 DUP2 MSTORE PUSH1 0x1 PUSH1 0x20 SWAP1 DUP2 MSTORE PUSH1 0x40 SWAP2 DUP3 SWAP1 KECCAK256 DUP1 SLOAD PUSH1 0xFF NOT AND DUP6 ISZERO ISZERO SWAP1 DUP2 OR SWAP1 SWAP2 SSTORE SWAP2 MLOAD SWAP2 DUP3 MSTORE PUSH32 0x19FEF6046150BAA445C8F44D75E29317C0FA4C6341A6C8444B3EC4CC48D1E1CE SWAP2 ADD PUSH1 0x40 MLOAD DUP1 SWAP2 SUB SWAP1 LOG2 POP POP JUMP JUMPDEST CALLER PUSH1 0x0 SWAP1 DUP2 MSTORE PUSH1 0x1 PUSH1 0x20 MSTORE PUSH1 0x40 SWAP1 KECCAK256 SLOAD PUSH1 0xFF AND PUSH2 0x1045 JUMPI PUSH1 0x40 MLOAD PUSH3 0x461BCD PUSH1 0xE5 SHL DUP2 MSTORE PUSH1 0x4 ADD PUSH2 0x3D2 SWAP1 PUSH2 0x1773 JUMP JUMPDEST PUSH1 0x0 DUP4 DUP2 MSTORE PUSH1 0x4 PUSH1 0x20 SWAP1 DUP2 MSTORE PUSH1 0x40 DUP1 DUP4 KECCAK256 PUSH1 0x1 PUSH1 0x1 PUSH1 0x40 SHL SUB DUP6 DUP2 AND DUP6 MSTORE SWAP3 MSTORE SWAP1 SWAP2 KECCAK256 SLOAD DUP2 DUP5 AND SWAP2 AND LT ISZERO PUSH2 0x10BC JUMPI PUSH1 0x40 MLOAD PUSH3 0x461BCD PUSH1 0xE5 SHL DUP2 MSTORE PUSH1 0x20 PUSH1 0x4 DUP3 ADD MSTORE PUSH1 0x1F PUSH1 0x24 DUP3 ADD MSTORE PUSH32 0x506F696E74734C65646765723A206E6F7420656E6F756768206C6F636B656400 PUSH1 0x44 DUP3 ADD MSTORE PUSH1 0x64 ADD PUSH2 0x3D2 JUMP JUMPDEST PUSH1 0x0 DUP4 DUP2 MSTORE PUSH1 0x2 PUSH1 0x20 MSTORE PUSH1 0x40 SWAP1 KECCAK256 DUP1 SLOAD DUP4 SWAP1 DUP3 SWAP1 PUSH1 0x18 SWAP1 PUSH2 0x10EE SWAP1 DUP5 SWAP1 PUSH1 0x1 PUSH1 0xC0 SHL SWAP1 DIV PUSH1 0x1 PUSH1 0x1 PUSH1 0x40 SHL SUB AND PUSH2 0x1A13 JUMP JUMPDEST SWAP3 POP PUSH2 0x100 EXP DUP2 SLOAD DUP2 PUSH1 0x1 PUSH1 0x1 PUSH1 0x40 SHL SUB MUL NOT AND SWAP1 DUP4 PUSH1 0x1 PUSH1 0x1 PUSH1 0x40 SHL SUB AND MUL OR SWAP1 SSTORE POP DUP3 DUP2 PUSH1 0x1 ADD PUSH1 0x0 DUP3 DUP3 DUP3 SWAP1 SLOAD SWAP1 PUSH2 0x100 EXP SWAP1 DIV PUSH1 0x7 SIGNEXTEND PUSH2 0x1132 SWAP2 SWAP1 PUSH2 0x1A33 JUMP JUMPDEST DUP3 SLOAD PUSH2 0x100 SWAP3 SWAP1 SWAP3 EXP PUSH1 0x1 PUSH1 0x1 PUSH1 0x40 SHL SUB DUP2 DUP2 MUL NOT SWAP1 SWAP4 AND SWAP2 DUP4 AND MUL OR SWAP1 SWAP2 SSTORE PUSH1 0x1 DUP4 ADD DUP1 SLOAD PUSH8 0xFFFFFFFFFFFFFFFF PUSH1 0x40 SHL NOT AND PUSH1 0x1 PUSH1 0x40 SHL NUMBER DUP5 AND MUL OR SWAP1 SSTORE PUSH1 0x0 DUP7 DUP2 MSTORE PUSH1 0x4 PUSH1 0x20 SWAP1 DUP2 MSTORE PUSH1 0x40 DUP1 DUP4 KECCAK256 DUP8 DUP6 AND DUP5 MSTORE SWAP1 SWAP2 MSTORE DUP2 KECCAK256 DUP1 SLOAD DUP8 SWAP5 POP SWAP1 SWAP3 PUSH2 0x11A0 SWAP2 DUP6 SWAP2 AND PUSH2 0x1A13 JUMP JUMPDEST SWAP3 POP PUSH2 0x100 EXP DUP2 SLOAD DUP2 PUSH1 0x1 PUSH1 0x1 PUSH1 0x40 SHL SUB MUL NOT AND SWAP1 DUP4 PUSH1 0x1 PUSH1 0x1 PUSH1 0x40 SHL SUB AND MUL OR SWAP1 SSTORE POP DUP2 PUSH1 0x1 PUSH1 0x1 PUSH1 0x40 SHL SUB AND DUP5 PUSH32 0x296FD63DD4353D064E702CD895EED43D76548E234B2107B3A81CEDC779C72301 DUP6 PUSH1 0x40 MLOAD PUSH2 0xC79 SWAP2 SWAP1 PUSH1 0x1 PUSH1 0x1 PUSH1 0x40 SHL SUB SWAP2 SWAP1 SWAP2 AND DUP2 MSTORE PUSH1 0x20 ADD SWAP1 JUMP JUMPDEST PUSH1 0x0 SLOAD PUSH1 0x1 PUSH1 0x1 PUSH1 0xA0 SHL SUB AND CALLER EQ PUSH2 0x1261 JUMPI PUSH1 0x40 MLOAD PUSH3 0x461BCD PUSH1 0xE5 SHL DUP2 MSTORE PUSH1 0x20 PUSH1 0x4 DUP3 ADD MSTORE PUSH1 0x17 PUSH1 0x24 DUP3 ADD MSTORE PUSH23 0x2837B4B73A39A632B233B2B91D103737BA1030B236B4B7 PUSH1 0x49 SHL PUSH1 0x44 DUP3 ADD MSTORE PUSH1 0x64 ADD PUSH2 0x3D2 JUMP JUMPDEST PUSH1 0x1 PUSH1 0x1 PUSH1 0xA0 SHL SUB DUP2 AND PUSH2 0x12B7 JUMPI PUSH1 0x40 MLOAD PUSH3 0x461BCD PUSH1 0xE5 SHL DUP2 MSTORE PUSH1 0x20 PUSH1 0x4 DUP3 ADD MSTORE PUSH1 0x18 PUSH1 0x24 DUP3 ADD MSTORE PUSH32 0x506F696E74734C65646765723A207A65726F2061646D696E0000000000000000 PUSH1 0x44 DUP3 ADD MSTORE PUSH1 0x64 ADD PUSH2 0x3D2 JUMP JUMPDEST PUSH1 0x0 DUP1 SLOAD PUSH1 0x1 PUSH1 0x1 PUSH1 0xA0 SHL SUB NOT AND PUSH1 0x1 PUSH1 0x1 PUSH1 0xA0 SHL SUB SWAP3 SWAP1 SWAP3 AND SWAP2 SWAP1 SWAP2 OR SWAP1 SSTORE JUMP JUMPDEST PUSH1 0x40 DUP1 MLOAD DUP1 DUP3 ADD DUP3 MSTORE PUSH1 0xB DUP2 MSTORE PUSH11 0x3B37BAB1B432B22FB337B9 PUSH1 0xA9 SHL PUSH1 0x20 SWAP2 DUP3 ADD MSTORE PUSH1 0x0 DUP6 DUP2 MSTORE PUSH1 0x3 SWAP1 SWAP2 MSTORE SWAP1 DUP2 KECCAK256 PUSH32 0xAB2379253D81B8704A16FB919D1A929BF013958631C38C2C7DD822FBE001FF3 SWAP1 DUP3 SWAP1 DUP2 JUMPDEST DUP2 SLOAD DUP2 LT ISZERO PUSH2 0x13F3 JUMPI PUSH1 0x0 DUP3 DUP3 DUP2 SLOAD DUP2 LT PUSH2 0x134B JUMPI PUSH2 0x134B PUSH2 0x1A62 JUMP JUMPDEST PUSH1 0x0 SWAP2 DUP3 MSTORE PUSH1 0x20 SWAP1 SWAP2 KECCAK256 PUSH1 0x2 SWAP1 SWAP2 MUL ADD DUP1 SLOAD SWAP1 SWAP2 POP PUSH1 0x1 PUSH1 0x1 PUSH1 0x40 SHL SUB DUP1 DUP11 AND PUSH1 0x1 PUSH1 0x40 SHL SWAP1 SWAP3 DIV AND LT DUP1 PUSH2 0x1393 JUMPI POP DUP1 SLOAD PUSH1 0x1 PUSH1 0x1 PUSH1 0x40 SHL SUB DUP1 DUP10 AND PUSH1 0x1 PUSH1 0x40 SHL SWAP1 SWAP3 DIV AND GT JUMPDEST ISZERO PUSH2 0x139E JUMPI POP PUSH2 0x13EB JUMP JUMPDEST DUP1 SLOAD PUSH1 0x0 PUSH1 0x7 SWAP2 SWAP1 SWAP2 SIGNEXTEND SGT PUSH2 0x13B3 JUMPI POP PUSH2 0x13EB JUMP JUMPDEST DUP5 DUP2 PUSH1 0x1 ADD PUSH1 0x40 MLOAD PUSH2 0x13C5 SWAP2 SWAP1 PUSH2 0x1A78 JUMP JUMPDEST PUSH1 0x40 MLOAD DUP1 SWAP2 SUB SWAP1 KECCAK256 SUB PUSH2 0x13D8 JUMPI POP PUSH2 0x13EB JUMP JUMPDEST DUP1 SLOAD PUSH2 0x13E7 SWAP1 PUSH1 0x7 SIGNEXTEND DUP6 PUSH2 0x1826 JUMP JUMPDEST SWAP4 POP POP JUMPDEST PUSH1 0x1 ADD PUSH2 0x132E JUMP JUMPDEST POP SWAP1 SWAP7 SWAP6 POP POP POP POP POP POP JUMP JUMPDEST PUSH1 0x40 DUP1 MLOAD PUSH1 0x80 DUP2 ADD DUP3 MSTORE PUSH1 0x0 DUP1 DUP3 MSTORE PUSH1 0x20 DUP3 ADD DUP2 SWAP1 MSTORE SWAP2 DUP2 ADD SWAP2 SWAP1 SWAP2 MSTORE PUSH1 0x60 DUP1 DUP3 ADD MSTORE PUSH1 0x0 DUP4 DUP2 MSTORE PUSH1 0x3 PUSH1 0x20 MSTORE PUSH1 0x40 SWAP1 KECCAK256 DUP1 SLOAD DUP4 SWAP1 DUP2 LT PUSH2 0x1442 JUMPI PUSH2 0x1442 PUSH2 0x1A62 JUMP JUMPDEST PUSH1 0x0 SWAP2 DUP3 MSTORE PUSH1 0x20 SWAP2 DUP3 SWAP1 KECCAK256 PUSH1 0x40 DUP1 MLOAD PUSH1 0x80 DUP2 ADD DUP3 MSTORE PUSH1 0x2 SWAP1 SWAP4 MUL SWAP1 SWAP2 ADD DUP1 SLOAD PUSH1 0x7 DUP2 SWAP1 SIGNEXTEND DUP5 MSTORE PUSH1 0x1 PUSH1 0x1 PUSH1 0x40 SHL SUB PUSH1 0x1 PUSH1 0x40 SHL DUP3 DIV DUP2 AND SWAP6 DUP6 ADD SWAP6 SWAP1 SWAP6 MSTORE PUSH1 0x1 PUSH1 0x80 SHL SWAP1 DIV SWAP1 SWAP4 AND SWAP1 DUP3 ADD MSTORE PUSH1 0x1 DUP3 ADD DUP1 SLOAD SWAP2 SWAP3 SWAP2 PUSH1 0x60 DUP5 ADD SWAP2 SWAP1 PUSH2 0x14A6 SWAP1 PUSH2 0x188A JUMP JUMPDEST DUP1 PUSH1 0x1F ADD PUSH1 0x20 DUP1 SWAP2 DIV MUL PUSH1 0x20 ADD PUSH1 0x40 MLOAD SWAP1 DUP2 ADD PUSH1 0x40 MSTORE DUP1 SWAP3 SWAP2 SWAP1 DUP2 DUP2 MSTORE PUSH1 0x20 ADD DUP3 DUP1 SLOAD PUSH2 0x14D2 SWAP1 PUSH2 0x188A JUMP JUMPDEST DUP1 ISZERO PUSH2 0x151F JUMPI DUP1 PUSH1 0x1F LT PUSH2 0x14F4 JUMPI PUSH2 0x100 DUP1 DUP4 SLOAD DIV MUL DUP4 MSTORE SWAP2 PUSH1 0x20 ADD SWAP2 PUSH2 0x151F JUMP JUMPDEST DUP3 ADD SWAP2 SWAP1 PUSH1 0x0 MSTORE PUSH1 0x20 PUSH1 0x0 KECCAK256 SWAP1 JUMPDEST DUP2 SLOAD DUP2 MSTORE SWAP1 PUSH1 0x1 ADD SWAP1 PUSH1 0x20 ADD DUP1 DUP4 GT PUSH2 0x1502 JUMPI DUP3 SWAP1 SUB PUSH1 0x1F AND DUP3 ADD SWAP2 JUMPDEST POP POP POP POP POP DUP2 MSTORE POP POP SWAP1 POP JUMPDEST SWAP3 SWAP2 POP POP JUMP JUMPDEST DUP1 CALLDATALOAD PUSH1 0x1 PUSH1 0x1 PUSH1 0x40 SHL SUB DUP2 AND DUP2 EQ PUSH2 0x1548 JUMPI PUSH1 0x0 DUP1 REVERT JUMPDEST SWAP2 SWAP1 POP JUMP JUMPDEST PUSH1 0x0 DUP1 PUSH1 0x0 DUP1 PUSH1 0x60 DUP6 DUP8 SUB SLT ISZERO PUSH2 0x1563 JUMPI PUSH1 0x0 DUP1 REVERT JUMPDEST DUP5 CALLDATALOAD SWAP4 POP PUSH2 0x1573 PUSH1 0x20 DUP7 ADD PUSH2 0x1531 JUMP JUMPDEST SWAP3 POP PUSH1 0x40 DUP6 ADD CALLDATALOAD PUSH1 0x1 PUSH1 0x1 PUSH1 0x40 SHL SUB DUP1 DUP3 GT ISZERO PUSH2 0x158F JUMPI PUSH1 0x0 DUP1 REVERT JUMPDEST DUP2 DUP8 ADD SWAP2 POP DUP8 PUSH1 0x1F DUP4 ADD SLT PUSH2 0x15A3 JUMPI PUSH1 0x0 DUP1 REVERT JUMPDEST DUP2 CALLDATALOAD DUP2 DUP2 GT ISZERO PUSH2 0x15B2 JUMPI PUSH1 0x0 DUP1 REVERT JUMPDEST DUP9 PUSH1 0x20 DUP3 DUP6 ADD ADD GT ISZERO PUSH2 0x15C4 JUMPI PUSH1 0x0 DUP1 REVERT JUMPDEST SWAP6 SWAP9 SWAP5 SWAP8 POP POP PUSH1 0x20 ADD SWAP5 POP POP POP JUMP JUMPDEST PUSH1 0x0 DUP1 PUSH1 0x0 PUSH1 0x60 DUP5 DUP7 SUB SLT ISZERO PUSH2 0x15E8 JUMPI PUSH1 0x0 DUP1 REVERT JUMPDEST DUP4 CALLDATALOAD SWAP3 POP PUSH2 0x15F8 PUSH1 0x20 DUP6 ADD PUSH2 0x1531 JUMP JUMPDEST SWAP2 POP PUSH2 0x1606 PUSH1 0x40 DUP6 ADD PUSH2 0x1531 JUMP JUMPDEST SWAP1 POP SWAP3 POP SWAP3 POP SWAP3 JUMP JUMPDEST PUSH1 0x0 PUSH1 0x20 DUP3 DUP5 SUB SLT ISZERO PUSH2 0x1621 JUMPI PUSH1 0x0 DUP1 REVERT JUMPDEST POP CALLDATALOAD SWAP2 SWAP1 POP JUMP JUMPDEST DUP1 CALLDATALOAD PUSH1 0x1 PUSH1 0x1 PUSH1 0xA0 SHL SUB DUP2 AND DUP2 EQ PUSH2 0x1548 JUMPI PUSH1 0x0 DUP1 REVERT JUMPDEST PUSH1 0x0 DUP1 PUSH1 0x40 DUP4 DUP6 SUB SLT ISZERO PUSH2 0x1652 JUMPI PUSH1 0x0 DUP1 REVERT JUMPDEST PUSH2 0x165B DUP4 PUSH2 0x1628 JUMP JUMPDEST SWAP2 POP PUSH1 0x20 DUP4 ADD CALLDATALOAD DUP1 ISZERO ISZERO DUP2 EQ PUSH2 0x1670 JUMPI PUSH1 0x0 DUP1 REVERT JUMPDEST DUP1 SWAP2 POP POP SWAP3 POP SWAP3 SWAP1 POP JUMP JUMPDEST PUSH1 0x0 DUP1 PUSH1 0x40 DUP4 DUP6 SUB SLT ISZERO PUSH2 0x168E JUMPI PUSH1 0x0 DUP1 REVERT JUMPDEST DUP3 CALLDATALOAD SWAP2 POP PUSH2 0x169E PUSH1 0x20 DUP5 ADD PUSH2 0x1531 JUMP JUMPDEST SWAP1 POP SWAP3 POP SWAP3 SWAP1 POP JUMP JUMPDEST PUSH1 0x0 PUSH1 0x20 DUP3 DUP5 SUB SLT ISZERO PUSH2 0x16B9 JUMPI PUSH1 0x0 DUP1 REVERT JUMPDEST PUSH2 0x16C2 DUP3 PUSH2 0x1628 JUMP JUMPDEST SWAP4 SWAP3 POP POP POP JUMP JUMPDEST PUSH1 0x0 DUP1 PUSH1 0x40 DUP4 DUP6 SUB SLT ISZERO PUSH2 0x16DC JUMPI PUSH1 0x0 DUP1 REVERT JUMPDEST POP POP DUP1 CALLDATALOAD SWAP3 PUSH1 0x20 SWAP1 SWAP2 ADD CALLDATALOAD SWAP2 POP JUMP JUMPDEST PUSH1 0x0 PUSH1 0x20 DUP1 DUP4 MSTORE DUP4 MLOAD PUSH1 0x7 SIGNEXTEND PUSH1 0x20 DUP5 ADD MSTORE PUSH1 0x20 DUP5 ADD MLOAD PUSH1 0x1 PUSH1 0x1 PUSH1 0x40 SHL SUB DUP1 DUP3 AND PUSH1 0x40 DUP7 ADD MSTORE DUP1 PUSH1 0x40 DUP8 ADD MLOAD AND PUSH1 0x60 DUP7 ADD MSTORE POP POP PUSH1 0x60 DUP5 ADD MLOAD PUSH1 0x80 DUP1 DUP6 ADD MSTORE DUP1 MLOAD DUP1 PUSH1 0xA0 DUP7 ADD MSTORE PUSH1 0x0 JUMPDEST DUP2 DUP2 LT ISZERO PUSH2 0x1751 JUMPI DUP3 DUP2 ADD DUP5 ADD MLOAD DUP7 DUP3 ADD PUSH1 0xC0 ADD MSTORE DUP4 ADD PUSH2 0x1735 JUMP JUMPDEST POP PUSH1 0x0 PUSH1 0xC0 DUP3 DUP8 ADD ADD MSTORE PUSH1 0xC0 PUSH1 0x1F NOT PUSH1 0x1F DUP4 ADD AND DUP7 ADD ADD SWAP4 POP POP POP POP SWAP3 SWAP2 POP POP JUMP JUMPDEST PUSH1 0x20 DUP1 DUP3 MSTORE PUSH1 0x1C SWAP1 DUP3 ADD MSTORE PUSH32 0x506F696E74734C65646765723A206E6F7420617574686F72697A656400000000 PUSH1 0x40 DUP3 ADD MSTORE PUSH1 0x60 ADD SWAP1 JUMP JUMPDEST PUSH1 0x20 DUP1 DUP3 MSTORE PUSH1 0x18 SWAP1 DUP3 ADD MSTORE PUSH32 0x506F696E74734C65646765723A207A65726F20706F7049640000000000000000 PUSH1 0x40 DUP3 ADD MSTORE PUSH1 0x60 ADD SWAP1 JUMP JUMPDEST PUSH4 0x4E487B71 PUSH1 0xE0 SHL PUSH1 0x0 MSTORE PUSH1 0x11 PUSH1 0x4 MSTORE PUSH1 0x24 PUSH1 0x0 REVERT JUMPDEST PUSH1 0x7 DUP3 DUP2 SIGNEXTEND SWAP1 DUP3 SWAP1 SIGNEXTEND SUB PUSH8 0x7FFFFFFFFFFFFFFF NOT DUP2 SLT PUSH8 0x7FFFFFFFFFFFFFFF DUP3 SGT OR ISZERO PUSH2 0x152B JUMPI PUSH2 0x152B PUSH2 0x17E1 JUMP JUMPDEST PUSH1 0x1 PUSH1 0x1 PUSH1 0x40 SHL SUB DUP2 DUP2 AND DUP4 DUP3 AND ADD SWAP1 DUP1 DUP3 GT ISZERO PUSH2 0x1846 JUMPI PUSH2 0x1846 PUSH2 0x17E1 JUMP JUMPDEST POP SWAP3 SWAP2 POP POP JUMP JUMPDEST PUSH1 0x0 DUP2 PUSH1 0x7 SIGNEXTEND PUSH8 0x7FFFFFFFFFFFFFFF NOT DUP2 SUB PUSH2 0x186B JUMPI PUSH2 0x186B PUSH2 0x17E1 JUMP JUMPDEST PUSH1 0x0 SUB SWAP3 SWAP2 POP POP JUMP JUMPDEST PUSH4 0x4E487B71 PUSH1 0xE0 SHL PUSH1 0x0 MSTORE PUSH1 0x41 PUSH1 0x4 MSTORE PUSH1 0x24 PUSH1 0x0 REVERT JUMPDEST PUSH1 0x1 DUP2 DUP2 SHR SWAP1 DUP3 AND DUP1 PUSH2 0x189E JUMPI PUSH1 0x7F DUP3 AND SWAP2 POP JUMPDEST PUSH1 0x20 DUP3 LT DUP2 SUB PUSH2 0x18BE JUMPI PUSH4 0x4E487B71 PUSH1 0xE0 SHL PUSH1 0x0 MSTORE PUSH1 0x22 PUSH1 0x4 MSTORE PUSH1 0x24 PUSH1 0x0 REVERT JUMPDEST POP SWAP2 SWAP1 POP JUMP JUMPDEST PUSH1 0x1F DUP3 GT ISZERO PUSH2 0x1910 JUMPI PUSH1 0x0 DUP2 PUSH1 0x0 MSTORE PUSH1 0x20 PUSH1 0x0 KECCAK256 PUSH1 0x1F DUP6 ADD PUSH1 0x5 SHR DUP2 ADD PUSH1 0x20 DUP7 LT ISZERO PUSH2 0x18ED JUMPI POP DUP1 JUMPDEST PUSH1 0x1F DUP6 ADD PUSH1 0x5 SHR DUP3 ADD SWAP2 POP JUMPDEST DUP2 DUP2 LT ISZERO PUSH2 0x190C JUMPI DUP3 DUP2 SSTORE PUSH1 0x1 ADD PUSH2 0x18F9 JUMP JUMPDEST POP POP POP JUMPDEST POP POP POP JUMP JUMPDEST DUP2 MLOAD PUSH1 0x1 PUSH1 0x1 PUSH1 0x40 SHL SUB DUP2 GT ISZERO PUSH2 0x192E JUMPI PUSH2 0x192E PUSH2 0x1874 JUMP JUMPDEST PUSH2 0x1942 DUP2 PUSH2 0x193C DUP5 SLOAD PUSH2 0x188A JUMP JUMPDEST DUP5 PUSH2 0x18C4 JUMP JUMPDEST PUSH1 0x20 DUP1 PUSH1 0x1F DUP4 GT PUSH1 0x1 DUP2 EQ PUSH2 0x1977 JUMPI PUSH1 0x0 DUP5 ISZERO PUSH2 0x195F JUMPI POP DUP6 DUP4 ADD MLOAD JUMPDEST PUSH1 0x0 NOT PUSH1 0x3 DUP7 SWAP1 SHL SHR NOT AND PUSH1 0x1 DUP6 SWAP1 SHL OR DUP6 SSTORE PUSH2 0x190C JUMP JUMPDEST PUSH1 0x0 DUP6 DUP2 MSTORE PUSH1 0x20 DUP2 KECCAK256 PUSH1 0x1F NOT DUP7 AND SWAP2 JUMPDEST DUP3 DUP2 LT ISZERO PUSH2 0x19A6 JUMPI DUP9 DUP7 ADD MLOAD DUP3 SSTORE SWAP5 DUP5 ADD SWAP5 PUSH1 0x1 SWAP1 SWAP2 ADD SWAP1 DUP5 ADD PUSH2 0x1987 JUMP JUMPDEST POP DUP6 DUP3 LT ISZERO PUSH2 0x19C4 JUMPI DUP8 DUP6 ADD MLOAD PUSH1 0x0 NOT PUSH1 0x3 DUP9 SWAP1 SHL PUSH1 0xF8 AND SHR NOT AND DUP2 SSTORE JUMPDEST POP POP POP POP POP PUSH1 0x1 SWAP1 DUP2 SHL ADD SWAP1 SSTORE POP JUMP JUMPDEST PUSH1 0x1 PUSH1 0x1 PUSH1 0x40 SHL SUB DUP5 AND DUP2 MSTORE PUSH1 0x40 PUSH1 0x20 DUP3 ADD MSTORE DUP2 PUSH1 0x40 DUP3 ADD MSTORE DUP2 DUP4 PUSH1 0x60 DUP4 ADD CALLDATACOPY PUSH1 0x0 DUP2 DUP4 ADD PUSH1 0x60 SWAP1 DUP2 ADD SWAP2 SWAP1 SWAP2 MSTORE PUSH1 0x1F SWAP1 SWAP3 ADD PUSH1 0x1F NOT AND ADD ADD SWAP3 SWAP2 POP POP JUMP JUMPDEST PUSH1 0x1 PUSH1 0x1 PUSH1 0x40 SHL SUB DUP3 DUP2 AND DUP3 DUP3 AND SUB SWAP1 DUP1 DUP3 GT ISZERO PUSH2 0x1846 JUMPI PUSH2 0x1846 PUSH2 0x17E1 JUMP JUMPDEST PUSH1 0x7 DUP2 DUP2 SIGNEXTEND SWAP1 DUP4 SWAP1 SIGNEXTEND ADD PUSH8 0x7FFFFFFFFFFFFFFF DUP2 SGT PUSH8 0x7FFFFFFFFFFFFFFF NOT DUP3 SLT OR ISZERO PUSH2 0x152B JUMPI PUSH2 0x152B PUSH2 0x17E1 JUMP JUMPDEST PUSH4 0x4E487B71 PUSH1 0xE0 SHL PUSH1 0x0 MSTORE PUSH1 0x32 PUSH1 0x4 MSTORE PUSH1 0x24 PUSH1 0x0 REVERT JUMPDEST PUSH1 0x0 DUP1 DUP4 SLOAD PUSH2 0x1A86 DUP2 PUSH2 0x188A JUMP JUMPDEST PUSH1 0x1 DUP3 DUP2 AND DUP1 ISZERO PUSH2 0x1A9E JUMPI PUSH1 0x1 DUP2 EQ PUSH2 0x1AB3 JUMPI PUSH2 0x1AE2 JUMP JUMPDEST PUSH1 0xFF NOT DUP5 AND DUP8 MSTORE DUP3 ISZERO ISZERO DUP4 MUL DUP8 ADD SWAP5 POP PUSH2 0x1AE2 JUMP JUMPDEST DUP8 PUSH1 0x0 MSTORE PUSH1 0x20 DUP1 PUSH1 0x0 KECCAK256 PUSH1 0x0 JUMPDEST DUP6 DUP2 LT ISZERO PUSH2 0x1AD9 JUMPI DUP2 SLOAD DUP11 DUP3 ADD MSTORE SWAP1 DUP5 ADD SWAP1 DUP3 ADD PUSH2 0x1AC0 JUMP JUMPDEST POP POP POP DUP3 DUP8 ADD SWAP5 POP JUMPDEST POP SWAP3 SWAP7 SWAP6 POP POP POP POP POP POP JUMP INVALID LOG2 PUSH5 0x6970667358 0x22 SLT KECCAK256 RETURN SAR 0x1E ADDMOD NOT PUSH17 0xFDD76F0AD875132F5E56A9ACF124E37B5C SLT DUP5 SHL CALLVALUE CHAINID 0xAA 0x1E DUP4 0xF8 PUSH5 0x736F6C6343 STOP ADDMOD XOR STOP CALLER "},"methodIdentifiers":{"admin()":"f851a440","authorized(address)":"b9181611","burnLockedPoints(bytes32,uint64,uint64)":"0ef73894","burnPoints(bytes32,uint64,string)":"029db3a6","getBalance(bytes32)":"8e739461","getPointsEarnedInWindow(bytes32,uint64,uint64)":"870166a6","historyAt(bytes32,uint256)":"ff78c9db","historyLength(bytes32)":"43905859","lockPoints(bytes32,uint64,uint64)":"143c44dc","lockedPoints(bytes32,uint64)":"71ada821","mintPoints(bytes32,uint64,string)":"61eb1036","setAuthorized(address,bool)":"711bf9b2","transferAdmin(address)":"75829def","unlockPoints(bytes32,uint64,uint64)":"7162fd75"}}}}}