{"abi":[{"type":"constructor","inputs":[{"name":"_admin","type":"address","internalType":"address"},{"name":"_stablecoin","type":"address","internalType":"address"},{"name":"_pointsLedger","type":"address","internalType":"address"}],"stateMutability":"nonpayable"},{"type":"function","name":"LOCK_DURATION","inputs":[],"outputs":[{"name":"","type":"uint64","internalType":"uint64"}],"stateMutability":"view"},{"type":"function","name":"MINIMUM_STAKE","inputs":[],"outputs":[{"name":"","type":"uint128","internalType":"uint128"}],"stateMutability":"view"},{"type":"function","name":"STAKE_DEPOSIT_POINTS","inputs":[],"outputs":[{"name":"","type":"uint64","internalType":"uint64"}],"stateMutability":"view"},{"type":"function","name":"admin","inputs":[],"outputs":[{"name":"","type":"address","internalType":"address"}],"stateMutability":"view"},{"type":"function","name":"extendLock","inputs":[{"name":"popId","type":"bytes32","internalType":"bytes32"}],"outputs":[],"stateMutability":"nonpayable"},{"type":"function","name":"getStake","inputs":[{"name":"popId","type":"bytes32","internalType":"bytes32"}],"outputs":[{"name":"","type":"tuple","internalType":"struct IStakingVault.StakeRecord","components":[{"name":"amount","type":"uint128","internalType":"uint128"},{"name":"stakedAt","type":"uint64","internalType":"uint64"},{"name":"lockUntil","type":"uint64","internalType":"uint64"},{"name":"isLocked","type":"bool","internalType":"bool"}]}],"stateMutability":"view"},{"type":"function","name":"hasActiveStake","inputs":[{"name":"popId","type":"bytes32","internalType":"bytes32"}],"outputs":[{"name":"","type":"bool","internalType":"bool"}],"stateMutability":"view"},{"type":"function","name":"pointsLedger","inputs":[],"outputs":[{"name":"","type":"address","internalType":"contract IPointsLedger"}],"stateMutability":"view"},{"type":"function","name":"releaseLock","inputs":[{"name":"popId","type":"bytes32","internalType":"bytes32"}],"outputs":[],"stateMutability":"nonpayable"},{"type":"function","name":"setVouchRegistry","inputs":[{"name":"_vouchRegistry","type":"address","internalType":"address"}],"outputs":[],"stateMutability":"nonpayable"},{"type":"function","name":"stablecoin","inputs":[],"outputs":[{"name":"","type":"address","internalType":"contract IERC20"}],"stateMutability":"view"},{"type":"function","name":"stake","inputs":[{"name":"amount","type":"uint128","internalType":"uint128"}],"outputs":[],"stateMutability":"nonpayable"},{"type":"function","name":"transferAdmin","inputs":[{"name":"newAdmin","type":"address","internalType":"address"}],"outputs":[],"stateMutability":"nonpayable"},{"type":"function","name":"unstake","inputs":[],"outputs":[],"stateMutability":"nonpayable"},{"type":"function","name":"vouchRegistry","inputs":[],"outputs":[{"name":"","type":"address","internalType":"address"}],"stateMutability":"view"},{"type":"event","name":"Staked","inputs":[{"name":"popId","type":"bytes32","indexed":true,"internalType":"bytes32"},{"name":"amount","type":"uint128","indexed":false,"internalType":"uint128"},{"name":"stakedAt","type":"uint64","indexed":false,"internalType":"uint64"}],"anonymous":false},{"type":"event","name":"Unstaked","inputs":[{"name":"popId","type":"bytes32","indexed":true,"internalType":"bytes32"},{"name":"amount","type":"uint128","indexed":false,"internalType":"uint128"},{"name":"unstakedAt","type":"uint64","indexed":false,"internalType":"uint64"}],"anonymous":false},{"type":"event","name":"VouchRegistrySet","inputs":[{"name":"vouchRegistry","type":"address","indexed":true,"internalType":"address"}],"anonymous":false}],"bytecode":{"object":"0x60c06040526001600255348015610014575f5ffd5b5060405161205a38038061205a8339818101604052810190610036919061028d565b5f73ffffffffffffffffffffffffffffffffffffffff168373ffffffffffffffffffffffffffffffffffffffff16036100a4576040517f08c379a000000000000000000000000000000000000000000000000000000000815260040161009b90610337565b60405180910390fd5b5f73ffffffffffffffffffffffffffffffffffffffff168273ffffffffffffffffffffffffffffffffffffffff1603610112576040517f08c379a00000000000000000000000000000000000000000000000000000000081526004016101099061039f565b60405180910390fd5b5f73ffffffffffffffffffffffffffffffffffffffff168173ffffffffffffffffffffffffffffffffffffffff1603610180576040517f08c379a000000000000000000000000000000000000000000000000000000000815260040161017790610407565b60405180910390fd5b825f5f6101000a81548173ffffffffffffffffffffffffffffffffffffffff021916908373ffffffffffffffffffffffffffffffffffffffff1602179055508173ffffffffffffffffffffffffffffffffffffffff1660808173ffffffffffffffffffffffffffffffffffffffff16815250508073ffffffffffffffffffffffffffffffffffffffff1660a08173ffffffffffffffffffffffffffffffffffffffff1681525050505050610425565b5f5ffd5b5f73ffffffffffffffffffffffffffffffffffffffff82169050919050565b5f61025c82610233565b9050919050565b61026c81610252565b8114610276575f5ffd5b50565b5f8151905061028781610263565b92915050565b5f5f5f606084860312156102a4576102a361022f565b5b5f6102b186828701610279565b93505060206102c286828701610279565b92505060406102d386828701610279565b9150509250925092565b5f82825260208201905092915050565b7f5374616b696e675661756c743a207a65726f2061646d696e00000000000000005f82015250565b5f6103216018836102dd565b915061032c826102ed565b602082019050919050565b5f6020820190508181035f83015261034e81610315565b9050919050565b7f5374616b696e675661756c743a207a65726f20737461626c65000000000000005f82015250565b5f6103896019836102dd565b915061039482610355565b602082019050919050565b5f6020820190508181035f8301526103b68161037d565b9050919050565b7f5374616b696e675661756c743a207a65726f206c6564676572000000000000005f82015250565b5f6103f16019836102dd565b91506103fc826103bd565b602082019050919050565b5f6020820190508181035f83015261041e816103e5565b9050919050565b60805160a051611bff61045b5f395f8181610ce10152610e6d01525f818161058d01528181610ae301526111270152611bff5ff3fe608060405234801561000f575f5ffd5b50600436106100f3575f3560e01c806388fe2be811610095578063e5f062bb11610064578063e5f062bb14610237578063e765c12214610253578063e9cbd82214610283578063f851a440146102a1576100f3565b806388fe2be8146101c35780639848e545146101df578063a33e7faf146101fb578063aa618fb614610219576100f3565b8063485d3834116100d1578063485d38341461013d5780636c57966d1461015b57806375829def1461017757806382e1414514610193576100f3565b806308dbbb03146100f757806312dceb47146101155780632def662014610133575b5f5ffd5b6100ff6102bf565b60405161010c9190611204565b60405180910390f35b61011d6102cc565b60405161012a919061123f565b60405180910390f35b61013b6102d1565b005b6101456106b1565b604051610152919061123f565b60405180910390f35b6101756004803603810190610170919061128f565b6106b8565b005b610191600480360381019061018c9190611314565b6107f8565b005b6101ad60048036038101906101a8919061128f565b610936565b6040516101ba9190611359565b60405180910390f35b6101dd60048036038101906101d8919061139c565b610981565b005b6101f960048036038101906101f4919061128f565b610dae565b005b610203610e6b565b6040516102109190611422565b60405180910390f35b610221610e8f565b60405161022e919061144a565b60405180910390f35b610251600480360381019061024c9190611314565b610eb4565b005b61026d6004803603810190610268919061128f565b611036565b60405161027a91906114e3565b60405180910390f35b61028b611125565b604051610298919061151c565b60405180910390f35b6102a9611149565b6040516102b6919061144a565b60405180910390f35b6802b5e3af16b188000081565b600a81565b600160025414610316576040517f08c379a000000000000000000000000000000000000000000000000000000000815260040161030d9061158f565b60405180910390fd5b600280819055505f61033d3373ffffffffffffffffffffffffffffffffffffffff1661116d565b90505f60035f8381526020019081526020015f206040518060800160405290815f82015f9054906101000a90046fffffffffffffffffffffffffffffffff166fffffffffffffffffffffffffffffffff166fffffffffffffffffffffffffffffffff1681526020015f820160109054906101000a900467ffffffffffffffff1667ffffffffffffffff1667ffffffffffffffff1681526020015f820160189054906101000a900467ffffffffffffffff1667ffffffffffffffff1667ffffffffffffffff168152602001600182015f9054906101000a900460ff16151515158152505090505f815f01516fffffffffffffffffffffffffffffffff1611610479576040517f08c379a0000000000000000000000000000000000000000000000000000000008152600401610470906115f7565b60405180910390fd5b806040015167ffffffffffffffff164310156104ca576040517f08c379a00000000000000000000000000000000000000000000000000000000081526004016104c19061165f565b60405180910390fd5b80606001511561050f576040517f08c379a0000000000000000000000000000000000000000000000000000000008152600401610506906116c7565b60405180910390fd5b60035f8381526020019081526020015f205f5f82015f6101000a8154906fffffffffffffffffffffffffffffffff02191690555f820160106101000a81549067ffffffffffffffff02191690555f820160186101000a81549067ffffffffffffffff0219169055600182015f6101000a81549060ff021916905550507f000000000000000000000000000000000000000000000000000000000000000073ffffffffffffffffffffffffffffffffffffffff1663a9059cbb33835f01516040518363ffffffff1660e01b81526004016105e992919061171e565b6020604051808303815f875af1158015610605573d5f5f3e3d5ffd5b505050506040513d601f19601f82011682018060405250810190610629919061176f565b610668576040517f08c379a000000000000000000000000000000000000000000000000000000000815260040161065f906117e4565b60405180910390fd5b817fd25cda7ec2005bae11fe142a33195b9f64bcc514352cf8aa1b514be779fd76d7825f01514360405161069d929190611802565b60405180910390a250506001600281905550565b6201fa4081565b60015f9054906101000a900473ffffffffffffffffffffffffffffffffffffffff1673ffffffffffffffffffffffffffffffffffffffff163373ffffffffffffffffffffffffffffffffffffffff1614610747576040517f08c379a000000000000000000000000000000000000000000000000000000000815260040161073e90611873565b60405180910390fd5b5f60035f8381526020019081526020015f205f015f9054906101000a90046fffffffffffffffffffffffffffffffff166fffffffffffffffffffffffffffffffff16116107c9576040517f08c379a00000000000000000000000000000000000000000000000000000000081526004016107c0906115f7565b60405180910390fd5b600160035f8381526020019081526020015f206001015f6101000a81548160ff02191690831515021790555050565b5f5f9054906101000a900473ffffffffffffffffffffffffffffffffffffffff1673ffffffffffffffffffffffffffffffffffffffff163373ffffffffffffffffffffffffffffffffffffffff1614610886576040517f08c379a000000000000000000000000000000000000000000000000000000000815260040161087d906118db565b60405180910390fd5b5f73ffffffffffffffffffffffffffffffffffffffff168173ffffffffffffffffffffffffffffffffffffffff16036108f4576040517f08c379a00000000000000000000000000000000000000000000000000000000081526004016108eb90611943565b60405180910390fd5b805f5f6101000a81548173ffffffffffffffffffffffffffffffffffffffff021916908373ffffffffffffffffffffffffffffffffffffffff16021790555050565b5f5f60035f8481526020019081526020015f205f015f9054906101000a90046fffffffffffffffffffffffffffffffff166fffffffffffffffffffffffffffffffff16119050919050565b6001600254146109c6576040517f08c379a00000000000000000000000000000000000000000000000000000000081526004016109bd9061158f565b60405180910390fd5b600280819055505f6109ed3373ffffffffffffffffffffffffffffffffffffffff1661116d565b90506802b5e3af16b18800006fffffffffffffffffffffffffffffffff16826fffffffffffffffffffffffffffffffff161015610a5f576040517f08c379a0000000000000000000000000000000000000000000000000000000008152600401610a56906119ab565b60405180910390fd5b5f60035f8381526020019081526020015f205f015f9054906101000a90046fffffffffffffffffffffffffffffffff166fffffffffffffffffffffffffffffffff1614610ae1576040517f08c379a0000000000000000000000000000000000000000000000000000000008152600401610ad890611a13565b60405180910390fd5b7f000000000000000000000000000000000000000000000000000000000000000073ffffffffffffffffffffffffffffffffffffffff166323b872dd3330856040518463ffffffff1660e01b8152600401610b3e93929190611a31565b6020604051808303815f875af1158015610b5a573d5f5f3e3d5ffd5b505050506040513d601f19601f82011682018060405250810190610b7e919061176f565b610bbd576040517f08c379a0000000000000000000000000000000000000000000000000000000008152600401610bb4906117e4565b60405180910390fd5b6040518060800160405280836fffffffffffffffffffffffffffffffff1681526020014367ffffffffffffffff1681526020016201fa4043610bff9190611a93565b67ffffffffffffffff1681526020015f151581525060035f8381526020019081526020015f205f820151815f015f6101000a8154816fffffffffffffffffffffffffffffffff02191690836fffffffffffffffffffffffffffffffff1602179055506020820151815f0160106101000a81548167ffffffffffffffff021916908367ffffffffffffffff1602179055506040820151815f0160186101000a81548167ffffffffffffffff021916908367ffffffffffffffff1602179055506060820151816001015f6101000a81548160ff0219169083151502179055509050507f000000000000000000000000000000000000000000000000000000000000000073ffffffffffffffffffffffffffffffffffffffff166361eb103682600a6040518363ffffffff1660e01b8152600401610d3b929190611b27565b5f604051808303815f87803b158015610d52575f5ffd5b505af1158015610d64573d5f5f3e3d5ffd5b50505050807f844fdcebbba4a19d4207dbae24408dab38c1f2ae82d1fa3d82fe434335cfd3b98343604051610d9a929190611802565b60405180910390a250600160028190555050565b60015f9054906101000a900473ffffffffffffffffffffffffffffffffffffffff1673ffffffffffffffffffffffffffffffffffffffff163373ffffffffffffffffffffffffffffffffffffffff1614610e3d576040517f08c379a0000000000000000000000000000000000000000000000000000000008152600401610e3490611873565b60405180910390fd5b5f60035f8381526020019081526020015f206001015f6101000a81548160ff02191690831515021790555050565b7f000000000000000000000000000000000000000000000000000000000000000081565b60015f9054906101000a900473ffffffffffffffffffffffffffffffffffffffff1681565b5f5f9054906101000a900473ffffffffffffffffffffffffffffffffffffffff1673ffffffffffffffffffffffffffffffffffffffff163373ffffffffffffffffffffffffffffffffffffffff1614610f42576040517f08c379a0000000000000000000000000000000000000000000000000000000008152600401610f39906118db565b60405180910390fd5b5f73ffffffffffffffffffffffffffffffffffffffff168173ffffffffffffffffffffffffffffffffffffffff1603610fb0576040517f08c379a0000000000000000000000000000000000000000000000000000000008152600401610fa790611bab565b60405180910390fd5b8060015f6101000a81548173ffffffffffffffffffffffffffffffffffffffff021916908373ffffffffffffffffffffffffffffffffffffffff1602179055508073ffffffffffffffffffffffffffffffffffffffff167fb7f6c1c608fdcdf6258c32aa36d88f01dd96fb120a86e5664c338e201c3a803660405160405180910390a250565b61103e61118e565b60035f8381526020019081526020015f206040518060800160405290815f82015f9054906101000a90046fffffffffffffffffffffffffffffffff166fffffffffffffffffffffffffffffffff166fffffffffffffffffffffffffffffffff1681526020015f820160109054906101000a900467ffffffffffffffff1667ffffffffffffffff1667ffffffffffffffff1681526020015f820160189054906101000a900467ffffffffffffffff1667ffffffffffffffff1667ffffffffffffffff168152602001600182015f9054906101000a900460ff1615151515815250509050919050565b7f000000000000000000000000000000000000000000000000000000000000000081565b5f5f9054906101000a900473ffffffffffffffffffffffffffffffffffffffff1681565b5f8173ffffffffffffffffffffffffffffffffffffffff165f1b9050919050565b60405180608001604052805f6fffffffffffffffffffffffffffffffff1681526020015f67ffffffffffffffff1681526020015f67ffffffffffffffff1681526020015f151581525090565b5f6fffffffffffffffffffffffffffffffff82169050919050565b6111fe816111da565b82525050565b5f6020820190506112175f8301846111f5565b92915050565b5f67ffffffffffffffff82169050919050565b6112398161121d565b82525050565b5f6020820190506112525f830184611230565b92915050565b5f5ffd5b5f819050919050565b61126e8161125c565b8114611278575f5ffd5b50565b5f8135905061128981611265565b92915050565b5f602082840312156112a4576112a3611258565b5b5f6112b18482850161127b565b91505092915050565b5f73ffffffffffffffffffffffffffffffffffffffff82169050919050565b5f6112e3826112ba565b9050919050565b6112f3816112d9565b81146112fd575f5ffd5b50565b5f8135905061130e816112ea565b92915050565b5f6020828403121561132957611328611258565b5b5f61133684828501611300565b91505092915050565b5f8115159050919050565b6113538161133f565b82525050565b5f60208201905061136c5f83018461134a565b92915050565b61137b816111da565b8114611385575f5ffd5b50565b5f8135905061139681611372565b92915050565b5f602082840312156113b1576113b0611258565b5b5f6113be84828501611388565b91505092915050565b5f819050919050565b5f6113ea6113e56113e0846112ba565b6113c7565b6112ba565b9050919050565b5f6113fb826113d0565b9050919050565b5f61140c826113f1565b9050919050565b61141c81611402565b82525050565b5f6020820190506114355f830184611413565b92915050565b611444816112d9565b82525050565b5f60208201905061145d5f83018461143b565b92915050565b61146c816111da565b82525050565b61147b8161121d565b82525050565b61148a8161133f565b82525050565b608082015f8201516114a45f850182611463565b5060208201516114b76020850182611472565b5060408201516114ca6040850182611472565b5060608201516114dd6060850182611481565b50505050565b5f6080820190506114f65f830184611490565b92915050565b5f611506826113f1565b9050919050565b611516816114fc565b82525050565b5f60208201905061152f5f83018461150d565b92915050565b5f82825260208201905092915050565b7f5374616b696e675661756c743a207265656e7472616e740000000000000000005f82015250565b5f611579601783611535565b915061158482611545565b602082019050919050565b5f6020820190508181035f8301526115a68161156d565b9050919050565b7f5374616b696e675661756c743a206e6f207374616b65000000000000000000005f82015250565b5f6115e1601683611535565b91506115ec826115ad565b602082019050919050565b5f6020820190508181035f83015261160e816115d5565b9050919050565b7f5374616b696e675661756c743a207374696c6c206c6f636b65640000000000005f82015250565b5f611649601a83611535565b915061165482611615565b602082019050919050565b5f6020820190508181035f8301526116768161163d565b9050919050565b7f5374616b696e675661756c743a2061637469766520766f7563686573000000005f82015250565b5f6116b1601c83611535565b91506116bc8261167d565b602082019050919050565b5f6020820190508181035f8301526116de816116a5565b9050919050565b5f819050919050565b5f6117086117036116fe846111da565b6113c7565b6116e5565b9050919050565b611718816116ee565b82525050565b5f6040820190506117315f83018561143b565b61173e602083018461170f565b9392505050565b61174e8161133f565b8114611758575f5ffd5b50565b5f8151905061176981611745565b92915050565b5f6020828403121561178457611783611258565b5b5f6117918482850161175b565b91505092915050565b7f5374616b696e675661756c743a207472616e73666572206661696c65640000005f82015250565b5f6117ce601d83611535565b91506117d98261179a565b602082019050919050565b5f6020820190508181035f8301526117fb816117c2565b9050919050565b5f6040820190506118155f8301856111f5565b6118226020830184611230565b9392505050565b7f5374616b696e675661756c743a206e6f7420766f7563682072656769737472795f82015250565b5f61185d602083611535565b915061186882611829565b602082019050919050565b5f6020820190508181035f83015261188a81611851565b9050919050565b7f5374616b696e675661756c743a206e6f742061646d696e0000000000000000005f82015250565b5f6118c5601783611535565b91506118d082611891565b602082019050919050565b5f6020820190508181035f8301526118f2816118b9565b9050919050565b7f5374616b696e675661756c743a207a65726f2061646d696e00000000000000005f82015250565b5f61192d601883611535565b9150611938826118f9565b602082019050919050565b5f6020820190508181035f83015261195a81611921565b9050919050565b7f5374616b696e675661756c743a2062656c6f77206d696e696d756d00000000005f82015250565b5f611995601b83611535565b91506119a082611961565b602082019050919050565b5f6020820190508181035f8301526119c281611989565b9050919050565b7f5374616b696e675661756c743a20616c7265616479207374616b6564000000005f82015250565b5f6119fd601c83611535565b9150611a08826119c9565b602082019050919050565b5f6020820190508181035f830152611a2a816119f1565b9050919050565b5f606082019050611a445f83018661143b565b611a51602083018561143b565b611a5e604083018461170f565b949350505050565b7f4e487b71000000000000000000000000000000000000000000000000000000005f52601160045260245ffd5b5f611a9d8261121d565b9150611aa88361121d565b9250828201905067ffffffffffffffff811115611ac857611ac7611a66565b5b92915050565b611ad78161125c565b82525050565b7f7374616b655f6465706f736974000000000000000000000000000000000000005f82015250565b5f611b11600d83611535565b9150611b1c82611add565b602082019050919050565b5f606082019050611b3a5f830185611ace565b611b476020830184611230565b8181036040830152611b5881611b05565b90509392505050565b7f5374616b696e675661756c743a207a65726f20726567697374727900000000005f82015250565b5f611b95601b83611535565b9150611ba082611b61565b602082019050919050565b5f6020820190508181035f830152611bc281611b89565b905091905056fea2646970667358221220169f830f9ae775c99d986d2d35d8b6b8772bb7c4838aefe1f6349b8f133fd6ef64736f6c634300081e0033","linkReferences":{}},"methodIdentifiers":{"LOCK_DURATION()":"485d3834","MINIMUM_STAKE()":"08dbbb03","STAKE_DEPOSIT_POINTS()":"12dceb47","admin()":"f851a440","extendLock(bytes32)":"6c57966d","getStake(bytes32)":"e765c122","hasActiveStake(bytes32)":"82e14145","pointsLedger()":"a33e7faf","releaseLock(bytes32)":"9848e545","setVouchRegistry(address)":"e5f062bb","stablecoin()":"e9cbd822","stake(uint128)":"88fe2be8","transferAdmin(address)":"75829def","unstake()":"2def6620","vouchRegistry()":"aa618fb6"},"id":3}