{
  "_format": "hh-sol-artifact-1",
  "contractName": "StakingVault",
  "sourceName": "contracts/StakingVault.sol",
  "abi": [
    {
      "inputs": [
        {
          "internalType": "address",
          "name": "_admin",
          "type": "address"
        },
        {
          "internalType": "address",
          "name": "_stablecoin",
          "type": "address"
        },
        {
          "internalType": "address",
          "name": "_pointsLedger",
          "type": "address"
        }
      ],
      "stateMutability": "nonpayable",
      "type": "constructor"
    },
    {
      "anonymous": false,
      "inputs": [
        {
          "indexed": true,
          "internalType": "bytes32",
          "name": "popId",
          "type": "bytes32"
        },
        {
          "indexed": false,
          "internalType": "uint128",
          "name": "amount",
          "type": "uint128"
        },
        {
          "indexed": false,
          "internalType": "uint64",
          "name": "stakedAt",
          "type": "uint64"
        }
      ],
      "name": "Staked",
      "type": "event"
    },
    {
      "anonymous": false,
      "inputs": [
        {
          "indexed": true,
          "internalType": "bytes32",
          "name": "popId",
          "type": "bytes32"
        },
        {
          "indexed": false,
          "internalType": "uint128",
          "name": "amount",
          "type": "uint128"
        },
        {
          "indexed": false,
          "internalType": "uint64",
          "name": "unstakedAt",
          "type": "uint64"
        }
      ],
      "name": "Unstaked",
      "type": "event"
    },
    {
      "anonymous": false,
      "inputs": [
        {
          "indexed": true,
          "internalType": "address",
          "name": "vouchRegistry",
          "type": "address"
        }
      ],
      "name": "VouchRegistrySet",
      "type": "event"
    },
    {
      "inputs": [],
      "name": "LOCK_DURATION",
      "outputs": [
        {
          "internalType": "uint64",
          "name": "",
          "type": "uint64"
        }
      ],
      "stateMutability": "view",
      "type": "function"
    },
    {
      "inputs": [],
      "name": "MINIMUM_STAKE",
      "outputs": [
        {
          "internalType": "uint128",
          "name": "",
          "type": "uint128"
        }
      ],
      "stateMutability": "view",
      "type": "function"
    },
    {
      "inputs": [],
      "name": "STAKE_DEPOSIT_POINTS",
      "outputs": [
        {
          "internalType": "uint64",
          "name": "",
          "type": "uint64"
        }
      ],
      "stateMutability": "view",
      "type": "function"
    },
    {
      "inputs": [],
      "name": "admin",
      "outputs": [
        {
          "internalType": "address",
          "name": "",
          "type": "address"
        }
      ],
      "stateMutability": "view",
      "type": "function"
    },
    {
      "inputs": [
        {
          "internalType": "bytes32",
          "name": "popId",
          "type": "bytes32"
        }
      ],
      "name": "extendLock",
      "outputs": [],
      "stateMutability": "nonpayable",
      "type": "function"
    },
    {
      "inputs": [
        {
          "internalType": "bytes32",
          "name": "popId",
          "type": "bytes32"
        }
      ],
      "name": "getStake",
      "outputs": [
        {
          "components": [
            {
              "internalType": "uint128",
              "name": "amount",
              "type": "uint128"
            },
            {
              "internalType": "uint64",
              "name": "stakedAt",
              "type": "uint64"
            },
            {
              "internalType": "uint64",
              "name": "lockUntil",
              "type": "uint64"
            },
            {
              "internalType": "bool",
              "name": "isLocked",
              "type": "bool"
            }
          ],
          "internalType": "struct IStakingVault.StakeRecord",
          "name": "",
          "type": "tuple"
        }
      ],
      "stateMutability": "view",
      "type": "function"
    },
    {
      "inputs": [
        {
          "internalType": "bytes32",
          "name": "popId",
          "type": "bytes32"
        }
      ],
      "name": "hasActiveStake",
      "outputs": [
        {
          "internalType": "bool",
          "name": "",
          "type": "bool"
        }
      ],
      "stateMutability": "view",
      "type": "function"
    },
    {
      "inputs": [],
      "name": "pointsLedger",
      "outputs": [
        {
          "internalType": "contract IPointsLedger",
          "name": "",
          "type": "address"
        }
      ],
      "stateMutability": "view",
      "type": "function"
    },
    {
      "inputs": [
        {
          "internalType": "bytes32",
          "name": "popId",
          "type": "bytes32"
        }
      ],
      "name": "releaseLock",
      "outputs": [],
      "stateMutability": "nonpayable",
      "type": "function"
    },
    {
      "inputs": [
        {
          "internalType": "address",
          "name": "_vouchRegistry",
          "type": "address"
        }
      ],
      "name": "setVouchRegistry",
      "outputs": [],
      "stateMutability": "nonpayable",
      "type": "function"
    },
    {
      "inputs": [],
      "name": "stablecoin",
      "outputs": [
        {
          "internalType": "contract IERC20",
          "name": "",
          "type": "address"
        }
      ],
      "stateMutability": "view",
      "type": "function"
    },
    {
      "inputs": [
        {
          "internalType": "uint128",
          "name": "amount",
          "type": "uint128"
        }
      ],
      "name": "stake",
      "outputs": [],
      "stateMutability": "nonpayable",
      "type": "function"
    },
    {
      "inputs": [
        {
          "internalType": "address",
          "name": "newAdmin",
          "type": "address"
        }
      ],
      "name": "transferAdmin",
      "outputs": [],
      "stateMutability": "nonpayable",
      "type": "function"
    },
    {
      "inputs": [],
      "name": "unstake",
      "outputs": [],
      "stateMutability": "nonpayable",
      "type": "function"
    },
    {
      "inputs": [],
      "name": "vouchRegistry",
      "outputs": [
        {
          "internalType": "address",
          "name": "",
          "type": "address"
        }
      ],
      "stateMutability": "view",
      "type": "function"
    }
  ],
  "bytecode": "0x60c0604052600160025534801561001557600080fd5b506040516200103d3803806200103d83398101604081905261003691610184565b6001600160a01b0383166100915760405162461bcd60e51b815260206004820152601860248201527f5374616b696e675661756c743a207a65726f2061646d696e000000000000000060448201526064015b60405180910390fd5b6001600160a01b0382166100e75760405162461bcd60e51b815260206004820152601960248201527f5374616b696e675661756c743a207a65726f20737461626c65000000000000006044820152606401610088565b6001600160a01b03811661013d5760405162461bcd60e51b815260206004820152601960248201527f5374616b696e675661756c743a207a65726f206c6564676572000000000000006044820152606401610088565b600080546001600160a01b0319166001600160a01b039485161790559082166080521660a0526101c7565b80516001600160a01b038116811461017f57600080fd5b919050565b60008060006060848603121561019957600080fd5b6101a284610168565b92506101b060208501610168565b91506101be60408501610168565b90509250925092565b60805160a051610e3b62000202600039600081816101e80152610b2c0152600081816103320152818161055901526109590152610e3b6000f3fe608060405234801561001057600080fd5b50600436106100f55760003560e01c806388fe2be811610097578063e5f062bb11610066578063e5f062bb14610235578063e765c12214610248578063e9cbd8221461032d578063f851a4401461035457600080fd5b806388fe2be8146101bd5780639848e545146101d0578063a33e7faf146101e3578063aa618fb61461022257600080fd5b8063485d3834116100d3578063485d3834146101525780636c57966d1461015c57806375829def1461016f57806382e141451461018257600080fd5b806308dbbb03146100fa57806312dceb47146101275780632def662014610148575b600080fd5b61010a6802b5e3af16b188000081565b6040516001600160801b0390911681526020015b60405180910390f35b61012f600a81565b60405167ffffffffffffffff909116815260200161011e565b610150610367565b005b61012f6201fa4081565b61015061016a366004610d3b565b610674565b61015061017d366004610d54565b61074b565b6101ad610190366004610d3b565b6000908152600360205260409020546001600160801b0316151590565b604051901515815260200161011e565b6101506101cb366004610d84565b610817565b6101506101de366004610d3b565b610bd2565b61020a7f000000000000000000000000000000000000000000000000000000000000000081565b6040516001600160a01b03909116815260200161011e565b60015461020a906001600160a01b031681565b610150610243366004610d54565b610c47565b6102e0610256366004610d3b565b60408051608081018252600080825260208201819052918101829052606081019190915250600090815260036020908152604091829020825160808101845281546001600160801b038116825267ffffffffffffffff600160801b8204811694830194909452600160c01b90049092169282019290925260019091015460ff161515606082015290565b6040805182516001600160801b0316815260208084015167ffffffffffffffff9081169183019190915283830151169181019190915260609182015115159181019190915260800161011e565b61020a7f000000000000000000000000000000000000000000000000000000000000000081565b60005461020a906001600160a01b031681565b6002546001146103b85760405162461bcd60e51b815260206004820152601760248201527614dd185ada5b99d5985d5b1d0e881c99595b9d1c985b9d604a1b60448201526064015b60405180910390fd5b6002805533600081815260036020908152604091829020825160808101845281546001600160801b03811680835267ffffffffffffffff600160801b8304811695840195909552600160c01b909104909316938101939093526001015460ff16151560608301526104645760405162461bcd60e51b81526020600482015260166024820152755374616b696e675661756c743a206e6f207374616b6560501b60448201526064016103af565b806040015167ffffffffffffffff164310156104c25760405162461bcd60e51b815260206004820152601a60248201527f5374616b696e675661756c743a207374696c6c206c6f636b656400000000000060448201526064016103af565b8060600151156105145760405162461bcd60e51b815260206004820152601c60248201527f5374616b696e675661756c743a2061637469766520766f75636865730000000060448201526064016103af565b6000828152600360205260408082209182556001909101805460ff191690558151905163a9059cbb60e01b81523360048201526001600160801b0390911660248201527f00000000000000000000000000000000000000000000000000000000000000006001600160a01b03169063a9059cbb906044016020604051808303816000875af11580156105aa573d6000803e3d6000fd5b505050506040513d601f19601f820116820180604052508101906105ce9190610dad565b61061a5760405162461bcd60e51b815260206004820152601d60248201527f5374616b696e675661756c743a207472616e73666572206661696c656400000060448201526064016103af565b8051604080516001600160801b03909216825267ffffffffffffffff4316602083015283917fd25cda7ec2005bae11fe142a33195b9f64bcc514352cf8aa1b514be779fd76d791015b60405180910390a250506001600255565b6001546001600160a01b031633146106ce5760405162461bcd60e51b815260206004820181905260248201527f5374616b696e675661756c743a206e6f7420766f75636820726567697374727960448201526064016103af565b6000818152600360205260409020546001600160801b031661072b5760405162461bcd60e51b81526020600482015260166024820152755374616b696e675661756c743a206e6f207374616b6560501b60448201526064016103af565b60009081526003602052604090206001908101805460ff19169091179055565b6000546001600160a01b0316331461079f5760405162461bcd60e51b815260206004820152601760248201527629ba30b5b4b733ab30bab63a1d103737ba1030b236b4b760491b60448201526064016103af565b6001600160a01b0381166107f55760405162461bcd60e51b815260206004820152601860248201527f5374616b696e675661756c743a207a65726f2061646d696e000000000000000060448201526064016103af565b600080546001600160a01b0319166001600160a01b0392909216919091179055565b6002546001146108635760405162461bcd60e51b815260206004820152601760248201527614dd185ada5b99d5985d5b1d0e881c99595b9d1c985b9d604a1b60448201526064016103af565b60028055336802b5e3af16b18800006001600160801b03831610156108ca5760405162461bcd60e51b815260206004820152601b60248201527f5374616b696e675661756c743a2062656c6f77206d696e696d756d000000000060448201526064016103af565b6000818152600360205260409020546001600160801b03161561092f5760405162461bcd60e51b815260206004820152601c60248201527f5374616b696e675661756c743a20616c7265616479207374616b65640000000060448201526064016103af565b6040516323b872dd60e01b81523360048201523060248201526001600160801b03831660448201527f00000000000000000000000000000000000000000000000000000000000000006001600160a01b0316906323b872dd906064016020604051808303816000875af11580156109aa573d6000803e3d6000fd5b505050506040513d601f19601f820116820180604052508101906109ce9190610dad565b610a1a5760405162461bcd60e51b815260206004820152601d60248201527f5374616b696e675661756c743a207472616e73666572206661696c656400000060448201526064016103af565b6040518060800160405280836001600160801b031681526020014367ffffffffffffffff1681526020016201fa4043610a539190610dcf565b67ffffffffffffffff908116825260006020928301819052848152600383526040908190208451815494860151868401518516600160c01b026001600160c01b0391909516600160801b026001600160c01b03199096166001600160801b039092169190911794909417939093169190911782556060928301516001909201805492151560ff1990931692909217909155516330f5881b60e11b815260048101839052600a60248201526044810191909152600d60648201526c1cdd185ad957d9195c1bdcda5d609a1b60848201526001600160a01b037f000000000000000000000000000000000000000000000000000000000000000016906361eb10369060a401600060405180830381600087803b158015610b7057600080fd5b505af1158015610b84573d6000803e3d6000fd5b5050604080516001600160801b038616815267ffffffffffffffff431660208201528493507f844fdcebbba4a19d4207dbae24408dab38c1f2ae82d1fa3d82fe434335cfd3b9925001610663565b6001546001600160a01b03163314610c2c5760405162461bcd60e51b815260206004820181905260248201527f5374616b696e675661756c743a206e6f7420766f75636820726567697374727960448201526064016103af565b6000908152600360205260409020600101805460ff19169055565b6000546001600160a01b03163314610c9b5760405162461bcd60e51b815260206004820152601760248201527629ba30b5b4b733ab30bab63a1d103737ba1030b236b4b760491b60448201526064016103af565b6001600160a01b038116610cf15760405162461bcd60e51b815260206004820152601b60248201527f5374616b696e675661756c743a207a65726f207265676973747279000000000060448201526064016103af565b600180546001600160a01b0319166001600160a01b0383169081179091556040517fb7f6c1c608fdcdf6258c32aa36d88f01dd96fb120a86e5664c338e201c3a803690600090a250565b600060208284031215610d4d57600080fd5b5035919050565b600060208284031215610d6657600080fd5b81356001600160a01b0381168114610d7d57600080fd5b9392505050565b600060208284031215610d9657600080fd5b81356001600160801b0381168114610d7d57600080fd5b600060208284031215610dbf57600080fd5b81518015158114610d7d57600080fd5b67ffffffffffffffff818116838216019080821115610dfe57634e487b7160e01b600052601160045260246000fd5b509291505056fea2646970667358221220685b1e192ac7b6988cc7f4f6a351df54893363baf8d4a2d4b087c95f7d4d1ccf64736f6c63430008180033",
  "linkReferences": {},
  "deployedLinkReferences": {}
}