{
  "_format": "hh-sol-artifact-1",
  "contractName": "ScoreRegistry",
  "sourceName": "contracts/ScoreRegistry.sol",
  "abi": [
    {
      "inputs": [
        {
          "internalType": "address",
          "name": "_admin",
          "type": "address"
        },
        {
          "internalType": "address",
          "name": "_indexer",
          "type": "address"
        }
      ],
      "stateMutability": "nonpayable",
      "type": "constructor"
    },
    {
      "anonymous": false,
      "inputs": [
        {
          "indexed": true,
          "internalType": "address",
          "name": "resolver",
          "type": "address"
        }
      ],
      "name": "DisputeResolverSet",
      "type": "event"
    },
    {
      "anonymous": false,
      "inputs": [
        {
          "indexed": true,
          "internalType": "address",
          "name": "indexer",
          "type": "address"
        }
      ],
      "name": "IndexerSet",
      "type": "event"
    },
    {
      "anonymous": false,
      "inputs": [
        {
          "indexed": true,
          "internalType": "uint64",
          "name": "proposalId",
          "type": "uint64"
        },
        {
          "indexed": true,
          "internalType": "bytes32",
          "name": "popId",
          "type": "bytes32"
        }
      ],
      "name": "ProposalRejected",
      "type": "event"
    },
    {
      "anonymous": false,
      "inputs": [
        {
          "indexed": true,
          "internalType": "uint64",
          "name": "proposalId",
          "type": "uint64"
        },
        {
          "indexed": true,
          "internalType": "bytes32",
          "name": "popId",
          "type": "bytes32"
        }
      ],
      "name": "ProposalSuperseded",
      "type": "event"
    },
    {
      "anonymous": false,
      "inputs": [
        {
          "indexed": true,
          "internalType": "bytes32",
          "name": "popId",
          "type": "bytes32"
        },
        {
          "indexed": false,
          "internalType": "uint64",
          "name": "oldScore",
          "type": "uint64"
        },
        {
          "indexed": false,
          "internalType": "uint64",
          "name": "correctedScore",
          "type": "uint64"
        }
      ],
      "name": "ScoreCorrected",
      "type": "event"
    },
    {
      "anonymous": false,
      "inputs": [
        {
          "indexed": true,
          "internalType": "uint64",
          "name": "proposalId",
          "type": "uint64"
        },
        {
          "indexed": true,
          "internalType": "bytes32",
          "name": "popId",
          "type": "bytes32"
        },
        {
          "indexed": false,
          "internalType": "uint64",
          "name": "disputeId",
          "type": "uint64"
        }
      ],
      "name": "ScoreDisputed",
      "type": "event"
    },
    {
      "anonymous": false,
      "inputs": [
        {
          "indexed": true,
          "internalType": "uint64",
          "name": "proposalId",
          "type": "uint64"
        },
        {
          "indexed": true,
          "internalType": "bytes32",
          "name": "popId",
          "type": "bytes32"
        },
        {
          "indexed": false,
          "internalType": "uint64",
          "name": "score",
          "type": "uint64"
        },
        {
          "indexed": false,
          "internalType": "uint64",
          "name": "finalizedAt",
          "type": "uint64"
        }
      ],
      "name": "ScoreFinalized",
      "type": "event"
    },
    {
      "anonymous": false,
      "inputs": [
        {
          "indexed": true,
          "internalType": "uint64",
          "name": "proposalId",
          "type": "uint64"
        },
        {
          "indexed": true,
          "internalType": "bytes32",
          "name": "popId",
          "type": "bytes32"
        },
        {
          "indexed": false,
          "internalType": "uint64",
          "name": "score",
          "type": "uint64"
        },
        {
          "indexed": false,
          "internalType": "int64",
          "name": "totalPoints",
          "type": "int64"
        },
        {
          "indexed": false,
          "internalType": "bytes32",
          "name": "eventsRoot",
          "type": "bytes32"
        },
        {
          "indexed": false,
          "internalType": "uint32",
          "name": "eventCount",
          "type": "uint32"
        },
        {
          "indexed": false,
          "internalType": "uint64",
          "name": "sourceBlockHeight",
          "type": "uint64"
        },
        {
          "indexed": false,
          "internalType": "uint16",
          "name": "algorithmVersion",
          "type": "uint16"
        },
        {
          "indexed": false,
          "internalType": "uint64",
          "name": "proposedAt",
          "type": "uint64"
        }
      ],
      "name": "ScoreProposed",
      "type": "event"
    },
    {
      "inputs": [],
      "name": "CHALLENGE_WINDOW",
      "outputs": [
        {
          "internalType": "uint64",
          "name": "",
          "type": "uint64"
        }
      ],
      "stateMutability": "view",
      "type": "function"
    },
    {
      "inputs": [],
      "name": "MAX_SCORE",
      "outputs": [
        {
          "internalType": "uint64",
          "name": "",
          "type": "uint64"
        }
      ],
      "stateMutability": "view",
      "type": "function"
    },
    {
      "inputs": [],
      "name": "MIN_PROPOSAL_INTERVAL",
      "outputs": [
        {
          "internalType": "uint64",
          "name": "",
          "type": "uint64"
        }
      ],
      "stateMutability": "view",
      "type": "function"
    },
    {
      "inputs": [],
      "name": "admin",
      "outputs": [
        {
          "internalType": "address",
          "name": "",
          "type": "address"
        }
      ],
      "stateMutability": "view",
      "type": "function"
    },
    {
      "inputs": [
        {
          "internalType": "bytes32",
          "name": "popId",
          "type": "bytes32"
        }
      ],
      "name": "canFinalize",
      "outputs": [
        {
          "internalType": "bool",
          "name": "",
          "type": "bool"
        }
      ],
      "stateMutability": "view",
      "type": "function"
    },
    {
      "inputs": [
        {
          "internalType": "int64",
          "name": "totalPoints",
          "type": "int64"
        }
      ],
      "name": "computeScore",
      "outputs": [
        {
          "internalType": "uint64",
          "name": "",
          "type": "uint64"
        }
      ],
      "stateMutability": "pure",
      "type": "function"
    },
    {
      "inputs": [],
      "name": "disputeResolver",
      "outputs": [
        {
          "internalType": "address",
          "name": "",
          "type": "address"
        }
      ],
      "stateMutability": "view",
      "type": "function"
    },
    {
      "inputs": [
        {
          "internalType": "bytes32",
          "name": "popId",
          "type": "bytes32"
        }
      ],
      "name": "finalizeScore",
      "outputs": [],
      "stateMutability": "nonpayable",
      "type": "function"
    },
    {
      "inputs": [
        {
          "internalType": "bytes32",
          "name": "popId",
          "type": "bytes32"
        }
      ],
      "name": "getFullScore",
      "outputs": [
        {
          "components": [
            {
              "internalType": "uint64",
              "name": "score",
              "type": "uint64"
            },
            {
              "internalType": "int64",
              "name": "totalPoints",
              "type": "int64"
            },
            {
              "internalType": "bytes32",
              "name": "eventsRoot",
              "type": "bytes32"
            },
            {
              "internalType": "uint64",
              "name": "sourceBlockHeight",
              "type": "uint64"
            },
            {
              "internalType": "uint64",
              "name": "finalizedAt",
              "type": "uint64"
            },
            {
              "internalType": "uint64",
              "name": "proposalId",
              "type": "uint64"
            }
          ],
          "internalType": "struct ScoreRegistry.FinalizedScore",
          "name": "",
          "type": "tuple"
        }
      ],
      "stateMutability": "view",
      "type": "function"
    },
    {
      "inputs": [
        {
          "internalType": "bytes32",
          "name": "popId",
          "type": "bytes32"
        }
      ],
      "name": "getPendingProposal",
      "outputs": [
        {
          "components": [
            {
              "internalType": "uint64",
              "name": "id",
              "type": "uint64"
            },
            {
              "internalType": "bytes32",
              "name": "popId",
              "type": "bytes32"
            },
            {
              "internalType": "uint64",
              "name": "score",
              "type": "uint64"
            },
            {
              "internalType": "int64",
              "name": "totalPoints",
              "type": "int64"
            },
            {
              "internalType": "bytes32",
              "name": "eventsRoot",
              "type": "bytes32"
            },
            {
              "internalType": "uint32",
              "name": "eventCount",
              "type": "uint32"
            },
            {
              "internalType": "uint64",
              "name": "sourceBlockHeight",
              "type": "uint64"
            },
            {
              "internalType": "uint16",
              "name": "algorithmVersion",
              "type": "uint16"
            },
            {
              "internalType": "uint64",
              "name": "proposedAt",
              "type": "uint64"
            },
            {
              "internalType": "address",
              "name": "proposer",
              "type": "address"
            },
            {
              "internalType": "enum IScoreRegistry.ProposalStatus",
              "name": "status",
              "type": "uint8"
            }
          ],
          "internalType": "struct IScoreRegistry.ScoreProposal",
          "name": "",
          "type": "tuple"
        }
      ],
      "stateMutability": "view",
      "type": "function"
    },
    {
      "inputs": [
        {
          "internalType": "uint64",
          "name": "proposalId",
          "type": "uint64"
        }
      ],
      "name": "getProposal",
      "outputs": [
        {
          "components": [
            {
              "internalType": "uint64",
              "name": "id",
              "type": "uint64"
            },
            {
              "internalType": "bytes32",
              "name": "popId",
              "type": "bytes32"
            },
            {
              "internalType": "uint64",
              "name": "score",
              "type": "uint64"
            },
            {
              "internalType": "int64",
              "name": "totalPoints",
              "type": "int64"
            },
            {
              "internalType": "bytes32",
              "name": "eventsRoot",
              "type": "bytes32"
            },
            {
              "internalType": "uint32",
              "name": "eventCount",
              "type": "uint32"
            },
            {
              "internalType": "uint64",
              "name": "sourceBlockHeight",
              "type": "uint64"
            },
            {
              "internalType": "uint16",
              "name": "algorithmVersion",
              "type": "uint16"
            },
            {
              "internalType": "uint64",
              "name": "proposedAt",
              "type": "uint64"
            },
            {
              "internalType": "address",
              "name": "proposer",
              "type": "address"
            },
            {
              "internalType": "enum IScoreRegistry.ProposalStatus",
              "name": "status",
              "type": "uint8"
            }
          ],
          "internalType": "struct IScoreRegistry.ScoreProposal",
          "name": "",
          "type": "tuple"
        }
      ],
      "stateMutability": "view",
      "type": "function"
    },
    {
      "inputs": [
        {
          "internalType": "bytes32",
          "name": "popId",
          "type": "bytes32"
        }
      ],
      "name": "getScore",
      "outputs": [
        {
          "internalType": "uint64",
          "name": "score",
          "type": "uint64"
        },
        {
          "internalType": "uint64",
          "name": "updatedAt",
          "type": "uint64"
        }
      ],
      "stateMutability": "view",
      "type": "function"
    },
    {
      "inputs": [],
      "name": "indexer",
      "outputs": [
        {
          "internalType": "address",
          "name": "",
          "type": "address"
        }
      ],
      "stateMutability": "view",
      "type": "function"
    },
    {
      "inputs": [
        {
          "internalType": "bytes32",
          "name": "popId",
          "type": "bytes32"
        },
        {
          "internalType": "uint64",
          "name": "disputeId",
          "type": "uint64"
        }
      ],
      "name": "markDisputed",
      "outputs": [],
      "stateMutability": "nonpayable",
      "type": "function"
    },
    {
      "inputs": [],
      "name": "nextProposalId",
      "outputs": [
        {
          "internalType": "uint64",
          "name": "",
          "type": "uint64"
        }
      ],
      "stateMutability": "view",
      "type": "function"
    },
    {
      "inputs": [
        {
          "internalType": "bytes32",
          "name": "popId",
          "type": "bytes32"
        },
        {
          "internalType": "uint64",
          "name": "score",
          "type": "uint64"
        },
        {
          "internalType": "int64",
          "name": "totalPoints",
          "type": "int64"
        },
        {
          "internalType": "bytes32",
          "name": "eventsRoot",
          "type": "bytes32"
        },
        {
          "internalType": "uint32",
          "name": "eventCount",
          "type": "uint32"
        },
        {
          "internalType": "uint64",
          "name": "sourceBlockHeight",
          "type": "uint64"
        },
        {
          "internalType": "uint16",
          "name": "algorithmVersion",
          "type": "uint16"
        }
      ],
      "name": "proposeScore",
      "outputs": [
        {
          "internalType": "uint64",
          "name": "",
          "type": "uint64"
        }
      ],
      "stateMutability": "nonpayable",
      "type": "function"
    },
    {
      "inputs": [
        {
          "internalType": "bytes32",
          "name": "popId",
          "type": "bytes32"
        },
        {
          "internalType": "bool",
          "name": "disputerWins",
          "type": "bool"
        },
        {
          "internalType": "uint64",
          "name": "correctedScore",
          "type": "uint64"
        },
        {
          "internalType": "int64",
          "name": "correctedPoints",
          "type": "int64"
        }
      ],
      "name": "resolveDispute",
      "outputs": [],
      "stateMutability": "nonpayable",
      "type": "function"
    },
    {
      "inputs": [
        {
          "internalType": "address",
          "name": "newResolver",
          "type": "address"
        }
      ],
      "name": "setDisputeResolver",
      "outputs": [],
      "stateMutability": "nonpayable",
      "type": "function"
    },
    {
      "inputs": [
        {
          "internalType": "address",
          "name": "newIndexer",
          "type": "address"
        }
      ],
      "name": "setIndexer",
      "outputs": [],
      "stateMutability": "nonpayable",
      "type": "function"
    },
    {
      "inputs": [
        {
          "internalType": "address",
          "name": "newAdmin",
          "type": "address"
        }
      ],
      "name": "transferAdmin",
      "outputs": [],
      "stateMutability": "nonpayable",
      "type": "function"
    }
  ],
  "bytecode": "0x608060405260028054600160a01b600160e01b031916600160a01b1790553480156200002a57600080fd5b5060405162002309380380620023098339810160408190526200004d9162000150565b6001600160a01b038216620000a95760405162461bcd60e51b815260206004820152601960248201527f53636f726552656769737472793a207a65726f2061646d696e0000000000000060448201526064015b60405180910390fd5b6001600160a01b038116620001015760405162461bcd60e51b815260206004820152601b60248201527f53636f726552656769737472793a207a65726f20696e646578657200000000006044820152606401620000a0565b600080546001600160a01b039384166001600160a01b0319918216179091556001805492909316911617905562000188565b80516001600160a01b03811681146200014b57600080fd5b919050565b600080604083850312156200016457600080fd5b6200016f8362000133565b91506200017f6020840162000133565b90509250929050565b61217180620001986000396000f3fe608060405234801561001057600080fd5b506004361061012c5760003560e01c80638d88f0d3116100ad578063e06118b711610071578063e06118b7146103c7578063ecdf9739146103f2578063f1610a28146103fb578063f5a3f4af1461040e578063f851a4401461042157600080fd5b80638d88f0d314610362578063924e63f614610385578063a9af2b4b14610398578063c8c0dd09146103ab578063d62aad29146103be57600080fd5b80632e070875116100f45780632e070875146102ab5780633b431e92146102cb57806375829def146102de5780637ba53285146102f15780638696c05e1461034f57600080fd5b806306f465aa14610131578063235572611461016157806326d27d071461027357806327ff6223146102885780632ab09d1414610291575b600080fd5b61014461013f366004611d30565b610434565b6040516001600160401b0390911681526020015b60405180910390f35b61021361016f366004611d4b565b6040805160c081018252600080825260208201819052918101829052606081018290526080810182905260a081019190915250600090815260036020908152604091829020825160c08101845281546001600160401b038082168352600160401b9182900460070b94830194909452600183015494820194909452600290910154808316606083015292830482166080820152600160801b9092041660a082015290565b6040516101589190600060c0820190506001600160401b03808451168352602084015160070b6020840152604084015160408401528060608501511660608401528060808501511660808401528060a08501511660a08401525092915050565b610286610281366004611d7b565b610445565b005b61014461035281565b60025461014490600160a01b90046001600160401b031681565b6102be6102b9366004611d4b565b610a8d565b6040516101589190611e07565b6102866102d9366004611ee9565b610b82565b6102866102ec366004611ee9565b610c4c565b61032f6102ff366004611d4b565b600090815260036020526040902080546002909101546001600160401b0391821692600160401b90910490911690565b604080516001600160401b03938416815292909116602083015201610158565b61014461035d366004611f12565b610cee565b610375610370366004611d4b565b61140c565b6040519015158152602001610158565b610286610393366004611ee9565b61147a565b6102866103a6366004611d4b565b611544565b6102866103b9366004611fa0565b611929565b610144611c2081565b6001546103da906001600160a01b031681565b6040516001600160a01b039091168152602001610158565b61014461070881565b6102be610409366004611fcc565b611ae2565b6002546103da906001600160a01b031681565b6000546103da906001600160a01b031681565b600061043f82611bc0565b92915050565b6002546001600160a01b031633146104785760405162461bcd60e51b815260040161046f90611fe7565b60405180910390fd5b60008481526004602052604090206003600582810154600160a01b900460ff16908111156104a8576104a8611dcf565b146104f55760405162461bcd60e51b815260206004820152601b60248201527f53636f726552656769737472793a206e6f742064697370757465640000000000604482015260640161046f565b831561079b5760058181018054600160a21b60ff60a01b19918216811790925583546001600160401b039081166000908152602085905260408082209095018054909316909317909155835492518893909116917f47524394ce40810f5a45a9c40e0bfb87aa8ff15a8752263256aa5bc227c3383a91a36000836001600160401b0316118061058857508160070b600014155b156107965760006003600087815260200190815260200160002060000160009054906101000a90046001600160401b031690506040518060c00160405280856001600160401b031681526020018460070b8152602001836003015481526020018360040160049054906101000a90046001600160401b03166001600160401b03168152602001436001600160401b031681526020018360000160009054906101000a90046001600160401b03166001600160401b03168152506003600088815260200190815260200160002060008201518160000160006101000a8154816001600160401b0302191690836001600160401b0316021790555060208201518160000160086101000a8154816001600160401b03021916908360070b6001600160401b031602179055506040820151816001015560608201518160020160006101000a8154816001600160401b0302191690836001600160401b0316021790555060808201518160020160086101000a8154816001600160401b0302191690836001600160401b0316021790555060a08201518160020160106101000a8154816001600160401b0302191690836001600160401b03160217905550905050857f53b18bd299f61d29b0705423e834dd34d1b72f674509a1f1d1e238a2e9ae66f6828660405161078c9291906001600160401b0392831681529116602082015260400190565b60405180910390a2505b610a26565b6005810180546002919060ff60a01b1916600160a01b83021790555080546001600160401b031660009081526005602081905260409091200180546002919060ff60a01b1916600160a01b8302179055506040518060c001604052808260020160009054906101000a90046001600160401b03166001600160401b031681526020018260020160089054906101000a900460070b60070b8152602001826003015481526020018260040160049054906101000a90046001600160401b03166001600160401b03168152602001436001600160401b031681526020018260000160009054906101000a90046001600160401b03166001600160401b03168152506003600087815260200190815260200160002060008201518160000160006101000a8154816001600160401b0302191690836001600160401b0316021790555060208201518160000160086101000a8154816001600160401b03021916908360070b6001600160401b031602179055506040820151816001015560608201518160020160006101000a8154816001600160401b0302191690836001600160401b0316021790555060808201518160020160086101000a8154816001600160401b0302191690836001600160401b0316021790555060a08201518160020160106101000a8154816001600160401b0302191690836001600160401b03160217905550905050848160000160009054906101000a90046001600160401b03166001600160401b03167f0226e290c7b64c76f2903daeff75c2013044ccdcd91fc5baf8082f2de92f976b8360020160009054906101000a90046001600160401b031643604051610a1d9291906001600160401b0392831681529116602082015260400190565b60405180910390a35b5050506000918252506004602081905260408220805467ffffffffffffffff19168155600181018390556002810180546001600160801b03191690556003810192909255810180546001600160b01b031916905560050180546001600160a81b0319169055565b610a95611cbf565b60008281526004602081815260409283902083516101608101855281546001600160401b039081168252600183015493820193909352600282015480841695820195909552600160401b90940460070b6060850152600381015460808501529182015463ffffffff811660a08501526401000000008104821660c0850152600160601b810461ffff1660e0850152600160701b9004166101008301526005808201546001600160a01b038116610120850152610140840191600160a01b90910460ff1690811115610b6857610b68611dcf565b6005811115610b7957610b79611dcf565b90525092915050565b6000546001600160a01b03163314610bac5760405162461bcd60e51b815260040161046f9061202a565b6001600160a01b038116610c025760405162461bcd60e51b815260206004820152601b60248201527f53636f726552656769737472793a207a65726f20696e64657865720000000000604482015260640161046f565b600180546001600160a01b0319166001600160a01b0383169081179091556040517f0b2f0a44fea9c661cc85098c5687ed1365281dfdd6d72754e22a6bcb26ce004290600090a250565b6000546001600160a01b03163314610c765760405162461bcd60e51b815260040161046f9061202a565b6001600160a01b038116610ccc5760405162461bcd60e51b815260206004820152601960248201527f53636f726552656769737472793a207a65726f2061646d696e00000000000000604482015260640161046f565b600080546001600160a01b0319166001600160a01b0392909216919091179055565b6001546000906001600160a01b03163314610d4b5760405162461bcd60e51b815260206004820152601a60248201527f53636f726552656769737472793a206e6f7420696e6465786572000000000000604482015260640161046f565b87610d985760405162461bcd60e51b815260206004820152601960248201527f53636f726552656769737472793a207a65726f20706f70496400000000000000604482015260640161046f565b6103526001600160401b0388161115610df35760405162461bcd60e51b815260206004820152601a60248201527f53636f726552656769737472793a2073636f7265203e206d6178000000000000604482015260640161046f565b43836001600160401b03161115610e4c5760405162461bcd60e51b815260206004820152601c60248201527f53636f726552656769737472793a2066757475726520736f7572636500000000604482015260640161046f565b60008881526004602052604090206001600582810154600160a01b900460ff1690811115610e7c57610e7c611dcf565b03610f82576004810154610ea39061070890600160701b90046001600160401b0316612077565b6001600160401b0316431015610efb5760405162461bcd60e51b815260206004820152601760248201527f53636f726552656769737472793a20746f6f20736f6f6e000000000000000000604482015260640161046f565b6005818101805460ff60a01b1916600160a01b83021790555080546001600160401b031660009081526005602081905260409091208101805460ff60a01b1916600160a01b83021790555080546040518a916001600160401b0316907f8d36bdb5275bc903f067501e28466c54ef813f7cb19aab6189c09474472abf8190600090a3610ff1565b6003600582810154600160a01b900460ff1690811115610fa457610fa4611dcf565b03610ff15760405162461bcd60e51b815260206004820152601e60248201527f53636f726552656769737472793a20646973707574652070656e64696e670000604482015260640161046f565b60028054600091600160a01b9091046001600160401b03169060146110158361209e565b91906101000a8154816001600160401b0302191690836001600160401b0316021790555090506000604051806101600160405280836001600160401b031681526020018c81526020018b6001600160401b031681526020018a60070b81526020018981526020018863ffffffff168152602001876001600160401b031681526020018661ffff168152602001436001600160401b03168152602001336001600160a01b03168152602001600160058111156110d2576110d2611dcf565b905260008c815260046020818152604092839020845181546001600160401b0391821667ffffffffffffffff199091161782559185015160018201559284015160028401805460608701518416600160401b026001600160801b0319909116928416929092179190911790556080840151600384015560a0840151918301805460c086015160e08701516101008801518516600160701b0267ffffffffffffffff60701b1961ffff909216600160601b029190911669ffffffffffffffffffff60601b1992909516640100000000026bffffffffffffffffffffffff1990931663ffffffff90961695909517919091171691909117919091179055610120820151600580830180546001600160a01b039093166001600160a01b031984168117825561014086015195965086959391926001600160a81b03199092161790600160a01b90849081111561122757611227611dcf565b021790555050506001600160401b038083166000908152600560208181526040928390208551815490861667ffffffffffffffff199091161781559085015160018201559184015160028301805460608701518616600160401b026001600160801b0319909116928616929092179190911790556080840151600383015560a084015160048301805460c087015160e08801516101008901518816600160701b0267ffffffffffffffff60701b1961ffff909216600160601b029190911669ffffffffffffffffffff60601b1992909816640100000000026bffffffffffffffffffffffff1990931663ffffffff909516949094179190911716949094171790925561012083015181830180546001600160a01b039092166001600160a01b0319831681178255610140860151869590936001600160a81b03191690911790600160a01b90849081111561137d5761137d611dcf565b021790555050604080516001600160401b038d8116825260078d900b60208301529181018b905263ffffffff8a166060820152888216608082015261ffff881660a082015243821660c08201528d9250908416907f778ca3504ac8ee7d05a7b796d55ff7066489113878cf6315d3c1b61930387ca69060e00160405180910390a3509998505050505050505050565b60008181526004602052604081206001600582810154600160a01b900460ff169081111561143c5761143c611dcf565b1480156114735750600481015461146690611c2090600160701b90046001600160401b0316612077565b6001600160401b03164310155b9392505050565b6000546001600160a01b031633146114a45760405162461bcd60e51b815260040161046f9061202a565b6001600160a01b0381166114fa5760405162461bcd60e51b815260206004820152601c60248201527f53636f726552656769737472793a207a65726f207265736f6c76657200000000604482015260640161046f565b600280546001600160a01b0319166001600160a01b0383169081179091556040517feecf015d98bb5cb01d348825d4a98cb094f1480a9846567e14a7947d4a834a9490600090a250565b60008181526004602052604090206001600582810154600160a01b900460ff169081111561157457611574611dcf565b146115c15760405162461bcd60e51b815260206004820152601a60248201527f53636f726552656769737472793a206e6f742070656e64696e67000000000000604482015260640161046f565b60048101546115e390611c2090600160701b90046001600160401b0316612077565b6001600160401b031643101561163b5760405162461bcd60e51b815260206004820152601a60248201527f53636f726552656769737472793a2077696e646f77206f70656e000000000000604482015260640161046f565b6005810180546002919060ff60a01b1916600160a01b83021790555080546001600160401b031660009081526005602081905260409091200180546002919060ff60a01b1916600160a01b8302179055506040518060c001604052808260020160009054906101000a90046001600160401b03166001600160401b031681526020018260020160089054906101000a900460070b60070b8152602001826003015481526020018260040160049054906101000a90046001600160401b03166001600160401b03168152602001436001600160401b031681526020018260000160009054906101000a90046001600160401b03166001600160401b03168152506003600084815260200190815260200160002060008201518160000160006101000a8154816001600160401b0302191690836001600160401b0316021790555060208201518160000160086101000a8154816001600160401b03021916908360070b6001600160401b031602179055506040820151816001015560608201518160020160006101000a8154816001600160401b0302191690836001600160401b0316021790555060808201518160020160086101000a8154816001600160401b0302191690836001600160401b0316021790555060a08201518160020160106101000a8154816001600160401b0302191690836001600160401b03160217905550905050818160000160009054906101000a90046001600160401b03166001600160401b03167f0226e290c7b64c76f2903daeff75c2013044ccdcd91fc5baf8082f2de92f976b8360020160009054906101000a90046001600160401b0316436040516118bd9291906001600160401b0392831681529116602082015260400190565b60405180910390a35060009081526004602081905260408220805467ffffffffffffffff19168155600181018390556002810180546001600160801b03191690556003810192909255810180546001600160b01b031916905560050180546001600160a81b0319169055565b6002546001600160a01b031633146119535760405162461bcd60e51b815260040161046f90611fe7565b60008281526004602052604090206001600582810154600160a01b900460ff169081111561198357611983611dcf565b146119d05760405162461bcd60e51b815260206004820152601a60248201527f53636f726552656769737472793a206e6f742070656e64696e67000000000000604482015260640161046f565b60048101546119f290611c2090600160701b90046001600160401b0316612077565b6001600160401b03164310611a495760405162461bcd60e51b815260206004820152601c60248201527f53636f726552656769737472793a2077696e646f7720636c6f73656400000000604482015260640161046f565b6005810180546003919060ff60a01b1916600160a01b83021790555080546001600160401b031660009081526005602081905260409091200180546003919060ff60a01b1916600160a01b83021790555080546040516001600160401b038481168252859216907f67ed8c9bd5b1d93788b4cdaee8d3aa65f6e601f1ab4a98a6ec5611c9dc74defc9060200160405180910390a3505050565b611aea611cbf565b6001600160401b03828116600090815260056020818152604092839020835161016081018552815486168152600182015492810192909252600281015480861694830194909452600160401b90930460070b606082015260038301546080820152600483015463ffffffff811660a08301526401000000008104851660c0830152600160601b810461ffff1660e0830152600160701b9004909316610100840152818101546001600160a01b038116610120850152610140840191600160a01b90910460ff1690811115610b6857610b68611dcf565b6000808260070b13611bd457506000919050565b6101f48260070b12611be95750610352919050565b8160326001600160401b0382161015611c13576032611c098260646120c4565b61147391906120e7565b6064816001600160401b03161015611c51576032611c31818361211b565b611c3c9060646120c4565b611c4691906120e7565b611473906064612077565b60fa816001600160401b03161015611c91576096611c7060648361211b565b611c7c9061012c6120c4565b611c8691906120e7565b6114739060c8612077565b60fa611c9d818361211b565b611ca99061015e6120c4565b611cb391906120e7565b611473906101f4612077565b6040805161016081018252600080825260208201819052918101829052606081018290526080810182905260a0810182905260c0810182905260e08101829052610100810182905261012081018290529061014082015290565b8035600781900b8114611d2b57600080fd5b919050565b600060208284031215611d4257600080fd5b61147382611d19565b600060208284031215611d5d57600080fd5b5035919050565b80356001600160401b0381168114611d2b57600080fd5b60008060008060808587031215611d9157600080fd5b8435935060208501358015158114611da857600080fd5b9250611db660408601611d64565b9150611dc460608601611d19565b905092959194509250565b634e487b7160e01b600052602160045260246000fd5b60068110611e0357634e487b7160e01b600052602160045260246000fd5b9052565b81516001600160401b031681526101608101602083015160208301526040830151611e3d60408401826001600160401b03169052565b506060830151611e52606084018260070b9052565b506080830151608083015260a0830151611e7460a084018263ffffffff169052565b5060c0830151611e8f60c08401826001600160401b03169052565b5060e0830151611ea560e084018261ffff169052565b50610100838101516001600160401b031690830152610120808401516001600160a01b03169083015261014080840151611ee182850182611de5565b505092915050565b600060208284031215611efb57600080fd5b81356001600160a01b038116811461147357600080fd5b600080600080600080600060e0888a031215611f2d57600080fd5b87359650611f3d60208901611d64565b9550611f4b60408901611d19565b945060608801359350608088013563ffffffff81168114611f6b57600080fd5b9250611f7960a08901611d64565b915060c088013561ffff81168114611f9057600080fd5b8091505092959891949750929550565b60008060408385031215611fb357600080fd5b82359150611fc360208401611d64565b90509250929050565b600060208284031215611fde57600080fd5b61147382611d64565b60208082526023908201527f53636f726552656769737472793a206e6f742064697370757465207265736f6c6040820152623b32b960e91b606082015260800190565b60208082526018908201527f53636f726552656769737472793a206e6f742061646d696e0000000000000000604082015260600190565b634e487b7160e01b600052601160045260246000fd5b6001600160401b0381811683821601908082111561209757612097612061565b5092915050565b60006001600160401b038083168181036120ba576120ba612061565b6001019392505050565b6001600160401b03818116838216028082169190828114611ee157611ee1612061565b60006001600160401b038084168061210f57634e487b7160e01b600052601260045260246000fd5b92169190910492915050565b6001600160401b038281168282160390808211156120975761209761206156fea26469706673582212207c6bc15aef6f7e8fb1a5fe301f75117666489e4716aa4d8b9b19d5a181048fdd64736f6c63430008180033",
  "linkReferences": {},
  "deployedLinkReferences": {}
}